:020000040800F2
:1000000000000520ED3B0008E90A0008EB0A0008A3
:10001000ED0A0008EF0A0008F10A000800000000DD
:100020000000000000000000000000003D3C00084F
:10003000F30A0008000000003D3C0008F50A000833
:100040003D3C00083D3C00083D3C00083D3C0008AC
:100050003D3C00083D3C00083D3C00083D3C00089C
:100060003D3C00083D3C00083D3C00083D3C00088C
:100070003D3C00083D3C00083D3C00083D3C00087C
:100080003D3C00083D3C00083D3C00083D3C00086C
:100090003D3C00083D3C00083D3C00083D3C00085C
:1000A0003D3C00083D3C00083D3C00083D3C00084C
:1000B0003D3C00083D3C00083D3C00083D3C00083C
:1000C0003D3C00083D3C00083D3C00083D3C00082C
:1000D0003D3C00083D3C00083D3C00083D3C00081C
:1000E0003D3C00083D3C00083D3C00083D3C00080C
:1000F0003D3C00083D3C00083D3C00083D3C0008FC
:100100003D3C00083D3C00083D3C00083D3C0008EB
:100110003D3C00083D3C00083D3C00083D3C0008DB
:100120003D3C00083D3C00083D3C00083D3C0008CB
:100130003D3C00083D3C00083D3C00083D3C0008BB
:100140003D3C00083D3C00083D3C00083D3C0008AB
:100150003D3C00083D3C00083D3C00083D3C00089B
:100160003D3C00083D3C00083D3C00083D3C00088B
:100170003D3C00083D3C00083D3C000800000000FC
:100180003D3C00083D3C00083D3C00083D3C00086B
:100190003D3C00083D3C00083D3C00083D3C00085B
:1001A000010B00083D3C0008110B00083D3C000815
:1001B0003D3C00083D3C00083D3C00083D3C00083B
:0801C0003D3C00083D3C000835
:1001C80010B5054C237833B9044B13B10448AFF389
:1001D80000800123237010BDD00200200000000021
:1001E8002014010808B5034B1BB103490348AFF3BA
:1001F800008008BD00000000D4020020201401087F
:1002080053B94AB9002908BF00281CBF4FF0FF3175
:100218004FF0FF3000F072B9ADF1080C6DE904CE73
:1002280000F006F8DDF804E0DDE9022304B07047C9
:100238002DE9F047089E04468846002B4BD18A4298
:10024800154667D9B2FA82F24AB1C2F1200701FA1B
:1002580002F320FA07F7954047EA030894404FEA6B
:10026800154E230CB8FBFEF71FFA85FC0EFB17880A
:1002780043EA084307FB0CF1994209D9EB1807F147
:10028800FF3080F01B81994240F21881023F2B44D5
:100298005B1AA4B2B3FBFEF00EFB103344EA03442E
:1002A80000FB0CFCA44509D92C1900F1FF3380F0A0
:1002B8000781A44540F2048102382C4440EA0740F3
:1002C800A4EB0C0400271EB1D4400023C6E9004368
:1002D8003946BDE8F0878B4209D9002E00F0EB8043
:1002E8000027C6E9000138463946BDE8F087B3FA69
:1002F80083F7002F47D18B4202D3824200F2FA8063
:10030800841A61EB030301209846002EE0D0C6E969
:100318000048DDE702B9FFDEB2FA82F2002A40F0B7
:100328008F80491B4FEA154E1FFA85F80127B1FB4C
:10033800FEFC230C0EFB1C1143EA014308FB0CF1E5
:10034800994207D9EB180CF1FF3002D2994200F21A
:10035800CD808446591AA3B2B1FBFEF00EFB1014EF
:1003680043EA044408FB00F8A04507D92C1900F11A
:10037800FF3302D2A04500F2B6801846A4EB080469
:1003880040EA0C409FE7C7F1200CBB4022FA0CFE64
:100398004EEA030E01FA07F420FA0CF521FA0CF3E1
:1003A8004FEA1E482543B3FBF8F92C0C08FB193318
:1003B8001FFA8EFA44EA034309FB0AF49C4202FA44
:1003C80007F200FA07F10BD91EEB030309F1FF301E
:1003D80080F087809C4240F28480A9F1020973442E
:1003E8001B1BADB2B3FBF8F008FB103345EA03441E
:1003F80000FB0AFAA24508D91EEB040400F1FF33FA
:100408006BD2A24569D90238744440EA0940A0FB7E
:100418000289A4EB0A044C45C2464B4654D351D03A
:10042800002E69D0B1EB0A0564EB030404FA0CFC56
:10043800FD40FC404CEA0505C6E90054002747E7A3
:10044800C2F1200320FA03F7954001FA02F021FADD
:1004580003F34FEA154E3843010CB3FBFEF71FFABE
:1004680085F80EFB173341EA034107FB08F38B427B
:1004780004FA02F407D9691807F1FF3C2FD28B421E
:100488002DD9023F2944CB1A81B2B3FBFEF00EFBF3
:10049800103341EA034100FB08F38B4207D969187E
:1004A80000F1FF3C17D28B4215D902382944C91AEA
:1004B80040EA07473BE73746304609E70746E7E69D
:1004C8001846FBE64145ABD2B8EB020A69EB0E02CF
:1004D80001381346A4E76046E9E7184695E76746FA
:1004E800D1E781467CE702382C4447E7ACF1020C9F
:1004F8002B442FE7384608E73746E9E6704700BF40
:10050800034613F8012B002AFBD1181A013870474B
:1005180030B591B000240B940C940D940E940F9464
:100528003A4B1A6B42F010021A631A6B02F010026F
:100538000092009A1A6B42F040021A631A6B02F09A
:1005480040020192019A1A6B42F002021A631A6B76
:1005580002F002020292029A1A6B42F001021A6336
:100568001A6B02F001020392039A1A6B42F40072AA
:100578001A631A6B02F400720492049A1A6B42F01E
:1005880008021A631A6B02F008020592059A1A6BA0
:1005980042F480621A631A6B02F480620692069A29
:1005A8001A6B42F020021A631A6B02F020020792BB
:1005B800079A1A6B42F480721A631A6B02F48072FB
:1005C8000892089A1A6B42F004021A631A6B02F036
:1005D80004020992099A1A6B42F080021A631B6B93
:1005E80003F080030A930A9B094D224603212846FB
:1005F80002F052FB03230B9301230C930D940E94EA
:100608000BA9284602F05AFA11B030BD0038024052
:100618000020024000B583B0124B1A6B42F48002EE
:100628001A631B6B03F480030193019B0E480F4B65
:10063800036000234360802282604FF40072C2602E
:100648004FF48062026143618361C36103620422E3
:10065800426203228262C362036302F087F803B036
:100668005DF804FB00380240600600201064024078
:1006780008B50648064B03600023037143714361C4
:1006880083610123036201F039F808BDC006002028
:100698000030024008B50948094B03604FF4E133C4
:1006A800436000238360C36003610C22426183615D
:1006B800C3610362436200F018FD08BDD80700203B
:1006C8000014014038B50D4C0D4B23600D4B636091
:1006D8000025A5600123E36025616561A561E561E9
:1006E8002562204601F078FF2946204602F012FCD8
:1006F8002946204602F03CFC38BD00BFE406002035
:1007080000580040FFEAC00010B5094C094B2360AF
:1007180000236360A360E360A362E362236363630F
:10072800204602F0C7FA0121204602F091FB10BDD5
:100738005808002000B0024000B589B00F48104B9F
:1007480003600022426082600423C36010230361B7
:100758004021416180218161C261026242628262FC
:10076800019302930393049305930693079301A9B6
:1007780001F097FB09B05DF804FB00BF9808002062
:10078800400100A030B59BB03424224600210DEB77
:10079800040003F075FA22460021684603F070FA57
:1007A800304D314B2B6000246C60AC60EC602C61E8
:1007B80028236B610923AB613523EB610B232B6283
:1007C80040F215236B6240F21B13AB6240F23523F3
:1007D800EB6240F21D132B6385F8344085F83540F1
:1007E80085F83640284601F093F80D944FF4F072DE
:1007F8000E920F944FF48873109302211191FF21E8
:10080800129113944FF4C0611491072115914FF080
:1008180040411691179218938DF864408DF8654001
:100828008DF8664022460DA9284601F066F9009425
:10083800019402940394059406944FF480630793FB
:100848000523089309940A940B948DF830408DF889
:1008580031408DF8324001226946284601F04DF9B1
:100868001BB030BD300700200068014000239342D0
:1008780023DA10B40CE000BF4FF06041096800298A
:10088800F9D04FF06041087001332146934210DAE5
:100898004C1C08784FF06041D1F8801E11F0010F10
:1008A800F2D04FF06041D1F8001E11F0010FEBD0EB
:1008B800E2E710465DF8044B7047104670470000A9
:1008C800024A136801331360704700BF04610220B5
:1008D80070B5B4B03022002128A803F0D1F9002463
:1008E800239424942594269427948422214602A8AC
:1008F80003F0C6F901F0CEFE274B1A6C42F0805285
:100908001A641B6C03F080530093009B234B1A68F6
:1009180042F440421A601B6803F440430193019B70
:10092800012628964FF48033299302252E954FF4FB
:1009380080032F93192330934FF4C8733193329562
:100948000923339328A801F0FDFA01F06BFA0F236D
:100958002393249525944FF4A05326934FF4805362
:100968002793062123A801F05BFD48F608030293AC
:100978004FF4C073079305230993089503230A933B
:100988000C964FF400330D9318941C9402A800F0B1
:10099800DDFB34B070BD00BF00380240007000407D
:1009A80000B583B0BFF34F8FBFF36F8F434B002168
:1009B800C3F85012BFF34F8FBFF36F8F5A6942F4D9
:1009C80000325A61BFF34F8FBFF36F8FC3F88410A3
:1009D800BFF34F8FD3F88040C4F34E310FE01A466F
:1009E80043F6E07303EA411343EA82733348C0F8DD
:1009F8006032531E002AF2D14B1E19B11946C4F3B6
:100A0800C902EDE7BFF34F8F436943F48033436175
:100A1800BFF34F8FBFF36F8F00F0A6F8284C236BFE
:100A280043F480532363236B03F480530093009BA8
:100A3800FFF74EFF002002F00BFBFFF769FDFFF701
:100A4800E9FDFFF715FEFFF725FEFFF73BFEFFF771
:100A58005BFEFFF771FEFFF795FE1A4803F074F985
:100A680002F028FC236B43F480532363236B03F4C5
:100A780080530193019B144803F066F904F0D6FBF8
:100A8800124803F061F900221146114804F0D8FD1C
:100A980003F052F804F014FA0E4803F055F904F084
:100AA8000FFA0D4803F050F902210C4802F0FAF849
:100AB8004FF4FA7004F0E2FFF1E700BF00ED00E048
:100AC800003802406C2E01087C2E01088C2E01088B
:100AD8009C2E0108A82E0108B82E0108002002400B
:100AE8007047FEE7FEE7FEE7FEE7704708B500F04F
:100AF80047F801F03DFF08BD08B5024800F090FF37
:100B080008BD00BF3007002008B5024802F002F90E
:100B180008BD00BF580800207047000010B5044603
:100B28000E4B18784FF47A73B3FBF0F30C4A106845
:100B3800B0FBF3F001F006FF68B90F2C01D90120D2
:100B48000AE0002221464FF0FF3001F0BBFE054BC2
:100B58001C60002000E0012010BD00BF5D020020E5
:100B6800640200206002002008B5032001F098FE0E
:100B78000F20FFF7D3FFFFF7CFFF002008BD0000CD
:100B8800034A1168034B1B780B441360704700BF7E
:100B9800CC0800205D020020014B1868704700BF98
:100BA800CC08002038B50446FFF7F6FF0546B4F137
:100BB800FF3F02D0044B1B781C44FFF7EDFF401B9E
:100BC800A042FAD338BD00BF5D0200207047000084
:100BD80010B5044683680269134342691343C26926
:100BE800134301680868994A024013430B6022685E
:100BF800536823F44053E1680B435360A269236AA6
:100C08001A4321688B6823F4306313438B6023688D
:100C18008F4A934218D08F4A934228D08E4A9342E3
:100C28003DD08E4A934250D08D4A934262D08D4A2D
:100C3800934277D08C4A934200F08C808B4A93423F
:100C480000F0A0801023B6E0894BD3F8903003F071
:100C58000303032B09D8DFE803F00204AD060123E0
:100C6800A9E00423A7E00823A5E01023A3E0804B14
:100C7800D3F8903003F00C030C2B0ED8DFE803F008
:100C8800070D0D0D090D0D0DA90D0D0D0B00002300
:100C980091E004238FE008238DE010238BE0744B50
:100CA800D3F8903003F03003102B0AD006D9202B4C
:100CB80000F09180302B06D108237CE01BB900237B
:100CC80079E0042377E0102375E0694BD3F890307E
:100CD80003F0C003402B09D005D9802B7DD0C02B51
:100CE80006D1082367E01BB9002364E0042362E00F
:100CF800102360E05E4BD3F8903003F44073B3F5F3
:100D0800807F0BD007D9B3F5007F68D0B3F5407F5B
:100D180006D108234FE01BB900234CE004234AE026
:100D2800102348E0524BD3F8903003F44063B3F5F6
:100D3800806F0BD007D9B3F5006F52D0B3F5406F71
:100D480006D1082337E01BB9012334E0042332E03D
:100D5800102330E0464BD3F8903003F44053B3F5FA
:100D6800805F0BD007D9B3F5005F3CD0B3F5405F87
:100D780006D108231FE01BB900231CE004231AE056
:100D8800102318E03A4BD3F8903003F44043B3F5FE
:100D9800804F0BD007D9B3F5004F26D0B3F5404F9D
:100DA80006D1082307E01BB9002304E0042302E06E
:100DB800102300E00223E269B2F5004F17D0082B98
:100DC80000F2B380DFE803F0768B95B19EB1B1B144
:100DD800A8000223EFE70223EDE70223EBE7022353
:100DE800E9E70223E7E70223E5E70223E3E7082B25
:100DF8005DD8DFE803F0051F3F5C485C5C5C53008E
:100E080001F0C8FB6268530803EB4003B3FBF2F33D
:100E18009BB20020A3F110014FF6EF72914200F24D
:100E280087809AB222F00F02C3F342031343226869
:100E3800D36050E001F0BEFB6268530803EB400347
:100E4800B3FBF2F39BB20020E4E700BFF369FFEFC6
:100E5800001001400044004000480040004C0040A1
:100E6800005000400014014000780040007C004021
:100E7800003802406268304B03EB5203B3FBF2F3D5
:100E88009BB20020C6E701F077FA6268530803EBCB
:100E98004003B3FBF2F39BB20020BBE76268530840
:100EA80003F58033B3FBF2F39BB20020B2E70120D5
:100EB8000023AFE701F06EFB626800EB5203B3FB5F
:100EC800F2F39BB20020A3F110014FF6EF729142AA
:100ED80030D82268D36000232366636610BD01F012
:100EE80069FB626800EB5203B3FBF2F39BB200208C
:100EF800E9E76268114B03EB5203B3FBF2F39BB2D1
:100F08000020E0E701F038FA626800EB5203B3FB17
:100F1800F2F39BB20020D6E76268530803F500435A
:100F2800B3FBF2F39BB20020CDE701200023CAE710
:100F38000120D0E70120CEE70048E8010024F400B2
:100F4800436A13F0010F06D00268536823F4003394
:100F5800816A0B435360436A13F0020F06D002689C
:100F6800536823F48033C16A0B435360436A13F018
:100F7800040F06D00268536823F48023016B0B43E7
:100F88005360436A13F0080F06D00268536823F4CD
:100F98000043416B0B435360436A13F0100F06D0B4
:100FA8000268936823F48053816B0B439360436A10
:100FB80013F0200F06D00268936823F40053C16B26
:100FC8000B439360436A13F0400F0AD002685368DA
:100FD80023F48013016C0B435360036CB3F5801F3B
:100FE8000BD0436A13F0800F06D00268536823F4CD
:100FF8000023816C0B43536070470268536823F4E5
:10100800C003416C0B435360EBE72DE9F041044604
:101018000F4616469846069D2368DB6937EA0303A0
:101028000CBF01230023B3423AD1B5F1FF3FF3D0FF
:10103800FFF7B2FDA0EB0800A8421FD8F5B123685E
:101048001A6812F0040FE7D0DA6912F4006FE3D0DF
:101058004FF400621A622268136823F4D073136095
:101068002268936823F00103936020236367A367D2
:10107800E367002384F87030032012E022681368C5
:1010880023F4D07313602268936823F001039360FC
:1010980020236367A367002384F87030032000E0EF
:1010A8000020BDE8F08110B582B004460023C36774
:1010B800FFF772FD2268126812F0080F07D120238B
:1010C8006367A367002084F8700002B010BD6FF05A
:1010D8007E430093034600224FF400112046FFF799
:1010E80094FF0028EBD00320EFE768B310B504465F
:1010F800436F03B3242363672268136823F0010353
:1011080013602046FFF764FD012813D0636ABBB95A
:101118002268536823F4904353602268936823F04D
:101128002A0393602268136843F001031360204682
:10113800FFF7B9FF10BD80F87030FFF747FDD9E71A
:101148002046FFF7FDFEE3E701207047F0B583B0C6
:101158000446036813F0010F0CD0AF4B9A6822F4D1
:1011680000029A609A68416B0A439A60436BC3B164
:10117800002600E00026236813F4002F15D0A64AA5
:10118800D2F88C3023F44013E16B0B43C2F88C3057
:10119800E36BB3F5801F06D0002B00F01B81002500
:1011A80004E00126E7E70126F6E70025236813F4A3
:1011B800801F0FD0984AD2F88C3023F44003216C5A
:1011C8000B43C2F88C30236CB3F5800F00F0048118
:1011D80003B90125236813F0807F00D0012613F09E
:1011E800200F40F0FB80236813F0100F0CD08A4BBF
:1011F800D3F88C2022F08072C3F88C20D3F88C208E
:10120800A16B0A43C3F88C20236813F4804F08D0DD
:10121800814AD2F8903023F44033616E0B43C2F810
:101228009030236813F4004F08D07B4AD2F89030EE
:1012380023F44023A16E0B43C2F89030236813F4C3
:10124800803F08D0744AD2F8903023F44013E16EFE
:101258000B43C2F89030236813F4003F08D06E4A5D
:10126800D2F8903023F44003216F0B43C2F890303A
:10127800236813F0400F08D0674AD2F8903023F063
:101288000303616C0B43C2F89030236813F0800F9E
:1012980008D0614AD2F8903023F00C03A16C0B43BC
:1012A800C2F89030236813F4807F08D05A4AD2F8E5
:1012B800903023F03003E16C0B43C2F89030236880
:1012C80013F4007F08D0544AD2F8903023F0C003BA
:1012D800216D0B43C2F89030236813F4806F08D057
:1012E8004D4AD2F8903023F44073616D0B43C2F835
:1012F8009030236813F4006F08D0474AD2F8903032
:1013080023F44063A16D0B43C2F89030236813F4B3
:10131800805F08D0404AD2F8903023F44053E16D02
:101328000B43C2F89030236813F4005F08D03A4AA0
:10133800D2F8903023F44043216E0B43C2F890302A
:10134800236813F4800F08D0334AD2F8903023F082
:101358008063A16F0B43C2F89030236813F4001F19
:101368000DD02D4AD2F8903023F00063E16F0B4383
:10137800C2F89030E36FB3F1006F00F099802368F2
:1013880013F0080F00D0012513F4802F08D0224A4B
:10139800D2F8903023F04073616F0B43C2F890305D
:1013A800236813F4000F09D01B4AD2F8903023F0B9
:1013B8008053D4F880100B43C2F89030002E79D1B6
:1013C8002368B3F1007F75D0002D40F0068100201E
:1013D80003B0F0BD0125E9E60126F9E60E4B1A6CCB
:1013E80042F080521A641B6C03F080530193019BF6
:1013F8000A4A136843F480731360FFF7CDFB07466E
:10140800064B1B6813F4807F0AD1FFF7C5FBC01B8E
:101418006428F5D90320DBE700380240007000405B
:10142800B34B1B6F13F4407315D0226B02F4407258
:101438009A4210D0AE4B1A6F22F44072196F41F4E1
:1014480080311967196F21F4803119671A671B6F8A
:1014580013F0010F12D1236B03F44072B2F5407FF1
:101468001DD0A34A936823F4F8139360A0490B6F27
:10147800226BC2F30B0213430B67B4E6FFF78CFB36
:1014880007469B4B1B6F13F0020FE4D1FFF784FB59
:10149800C01B41F288339842F3D9032098E7944857
:1014A800826822F4F812934919400A438260DDE702
:1014B800012564E78E4A136823F080631360FFF701
:1014C8006BFB06468A4B1B6813F0006F06D0FFF7CC
:1014D80063FB801B6428F5D9032079E7236813F0A0
:1014E800010F13D0636B8BB9814AD2F88430D2F8DC
:1014F8008410606803F4403343EA801301F070619C
:101508000B43A16843EA0173C2F88430236813F4DB
:10151800002F03D0E26BB2F5801F06D013F4801FB2
:101528001ED0236CB3F5800F1AD1714AD2F88430DB
:10153800D2F88410606803F4403343EA8013E0680B
:1015480043EA006301F0E0410B43C2F88430D2F86B
:101558008C3023F01F03616A01390B43C2F88C30C9
:10156800236813F0807F11D0614AD2F88400D2F842
:101578008410666823691B0443EA861300F07060D0
:10158800034301F0E0410B43C2F88430236813F0B1
:10159800007F0DD0626823691B0443EA8213E26866
:1015A80043EA0263A26843EA0273514AC2F88430EC
:1015B8004F4A136843F080631360FFF7EDFA06465D
:1015C8004B4B1B6813F0006F7FF4FEAEFFF7E4FA95
:1015D800801B6428F4D90320FAE6454A136823F0EF
:1015E80080531360FFF7D8FA0546414B1B6813F088
:1015F800005F06D0FFF7D0FA401B6428F5D9032016
:10160800E6E6236813F4002F01D0E26B22B113F44D
:10161800801F1DD0236CDBB9354AD2F88830D2F848
:101628008810606903F4403343EA8013A06943EAF1
:10163800006301F0E0410B43C2F88830D2F88C30E7
:1016480023F4F853A16A013943EA0123C2F88C3024
:10165800236813F4001F03D0E36FB3F1006F31D098
:10166800236813F0080F19D0214AD2F88810D2F84D
:101678008830606903F4403343EA801301F07061F5
:101688000B43E16943EA0173C2F88830D2F88C3021
:1016980023F44033E16A0B43C2F88C30144A1368D0
:1016A80043F080531360FFF777FA0446104B1B682A
:1016B80013F0005F19D1FFF76FFA001B6428F5D902
:1016C800032085E60A4AD2F88800D2F888106569AE
:1016D800236A1B0443EA851300F07060034301F09A
:1016E800E0410B43C2F88830BAE7002070E600BF3B
:1016F80000380240FFFCFF0F70470000002838D078
:1017080010B50446437F1BB30223637723791BBBC1
:101718002368194A5A612268936823F01803936072
:10172800637913BB23684FF0FF321A61226893680C
:1017380023F0600361690B4393602268936823F088
:101748008003A1690B43936001236377002010BDD8
:101758000377FFF7D1FFD7E7E268A168204601F0D9
:1017680033FC0028DCD00120F1E7236822691A61E4
:10177800DCE70120704700BFB71DC104F0B44D6815
:101788000468E368C3F30B431D44D2011444D4F83E
:10179800883003F47043C4F888300B680468E6683E
:1017A800C6F30B4633440133144443EA0543C4F8F3
:1017B8008830CD680468E368C3F30A031D44144401
:1017C800D4F88C3003F47043C4F88C308B68046808
:1017D800E668C6F30A0633440133144443EA054372
:1017E800C4F88C3003681344D3F8944024F00704F9
:1017F800C3F89440036813440C69C3F8944091F803
:1018080031C091F832708E6905681544D5F89C305E
:101818000024C5F89C4091F8303043EA0C2343EA91
:1018280007430568154443EA0663C5F89C30036816
:101838001344D3F8985025F0FF05C3F8985003686F
:1018480013444D69C3F8985003681344D3F8A06053
:101858002D4D3540C3F8A050CD690E6A0368134476
:101868003543C3F8A05003681344D3F8AC50C3F809
:10187800AC40036813444C6AC3F8AC400B696BB1C5
:10188800012B3AD0022B18BF042B38D0032B38D0A9
:10189800072B01D0012302E0022300E0042304689F
:1018A8001444D4F8B05005F0E025C4F8B0508C6A60
:1018B80003FB04F54C680E68A41B03FB04F3033315
:1018C8000468144443EA0543C4F8B0300368134479
:1018D800D3F8B4500D4C2C40C3F8B44003681344FB
:1018E800C96AC3F8B41003681A44D2F8843043F0C4
:1018F8000103C2F88430F0BC70470323CFE702230A
:10190800CDE70223CBE700BFF8F8FFFF00F8FFFFA1
:10191800002872D038B5044690F8A130002B67D063
:10192800022384F8A1302268936923F070439361FD
:1019380021688A696368A0680343E06803432069F3
:10194800034313438B6121688A682D4B1A408A60D0
:10195800656920688268A16941EA05410A43826095
:101968002168CA681A40CA60E5692068C268216AA5
:1019780041EA05410A43C26021680A691A400A61BE
:10198800656A20680269A16A41EA05410A43026161
:1019980021684A6913404B61E06A21684B69226BF0
:1019A80042EA004213434B6194F8350094F836300C
:1019B8001B042168CA6A02F07F42CA622168CA6AA7
:1019C80043EA002394F8340003431343CB622268AC
:1019D800536B43F0060353632268936943F0010392
:1019E80093610020C4F8A400012384F8A13038BD15
:1019F80080F8A03001F06CFE92E70120704700BF2C
:101A080000F800F010B5044601F008FF0020C4F803
:101A1800A40084F8A10084F8A00010BD70477047A6
:101A280070B5044603689D6B5E6B15F0040F02D019
:101A380016F0040F12D115F0020F02D016F0020FA3
:101A480021D115F0010F02D016F0010F32D115F097
:101A5800080F02D016F0080F3DD170BD5A6B22F066
:101A680004025A6303680422DA63D0F8A43043F00E
:101A78000103C0F8A43080F8A120002380F8A0302A
:101A8800FFF7CCFFD7E72268536B23F002035363B9
:101A980023680222DA63D4F8A4301343C4F8A430CC
:101AA800042384F8A130002384F8A0302046FFF7EF
:101AB800B5FFC6E72268536B23F00103536322681E
:101AC8000123D36384F8A130002384F8A030204692
:101AD80001F0B0FEBBE72268536B23F008035363A1
:101AE80023680822DA63012384F8A130002384F8EC
:101AF800A0302046FFF793FFAFE790F8A030012B06
:101B080027D02DE9F04194460F4606464FF00108CC
:101B180080F8A080022380F8A130342404FB02045A
:101B280038340D460FCD0FC40FCD0FC40FCD0FC4E1
:101B38002B682360624639463046FFF71FFE33683C
:101B4800C3F8248086F8A180002086F8A000BDE8AC
:101B5800F0810220704790F8A030012B1DD030B4DE
:101B6800012480F8A040022380F8A1300368D20144
:101B78001344D3F8905005F07F45C3F8905003689C
:101B88001A44C2F8901003685C6280F8A1400023F0
:101B980080F8A030184630BC704702207047F0B477
:101BA80090F8A040012C36D0012480F8A0400224EF
:101BB80080F8A140002612E006EB06140F68FDB27B
:101BC80045EA046407F47F452C4307F47F073C4348
:101BD8000431056805EBC315C5F8C44001369642C3
:101BE80010D2342404FB0304A46C062CE4D00D6842
:101BF800ECB244EA066405F47F473C4305F47F05EC
:101C08002C43E5E7012380F8A130002380F8A030B9
:101C18001846F0BC70470220FBE790F8A030012B73
:101C280017D0012280F8A020022380F8A130036891
:101C380003EBC111D1F8843043F00203C1F88430BA
:101C480003685A6280F8A120002380F8A030184663
:101C580070470220704790F8A030012B17D001225E
:101C680080F8A020022380F8A130036803EBC1119B
:101C7800D1F8843023F00203C1F8843003685A6233
:101C880080F8A120002380F8A03018467047022071
:101C9800704790F8A030012B17D0012280F8A020BF
:101CA800022380F8A130036803EBC111D1F8843016
:101CB80043F01003C1F8843003685A6280F8A12009
:101CC800002380F8A03018467047022070470000B3
:101CD80090F8A030012B11D0012280F8A020022317
:101CE80080F8A13006498B6943F480338B6180F812
:101CF800A120002380F8A0301846704702207047C2
:101D080000680140F8B590F8A040012C21D00446A5
:101D1800012580F8A050022084F8A100342000FB9F
:101D280003F000F1380720448163066E0E44C66351
:101D38000264466E324442641A46E1192046FFF7AF
:101D48001DFD23685D6284F8A150002084F8A0007E
:101D5800F8BD0220FCE738B590F8A030012B19D067
:101D68000446012580F8A050022380F8A1303423CE
:101D780003FB02F303F138002344D96421182046F9
:101D8800FFF7FCFC23685D6284F8A150002084F80A
:101D9800A00038BD0220FCE738B590F8A030012B30
:101DA80019D00446012580F8A050022380F8A130FC
:101DB800342303FB02F303F138002344D9652118C7
:101DC8002046FFF7DBFC23685D6284F8A150002001
:101DD80084F8A00038BD0220FCE7000090F8A0308D
:101DE800012B1AD010B4012280F8A020022380F819
:101DF800A1300468636B23F001036363084B196423
:101E080001684B6B13434B6380F8A120002380F8D3
:101E1800A03018465DF8044B70470220704700BF99
:101E28000068014010B582B01B4B1A6C42F080521A
:101E38001A641B6C03F080530193019B174A1368C3
:101E480043F480331360FEF7A7FE0446134B5B6828
:101E580013F4803F08D1FEF79FFE001BB0F57A7F90
:101E6800F4D9032002B010BD0C4A136843F40033C0
:101E78001360FEF791FE0446084B5B6813F4003FBD
:101E880007D1FEF789FE001BB0F57A7FF4D903204D
:101E9800E8E70020E6E700BF003802400070004095
:101EA8007047D8B138B504460D4690F82C3083B148
:101EB800022384F82C30211D206800F05DFD626843
:101EC8002946206800F092FD012384F82C30002078
:101ED80038BD80F82D30FFF7E3FFE9E701207047B0
:101EE80038B590F82C30DBB2022B14D00D460446DE
:101EF800022380F82C30006800F0C4FD2B68022B08
:101F080004D0012384F82C30002038BD052384F840
:101F18002C300020F9E70220F7E790F82C30DBB2EC
:101F2800022B0CD010B50446022380F82C30006830
:101F380000F0BEFD012384F82C30002010BD0220E3
:101F480070470000002800F0098270B582B004468E
:101F5800036813F0010F29D0A24B9B6803F00C0310
:101F6800042B1AD09F4B9B6803F00C03082B0FD04F
:101F78006368B3F5803F40D0002B54D1994B1A6861
:101F880022F480321A601A6822F480221A6039E03A
:101F9800944B5B6813F4800FEAD0924B1B6813F4E0
:101FA800003F03D06368002B00F0DA81236813F048
:101FB800020F75D08B4B9B6813F00C0F5ED0894BCA
:101FC8009B6803F00C03082B53D0E368002B00F048
:101FD8008A80844A136843F001031360FEF7DCFD2E
:101FE8000546804B1B6813F0020F73D1FEF7D4FD32
:101FF800401B0228F5D90320B5E17A4A136843F457
:102008008033136063682BB3FEF7C6FD0546754B36
:102018001B6813F4003FC9D1FEF7BEFD401B6428BE
:10202800F5D903209FE1B3F5A02F09D06D4B1A68AD
:1020380022F480321A601A6822F480221A60E1E7DA
:10204800684B1A6842F480221A601A6842F4803297
:102058001A60D7E7FEF7A0FD0546624B1B6813F42C
:10206800003FA3D0FEF798FD401B6428F5D9032054
:1020780079E15C4B5B6813F4800FA6D1594B1B6860
:1020880013F0020F04D0E368012B01D001206AE1AC
:10209800544A136823F0F803216943EAC103136023
:1020A800236813F0080F46D0636983B34D4A536F12
:1020B80043F001035367FEF76FFD0546494B5B6F1D
:1020C80013F0020F37D1FEF767FD401B0228F5D940
:1020D800032048E1434A136823F0F803216943EADF
:1020E800C1031360DCE73F4A136823F00103136060
:1020F800FEF752FD05463B4B1B6813F0020FCFD08D
:10210800FEF74AFD401B0228F5D903202BE1354A8A
:10211800536F23F001035367FEF73EFD0546314B2D
:102128005B6F13F0020F06D0FEF736FD401B022846
:10213800F5D9032017E1236813F0040F7ED0294B4B
:102148001B6C13F0805F1ED1264B1A6C42F0805234
:102158001A641B6C03F080530193019B0125224BE9
:102168001B6813F4807F10D0A368012B21D0002BAB
:102178003CD11C4B1A6F22F001021A671A6F22F029
:1021880004021A671AE00025E9E7174A136843F4BE
:1021980080731360FEF700FD0646134B1B6813F4AB
:1021A800807FE1D1FEF7F8FC801B6428F5D9032075
:1021B800D9E00C4A136F43F001031367A3685BB3BC
:1021C800FEF7EAFC0646074B1B6F13F0020F34D1EB
:1021D800FEF7E2FC801B41F288339842F3D90320D2
:1021E800C1E000BF0038024000700040052B09D054
:1021F800604B1A6F22F001021A671A6F22F004026C
:102208001A67DBE75B4B1A6F42F004021A671A6F12
:1022180042F001021A67D1E7FEF7BEFC0646554BAD
:102228001B6F13F0020F08D0FEF7B6FC801B41F2BB
:1022380088339842F3D9032095E0FDB9A369002BB0
:1022480000F090804B4A926802F00C02082A58D09D
:10225800022B19D0474A136823F080731360FEF7E6
:102268009BFC0446434B1B6813F0007F47D0FEF7E6
:1022780093FC001B0228F5D9032074E03D4A136C37
:1022880023F080531364D9E73A4A136823F0807324
:102298001360FEF781FC0546364B1B6813F0007F80
:1022A80006D0FEF779FC401B0228F5D903205AE036
:1022B800E369226A1343626A43EA8213A26A5208F4
:1022C800013A43EA0243E26A43EA026343F00053F5
:1022D800284A5360136843F080731360FEF75CFC70
:1022E8000446244B1B6813F0007F06D1FEF754FC0C
:1022F800001B0228F5D9032035E0002033E0002038
:1023080031E01C4A5268012B2FD002F48003E169A6
:102318008B4201D0012026E002F03F03216A8B4264
:1023280001D001201FE0616A47F6C0731340B3EB88
:10233800811F01D0012016E002F44031A36A5B0836
:10234800013BB1EB034F01D001200CE002F07062B9
:10235800E36AB2EB036F0AD0012004E00120704762
:10236800012000E0002002B070BD0120FBE7002042
:10237800F9E700BF00380240264B9B6803F00C03C6
:10238800042B44D0082B01D0234870472DE9F04B8B
:10239800204B5A6802F03F025B6813F4800F13D099
:1023A8001C4B5968C1F3881100231C48A1FB00018C
:1023B800FDF726FF174B5B68C3F3014301335B004E
:1023C800B0FBF3F0BDE8F08B124B5B68C3F38813E6
:1023D8001E4600275C010025E41A65EB0705A901E4
:1023E80041EA9461A001001B61EB0501CB0043EABF
:1023F8005073C400A01943EB07018B0243EA9053C2
:102408008402204619460023FDF7FAFED2E7034866
:10241800704700BF003802400024F40040787D0176
:10242800002800F0A38070B50446524B1B6803F0E7
:102438000F038B420CD24F4A136823F00F030B4350
:102448001360136803F00F038B4201D0012070BDA5
:10245800236813F0020F17D013F0040F04D0464A74
:10246800936843F4E0539360236813F0080F04D093
:10247800414A936843F4604393603F4A936823F06A
:10248800F003A068034393600D46236813F0010F1F
:1024980031D06368012B20D0022B25D0364A126830
:1024A80012F0020F64D034498A6822F00302134301
:1024B8008B60FEF771FB06462F4B9B6803F00C03FD
:1024C8006268B3EB820F16D0FEF766FB801B41F201
:1024D80088339842F0D90320B9E7274A126812F4E2
:1024E800003FE0D10120B2E7234A126812F0007FD2
:1024F800D9D10120ABE71F4B1B6803F00F03AB4298
:102508000CD91C4A136823F00F032B43136013687C
:1025180003F00F03AB4201D0012098E7236813F0C2
:10252800040F06D0144A936823F4E053E1680B4380
:102538009360236813F0080F07D00F4A936823F4B9
:102548006043216943EAC1039360FFF715FF0A4B13
:102558009B68C3F30313094AD35CD840084B18603F
:10256800084B1868FEF7DAFA002070E70120704778
:1025780001206CE7003C024000380240C82E0108E8
:102588006402002060020020014B1868704700BFF9
:102598006402002008B5FFF7F7FF044B9B68C3F3FC
:1025A8008223034AD35CD84008BD00BF00380240EC
:1025B800D82E010808B5FFF7E7FF044B9B68C3F363
:1025C8004233034AD35CD84008BD00BF00380240FC
:1025D800D82E010870470000002857D010B50446CF
:1025E80090F84130002B41D0242384F841302268F0
:1025F800136823F0010313606368226823F0706393
:1026080013612268936823F400439360E368012B05
:1026180031D0A368226843F404439360E368022B33
:102628002FD0226851681A4B0B4353602268D36835
:1026380023F40043D360236962691343A1692268C4
:1026480043EA0123D360E369216A22680B431360DC
:102658002268136843F0010313600020606420239C
:1026680084F84130206384F8420010BD80F840307F
:10267800FFF7B0FFB8E7A368226843F4004393600C
:10268800CCE723684FF400625A60CAE7012070471C
:1026980000800002024A136843F480731360704795
:1026A800007000400268D3B2103B0949A1FB031334
:1026B8001B090849C95CC165032B04D8064B1340A4
:1026C8008365806D7047044B134004338365F8E7D6
:1026D800ABAAAAAAC02E010800FCFFFF836A826980
:1026E80092B9012B0AD01BB1022B01D000207047F0
:1026F800C36A13F0807F2CD100207047C36AB3F1FE
:10270800C07F28D000207047B2F5005F05D0022BAB
:1027180029D9032B15D000207047032B03D8DFE8F5
:1027280003F01C041C0A00207047C36A13F0807F62
:1027380015D100207047C36AB3F1C07F11D00020C3
:102748007047C36A13F0807F01D0012070470020D2
:102758007047012070470120704701207047012011
:1027680070470120704701207047000070B504468B
:10277800FEF712FA002C5BD00546002384F83430AB
:10278800022384F835302268136823F001031360AC
:1027980023681A6812F0010F0AD0FEF7FDF9401BF2
:1027A8000528F5D920236365032084F8350070BD1A
:1027B8001A68204810406168A2680A43E1680A4321
:1027C80021690A4361690A43A1690A43E1690A4325
:1027D800216A0A430243616A04291ED01A602668E6
:1027E800756925F00705636A1D43042B07D1A36AA1
:1027F8001D43E36A1BB12046FFF770FF90B975616E
:102808002046FFF74FFFE26D3F239340836000208F
:102818006065012384F83530C9E7E16A206B01431C
:102828000A43DBE740236365012084F83500BEE7EF
:102838000120BCE73F8010F000282CD038B50446B2
:1028480090F83530DBB2022B27D00268136823F0EA
:1028580001031360036800251D6003685D60036859
:102868009D600368DD6003681D61036821225A6169
:10287800FFF718FFE26D3F2393408360E56325640B
:102888006564A564E5642565656584F8355084F854
:102898003450284638BD012070470220FAE700006E
:1028A8000649CB6823F4E0631B041B0C000200F408
:1028B800E0600343024A1A43CA60704700ED00E033
:1028C8000000FA0530B4154BDB68C3F30223C3F1EB
:1028D8000704042C28BF04241D1D062D14D9033B0E
:1028E8004FF0FF3505FA04F421EA0401994005FA8E
:1028F80003F322EA03031943002807DB0901C9B2DD
:10290800074B195430BC70470023E9E700F00F006B
:102918000901C9B2034B1954F4E700BF00ED00E008
:1029280000E400E014ED00E0002807DB00F01F02DF
:10293800400901239340024A42F82030704700BF03
:1029480000E100E00138B0F1807F0AD2064B586000
:10295800064AF02182F823100020986007221A60A6
:1029680070470120704700BF10E000E000ED00E074
:1029780008B5FDF7A5FF08BD30B40B68012B18D0CA
:102988000368194A1A404B688C682343CC68234370
:102998000C6923434C6923438C692343CC69234343
:1029A8000C6A2343496A0B4313430360002030BC7D
:1029B8007047046824F4F844CB690A6A1A434B6ADE
:1029C8001A4322434368084C1C404B688D682B43CC
:1029D800CD682B430D692B434D692B4389690B4304
:1029E800234302604360E1E70080FFFF30B4012A1F
:1029F80021D0826802F070420B68013B4C68013CB0
:102A080043EA04138C68013C43EA0423CC68013C84
:102A180043EA04330C69013C43EA04434C69013C32
:102A280043EA04538969013943EA01631343836024
:102A3800002030BC70478368114C1C40CA68551E82
:102A48004B695A1E120542EA05322243C46804F053
:102A580070440B68013B4D68013D43EA05138D68DE
:102A6800013D43EA05230D69013D43EA05438969B0
:102A7800013943EA016323438260C360D8E700BF9A
:102A8800FF0F0FFF10B483B00446002001900B68BD
:102A98004A6813438A68013A43EA4213CA6843EA18
:102AA80042230193019B236103B05DF8044B7047F7
:102AB800436943EA410141610020704700230F2B1D
:102AC80000F2E180F0B583B039E0092200E000228D
:102AD800B2403A4302346C4E46F824206B4A1468DC
:102AE800EA4302EA04064F6817F4803F01D045EA3A
:102AF8000406664C2660646802EA04064F6817F408
:102B0800003F01D045EA0406604C6660A46802EA0A
:102B180004064F6817F4801F01D045EA04065B4C91
:102B2800A660E46822404E6816F4001F01D045EA0A
:102B38000402564CE26001330F2B00F2A2800122FE
:102B48009A400C6804EA0205AA42F4D14C68661E51
:102B5800112C18BF012E01D9122C12D186685F00E2
:102B68000324BC4026EA0406CC68BC403443846095
:102B7800466826EA02064C68C4F300129A403243BB
:102B88004260C2685F000326BE40F64332408C684C
:102B9800BC401443C4604A68122A18BF022A13D1E1
:102BA800DC08083450F824E003F007024FEA820CEE
:102BB8000F2202FA0CF22EEA020E0A6902FA0CF24D
:102BC80042EA0E0240F82420026816404A6802F0E1
:102BD8000302BA40324302604A6812F0805FAAD00A
:102BE8002B4A546C44F480445464526C02F480427E
:102BF8000192019A9C08A61C234A52F8267003F0F9
:102C0800030296000F22B24027EA0207214A9042A7
:102C18003FF45DAF02F58062904222D002F58062F7
:102C2800904220D002F5806290421ED002F5806268
:102C380090421CD002F5806290421AD002F5806260
:102C4800904218D002F58062904216D002F5806258
:102C5800904214D002F5806290423FF436AF0A22C7
:102C680036E7012234E7022232E7032230E7042262
:102C78002EE705222CE706222AE7072228E7082262
:102C880026E703B0F0BD704700380140003C014022
:102C9800003802400000024012B9090481617047FF
:102CA8008161704743690B4201D181617047090412
:102CB8008161704738B310B5044690F83930EBB1EC
:102CC800022384F839302268136823F4403361689A
:102CD8000B4313602268536B23F00703A1680B436F
:102CE80053632268116C094B0B40E1680B43136472
:102CF8000020E063012384F8393010BD80F83830B3
:102D080000F0D6FCDCE70120704700BF00C0FFFFE1
:102D18007047704770B5044603685D681E6815F013
:102D2800010F16D016F4807F13D01A6822F480722F
:102D38001A60C36B43F00103C363036801229A60FE
:102D4800042380F83930002380F83830436903B110
:102D5800984715F0200F18D016F4005F15D0226898
:102D6800136823F400531360236820229A60E36BEE
:102D780043F00203E363042384F83930002384F822
:102D8800383063690BB12046984715F0080F18D002
:102D980016F4006F15D02268136823F400631360DB
:102DA800236808229A60E36B43F00403E363042377
:102DB80084F83930002384F8383063690BB1204631
:102DC800984715F0040F02D016F4806F20D115F043
:102DD800020F16D016F4007F13D02268136823F46C
:102DE80000731360236802229A60E36BE363012394
:102DF80084F83930002384F8383023690BB1204631
:102E0800984715F0100F02D016F4805F0CD170BDF2
:102E18002268136823F480631360236804229A608D
:102E28002046FFF775FFD2E72268136823F4805322
:102E38001360236810229A60E36BE363012384F82C
:102E48003930002384F838302046FFF762FFDEE788
:102E580090F83830012B59D030B4012380F838303D
:102E6800022380F8393000EB0113DA698B1C1B014F
:102E7800C35842EA0343093A012A1ED98A1C00EBC7
:102E88000212526843EA026341BB0468656A204A39
:102E98002A4013436362026800EB01139C69946142
:102EA800DB69093B012B10D9012380F83930002355
:102EB80080F83830184630BC70478A1C00EB021284
:102EC800526802F07F421343DEE7023100EB011142
:102ED8004B68026823F07F439362E5E70468E5697D
:102EE8000B4A2A401343E361026800EB01139C6913
:102EF8001461DB69093B012BD6D8023100EB0111C3
:102F08004B68026823F07F431362CDE702207047C5
:102F1800F0FFFC0090F84130DBB2202B24D190F870
:102F28004030012B22D0012380F84030242380F840
:102F380041300268136823F00103136002681368C4
:102F480023F4805313600268136819431160026800
:102F5800136843F001031360202380F841300023F5
:102F680080F84030184670470220704702207047AA
:102F780090F84130DBB2202B22D190F84030012B61
:102F880020D0012380F84030242380F841300268A3
:102F9800136823F0010313600268136823F4706355
:102FA80043EA012111600268136843F001031360CA
:102FB800202380F84130002380F8403018467047BD
:102FC800022070470220704730B41F24651E3CB1B0
:102FD80005F01F0321FA03F32C4613F0010FF5D077
:102FE800182A23D8DFE802F00F22222222222222E6
:102FF8001E222222222222221A22222222222222B5
:103008000D00062D14D80368596101688B6823F0F8
:1030180018031A438A60002030BC7047072DF2D984
:103028000120F9E70F2DEED90120F5E70120F3E79C
:103038000120F1E7054BD3F8882042F47002C3F869
:1030480088204FF000629A60704700BF00ED00E0F2
:1030580000B1704730B587B00E4B1A6B42F48072DE
:103068001A631B6B03F480730093009B0225019580
:1030780001230293039303230493074C01A92046D9
:10308800FFF71CFD002229462046FFF705FE07B082
:1030980030BD00BF00380240002002402DE9F04357
:1030A80083B081464FF00008CDF80480204C0126FB
:1030B800266010276760A660C4F80C801D4D4FF687
:1030C800FF7221462846FEF70BFF3046FDF76AFDE2
:1030D800022323606760A660C4F80C804FF6FF7275
:1030E80021462846FEF7FCFE032323606760082379
:1030F800A360C4F80C804FF6FF7221462846FEF7FD
:10310800EFFE4FF408730193042323606760A66001
:10311800019BE3604FF6FF7221462846FEF7E0FE6A
:1031280049462846FEF7F9FE03B0BDE8F08300BF24
:10313800E8040020D008002070B58EB00646544B35
:103148009A6B42F001029A639A6B02F001020192B3
:10315800019A1A6B42F480021A631A6B02F4800215
:103168000292029A1A6B42F004021A631A6B02F076
:1031780004020392039A1A6B42F008021A631A6B4C
:1031880002F008020492049A1A6B42F010021A63C1
:103198001A6B02F010020592059A1A6B42F020028F
:1031A8001A631A6B02F020020692069A1A6B42F012
:1031B80040021A631A6B02F040020792079A1A6BD0
:1031C80042F080021A631B6B03F080030893089B8C
:1031D80002230A9301220B920C930C230D930EAC3D
:1031E800082344F8143D21462A48FFF767FC4CF2AF
:1031F8000373099321462848FFF760FC4FF6837351
:10320800099321462548FFF759FC4FF63F030993D8
:1032180021462348FFF752FC48F23313099321460D
:103228002048FFF74BFC2823099321461E48FFF747
:1032380045FC1E4C002565608023A3604FF4007395
:10324800E3604FF4806323614FF4805363614FF46C
:103258008043A361E5614FF4003323626562032371
:10326800A362E5622563124B23603463A66320469C
:10327800FFF7E2FA2046FFF779FA2A460F213820AD
:10328800FFF720FB3820FFF74FFB0EB070BD00BFE3
:103298000038024000080240000C024000100240C2
:1032A8000014024000180240001C024014050020CF
:1032B8001064024038B51B4C1B4B23601B4D022386
:1032C8002B60072169600422AA60E9602B616B61A9
:1032D800AB6100216160A160E2601023236140239B
:1032E80063614FF48073A361E1614FF4006323626B
:1032F8004FF480536362A1622046FFF71DFF294601
:103308002046FEF7CEFD48B9094B00221A7040F25C
:103318000360FFF7C3FE064B187838BD044B012243
:103328001A70F4E7D0080020400100A0F80400203B
:103338006802002008B54FF41631024801F0C8FAB7
:1033480008BD00BF0409002030B4044600B10324BE
:103358000D484FF400750560C160C263039A0261AD
:10336800049A0264C461BDF8082042EA0343436436
:10337800036843F001030360034B1B6813F0010F5C
:10338800FAD130BC704700BF00B0024030B40446E8
:1033980000B103240B480C4D0560039D8563C16390
:1033A8000299016444639BB243EA0242426403689F
:1033B80043F001030360034B1B6813F0010FFAD1BC
:1033C80030BC704700B002400002030010B4094945
:1033D800C3001C1AA2000A44D468126902FB04F252
:1033E8001B1A98000144486900FB02F05DF8044B81
:1033F800704700BF380600202DE9F04184B006462A
:1034080088461746FFF7E2FF0C4CF500AA1B93000D
:10341800E218E158D36812690092002202920192E0
:1034280000FB071200FB08113046FFF78DFFAD1BAC
:10343800AB001C44A76004B0BDE8F081380600204A
:10344800F0B585B00D4DC400241AA600AF19AE59C9
:10345800FC6802FB04117F690A9A02FB04320B9B89
:10346800E41A029401940C9B00930B9B02FB0762E5
:1034780007FB0161FFF768FF05B0F0BD38060020C3
:103488002DE9F04385B005460C46914698460C9EBA
:103498000E9FFFF79BFF174BE900A1EB050C4FEAC6
:1034A8008C0203EB020E9A58DEF80CC009FB0C44A0
:1034B800DEF81490491B4FEA810E73449B6800FBA9
:1034C80003F009FB040422443B46002F0FDBC6EB44
:1034D800A301ACEB0603029301910D9B00933346C5
:1034E80041462846FFF730FF05B0BDE8F083FB1CD6
:1034F800EDE700BF380600202DE9F04182B006460E
:103508000C4690461D4601F057FC01282ED02D1B75
:103518000135089BA3EB080701373046FFF756FF34
:103528001B4B4FEAC60CACEB06018A0003EB020EFC
:103538009958DEF80C2008FB0244DEF81480ACEB46
:10354800060C4FEA8C0E73449B6800FB03F008FBE3
:103558000404521B099B019300923B462A462144CE
:103568003046FFF713FF02B0BDE8F08100221921B1
:10357800304603F0C6FA089B2A464146204602F028
:103588008FFD044A1921304603F0BBFAEBE700BF70
:10359800380600200135000838B5244C2046FEF7CF
:1035A80031FA282363610923A3613523E3610B23DF
:1035B800236240F21B13A36240F21523636240F2B8
:1035C8001D13236340F23523E362002584F8345049
:1035D80084F8355084F836506560A560E56025614B
:1035E800134B23602046FEF793F929462046FEF741
:1035F800F5FB2046FEF76CFB0E484FF44033436062
:1036080002238360C5600C4B0360FFF753FB00B1D6
:10361800FEE701224FF480510848FFF73DFB0122E5
:1036280008210748FFF738FB38BD00BF30070020E6
:1036380000680140F805002000B002400020024068
:103648000028024000B1704710B58EB00446002330
:1036580001934FF4F071029103934FF4887204922E
:1036680005934FF040400A90FF20069007938DF88D
:1036780034308DF835308DF836304FF4C063089308
:10368800072309930B910C92224601A90748FEF7DC
:1036980034FA204603F0F8F8082801DD0EB010BD12
:1036A80021460248FEF7F5FAF8E700BF3007002088
:1036B80082B0064B1A6B42F400021A631B6B03F4C8
:1036C80000030193019B02B0704700BF003802401D
:1036D8002DE9F0438DB04A4C636C43F0806363641A
:1036E800636C03F080630193019B464808260660DB
:1036F800C02343610523C3614FF48033C362FDF7E0
:1037080025FD236B43F010032363236B03F01003A1
:103718000293029B236B43F040032363236B03F064
:1037280040030393039B236B43F480732363236B4E
:1037380003F480730493049B236B43F400732363A3
:10374800236B03F400730593059B236B43F4806399
:103758002363236B03F480630693069B102307936C
:1037680002240894002709970A940E250B9507A9A7
:103778002548FFF7A3F94FF48058CDF81C8008942A
:1037880009230B9307A92148FFF798F94FF46643DB
:10379800079308940B95DFF8809007A94846FFF730
:1037A8008DF94EF6FF73079308940B9507A91848EF
:1037B800FFF784F9F723079308940B95154C07A98D
:1037C8002046FFF77BF9CDF81C804FF00108CDF8B3
:1037D800208007A94846FFF771F90796CDF82080A1
:1037E80007A92046FFF76AF93A4629465820FFF705
:1037F80069F85820FFF798F80DB0BDE8F08300BFCE
:1038080000380240740500200010024000180240F1
:10381800002402400028024000200240044B5A6A5B
:1038280042F080625A625A6A22F080625A62704795
:103838000038024070B50646002424B10021304605
:10384800FEF7CCFA70BDC4EBC4039A00124B1344C4
:103858005B68002B01DA0134EFE70F498D188958AE
:10386800EB682A6902FB03F36A6802FB03F26B69DF
:1038780003FB0212336803EBC413C3F8AC203268AD
:10388800536A43F0010353626968204602F084F8E2
:103898004FF0FF336B60DEE73806002038B5FFF7DE
:1038A8007BFE0024ECB100231A462D492D4801F077
:1038B80027FE002002F0F4FFC8B14FF4F0724FF475
:1038C8008871002003F04DF94FF4F0724FF48871BD
:1038D800002003F074F9244B244A1A600024ACB188
:1038E80038BD0321204602F06BF80134DAE74FF4C3
:1038F80088724FF4F071002003F033F94FF48872A6
:103908004FF4F071002003F05AF9E4E71649E30098
:103918001B1B9A008D18124BAB614FF0FF336B6085
:103928008958204603F035F9204602F0ADFFC01053
:1039380068610F4A2121204603F0E3F80D4A23214C
:10394800204603F0DEF80C4A1921204603F0D9F886
:103958000A4A2821204603F0D4F80134BFE700BF03
:10396800381401088414010838060020000020C01B
:10397800013400084934000801350008893400087A
:1039880070B582B00446154601390D2900F2A480AD
:10399800DFE801F007A20D2931396961417EA2856E
:1039A8009220FFF74FFE0025284602B070BD4C4913
:1039B800C3001B1A9A0088188E586968C36803FBED
:1039C80001F34169224601FB03614648FEF7E4F929
:1039D8000025E9E71168C0EBC004A200404B13447E
:1039E80059600025E0E70346012229463D48FEF7D5
:1039F800D6F80025D8E73B4B1A68936943F00103D2
:103A080093610025D0E7374B1A68936923F00103C7
:103A180093610025C8E71368012B11D0314B1B684F
:103A280003EBC014D4F8843023F00103C4F88430C5
:103A38002C4B1A68536A43F0010353620025B3E71D
:103A4800284B1B6803EBC014D4F8843043F00103FF
:103A5800C4F88430ECE70346526829682148FEF729
:103A680051F90025A0E76A4601A901F0E5FF286899
:103A7800E200121B91001A4B0B44D8606A681A6165
:103A88002346009A01991748FEF73CF900258BE771
:103A9800024629681348FEF75EF9002584E7156891
:103AA8002DB101460F48FEF7B8F800257CE701461E
:103AB8000C48FEF7D0F877E71368C3F3074103F41F
:103AC8007F4211431B0403F47F0302461943054850
:103AD800FEF741F8002567E74FF0FF3564E700BFC0
:103AE8003806002030070020014B1868704700BFD7
:103AF80004610220044B1B681844034B1B68C31A5B
:103B0800002BFADC704700BF0461022070470000F8
:103B180008B503681D2B04D0262B07D005F0B0FD8F
:103B280003E00449406807F0E5F808BD806805F03F
:103B3800E3FEFAE7342F0108F0B587B005F090FEF0
:103B480000240194009403461F4A03211F4806F0ED
:103B5800FFFE1F4D28601F4F05973223049343F241
:103B68003D230393082302930226019600906423C1
:103B7800C8227821184609F0B7F9174B186004973E
:103B880043F23E230393029401962B680093142377
:103B98004FF49672FC2118460AF082F80F4B186011
:103BA800049743F23F230393029401962B680093F2
:103BB80014234FF49672FC21C8200AF071F8084BC0
:103BC800186007B0F0BD00BF193B0008E02E0108DF
:103BD8000C610220782E0108146102201061022075
:103BE80008610220DFF834D0002103E00C4B5B5859
:103BF800435004310B480C4B42189A42F6D30B4AF7
:103C080002E0002342F8043B094B9A42F9D3FFF73C
:103C180011FA00F011F8FCF7C3FE70470000052008
:103C2800E02F010800000020D0020020D002002070
:103C3800E8620220FEE7000070B50D4E0D4CA41B93
:103C4800A4100025A54209D10B4E0C4C0DF0E4FB45
:103C5800A41BA4100025A54205D170BD56F8253037
:103C680098470135EEE756F8253098470135F2E7D1
:103C7800D82F0108D82F0108D82F0108DC2F0108F8
:103C880002440346934200D1704703F8011BF9E749
:103C980070B50E46054618B183690BB900F00CFAE9
:103CA800AB69AC6813B9284600F006FA234B9C426E
:103CB80017D16C68A3891B071DD52369DBB1013EA9
:103CC800A36816F8011F013BA360E9B9002B2EDA9F
:103CD80022460A21284600F03FF8013011D00A2078
:103CE80011E0174B9C4201D1AC68E3E7154B9C42AD
:103CF80008BFEC68DEE72146284600F07FF8002878
:103D0800DDD04FF0FF3070BD002B04DAA2699A4273
:103D180006DC0A2904D023685A1C22601970CFE7F0
:103D28002246284600F018F80130C9D1E9E723688F
:103D38000A205A1C22601870E5E700BF8C2F010882
:103D4800AC2F01086C2F0108024B01461868FFF7D9
:103D58009FBF00BF6C020020F8B50E46144605460A
:103D680018B183690BB900F0A7F9214B9C422AD1FD
:103D78006C68A369A360A3891A072ED5236963B366
:103D880023692068C01A6369F6B28342374604DCA7
:103D98002146284600F026F928BBA368013BA3600A
:103DA80023685A1C22601E7063690130834204D064
:103DB800A389DB0719D50A2E17D12146284600F01A
:103DC80011F990B10FE00B4B9C4201D1AC68D0E7E0
:103DD800094B9C4208BFEC68CBE72146284600F017
:103DE8000DF80028CCD04FF0FF373846F8BD00BF9B
:103DF8008C2F0108AC2F01086C2F0108324B70B5CD
:103E08001D6806460C4625B1AB6913B9284600F073
:103E180053F92E4B9C420FD16C68B4F90C309AB20E
:103E280015072CD4D00611D40922326043F0400380
:103E3800A3814FF0FF303EE0254B9C4201D1AC6896
:103E4800EBE7244B9C4208BFEC68E6E7510712D524
:103E5800616B41B104F14403994202D0304600F04D
:103E680019FA00236363A38923F02403A3810023A1
:103E7800636023692360A38943F00803A38123694E
:103E88004BB9A38903F42073B3F5007F03D021460F
:103E9800304600F0BFF9A28912F001030CD00023CC
:103EA800A36063695B42A361236953B9B4F90C3019
:103EB80013F08000BAD170BD920758BF6369A36040
:103EC800F2E70020F7E700BF6C0200208C2F010802
:103ED800AC2F01086C2F01088A892DE9F0410546AD
:103EE80010070C4658D44B68002B05DC0B6C002BD4
:103EF80002DC0020BDE8F081E66A002EF9D000233C
:103F080012F480522F68216A2B6032D0606DA38929
:103F18005A0705D56368C01A636B0BB1236CC01AC6
:103F280000230246E66A216A2846B047431CA38953
:103F380006D129681D2948D8294ACA40D60744D538
:103F480000226260D9042269226004D5421C01D192
:103F58002B6803B96065616B2F600029C9D004F133
:103F68004403994202D0284600F094F90020606387
:103F7800C0E701232846B047411CC8D12B68002B55
:103F8800C5D01D2B01D0162B01D12F60B1E7A38915
:103F980043F04003A381ADE70F69002FA9D0930731
:103FA8000E6808BF4B690F6018BF0023A6EB07080F
:103FB8008B60B8F1000F9CDD43463A46216AA66A39
:103FC8002846B047002806DCA38943F04003A381B4
:103FD8004FF0FF308EE70744A8EB0008E9E700BF81
:103FE8000100402038B50B6905460C46DBB118B115
:103FF80083690BB900F060F80C4B9C4209D16C68DE
:10400800B4F90C307BB121462846BDE83840FFF7AB
:1040180063BF074B9C4201D1AC68F1E7054B9C425A
:1040280008BFEC68ECE7002038BD00BF8C2F010802
:10403800AC2F01086C2F0108002310B50446C0E915
:104048000033836081814366C281C0E904338361A0
:10405800194608225C30FFF713FE054B6362054BD7
:10406800A362054BE362054B2462236310BD00BFC6
:104078000D4400082F440008674400088B440008DA
:10408800014900F085B800BFED3F000870B54A1E31
:10409800682555430E4605F1740100F049F90446B8
:1040A80040B10021C0E900160C30A06005F168029B
:1040B800FFF7E6FD204670BD836910B5044633BBA3
:1040C800C0E912330365124B124A1B688262984298
:1040D80004BF0123836100F01FF86060204600F0F0
:1040E8001BF8A060204600F017F80022E0600421C9
:1040F8006068FFF7A1FF01220921A068FFF79CFF74
:1041080002221221E068FFF797FF0123A36110BD87
:10411800682F010889400008F8B51B4B1E68B36971
:10412800074613B93046FFF7C7FF4836D6E90134CA
:10413800013B03D5336833B13668F7E7B4F90C505F
:104148006DB16834F4E704213846FFF79FFF30600B
:104158000028F1D10C233B6004462046F8BD0B4BE8
:104168006566C4E90055A560C4E90335C4E9055589
:104178000822294604F15C00FFF782FDC4E90D55C9
:10418800C4E91255E9E700BF682F01080100FFFFE5
:104198002DE9F8438046894600F14804002614B901
:1041A8003046BDE8F883D4E90175013F01D524689C
:1041B800F5E7AB89012B07D9B5F90E30013303D0E8
:1041C80029464046C84706436835EEE770B50E46AF
:1041D800B1F90E10002996B014461D4607DA0023DF
:1041E8002B60B3891A0610D44FF480630EE06A4638
:1041F80000F06EF90028F2DB019A02F47042A2F591
:1042080000535A425A412A60EEE7402300202360B7
:1042180016B070BD8B8973B59D0706460C4607D549
:1042280004F14703236023610123636102B070BD79
:1042380001AB6A46FFF7CAFF00990546304600F011
:1042480077F848B9B4F90C309A05EFD423F0030392
:1042580043F00203A381E3E70D4BB362A389206017
:1042680043F08003A381009B6361019B20615BB1E4
:10427800B4F90E10304600F03DF928B1A38923F0B7
:10428800030343F00103A381A3891D43A581CDE75F
:104298008940000838B50546002945D051F8043C46
:1042A8000C1F002BB8BFE41800F046F91F4A13682A
:1042B800104633B9636014602846BDE8384000F002
:1042C8003CB9A3420CD921686218934204BF1A680A
:1042D8005B68636004BF521822600460ECE7134611
:1042E8005A680AB1A242FAD919685818A0420BD1E3
:1042F80020680144581882421960DDD1106852685C
:104308005A6001441960D7E702D90C232B60D3E720
:10431800206821188A4204BF11685268626004BF8D
:10432800091821605C60C7E738BD00BF540600204B
:1043380070B5CD1C25F0030508350C2D38BF0C25AC
:10434800002D064601DBA94203D90C233360002067
:1043580070BD00F0F1F8214A1468214691B9204C4B
:1043680023681BB9304600F03DF8206029463046E6
:1043780000F038F8431C24D10C233360304600F099
:10438800DCF8E4E70B685B1B18D40B2B0FD90B6028
:10439800CD50CC18304600F0D0F804F10B00231DA6
:1043A80020F00700C31AD3D05A42E250D0E78C421B
:1043B8004B6816BF636013600C46EBE70C46496810
:1043C800CCE7C41C24F00304A04205D0211A3046CF
:1043D80000F008F80130CFD02560DBE75406002054
:1043E8005806002038B5064C0023054608462360C9
:1043F80000F0DEF8431C02D1236803B12B6038BDFE
:104408001861022010B50C46B1F90E1000F096F8AC
:104418000028ABBF636DA3891B1823F48053ACBF7E
:104428006365A38110BD2DE9F0411F468B89DB052B
:1044380005460C46164605D502230022B1F90E1092
:1044480000F068F8A389B4F90E1023F48053A3810F
:1044580032463B462846BDE8F04100F017B810B593
:104468000C46B1F90E1000F055F8431CA38915BF8E
:10447800606523F4805343F48053A38118BFA3815C
:1044880010BDB1F90E1000F013B8000038B5074C94
:10449800054608461146002222601A46FCF7E6F94E
:1044A800431C02D1236803B12B6038BD1861022078
:1044B80038B5064C002305460846236000F050F83E
:1044C800431C02D1236803B12B6038BD1861022058
:1044D80038B5074C0023054608461146236000F00E
:1044E80047F8431C02D1236803B12B6038BD00BFD5
:1044F8001861022038B5064C00230546084623609B
:1045080000F03EF8431C02D1236803B12B6038BD8C
:104518001861022038B5074C0546084611460022A6
:1045280022601A4600F034F8431C02D1236803B114
:104538002B6038BD186102207047704738B5074CAA
:10454800054608461146002222601A4600F028F85F
:10455800431C02D1236803B12B6038BD18610220C7
:10456800024B58221A604FF0FF3070471861022042
:10457800024B58221A604FF0FF3070471861022032
:10458800024B58221A600020704700BF18610220B1
:10459800024B58221A604FF0FF3070471861022012
:1045A800024B58221A604FF0FF3070471861022002
:1045B800044A05491368002B08BF0B4618441060CD
:1045C800184670475C060020E8620220C343C0F327
:1045D800074203F07F431A43030400F47F4003F4C7
:1045E8007F031343184370474FF0FF3070470000B4
:1045F800F0B5DFF850E006460D461446DEF800E058
:104608001F46BEF1000F03D0F446BDE8F0406047F6
:1046180056F8043B013C6FEA0302C3F3074102F07A
:104628007F4241EA02014FEA034203F47F4302F466
:104638007F0242EA010243EA02032B603D44E7D1CC
:10464800F0BD00BFEC020020F0B5DFF850E00546F1
:104658000E461446DEF804E01F46BEF1000F03D0F4
:10466800F446BDE8F04060472B68013C3D446FEAE2
:104678000302C3F3074102F07F4241EA02014FEA15
:10468800034203F47F4302F47F0242EA010243EA51
:10469800020346F8043BE7D1F0BD00BFEC0200205E
:1046A800C343C0F3074203F07F431A43030400F4F3
:1046B8007F4003F47F03134318437047074B5A683E
:1046C800013210B55A605A6B5C6A02EBC0014C604B
:1046D800002102F83010586210BD00BF1C61022092
:1046E80010B50F2344680D4901EBC302126C9442C4
:1046F8000A4A03D213F1FF33F6D210BD0F2B0CD8A0
:104708001168091B11608168C06801B1486008B16F
:10471800016010BD02EBC303596410BD1C61022087
:10472800F8B5274E054608180C46F368B26B013BEE
:104738001344834205D34B591BB943681D44FFF703
:10474800CFFFB36B9C420AD954F8047CE71B3B6843
:104758002BB97B683C4638461D44FFF7C1FF0F2341
:1047680006EBC302126C954203D213F1FF33F7D262
:1047780023E00F2B21D80833601906EBC3025168D8
:1047880000222461A16084E8240040F8045C04F15C
:10479800080001B1486006EBC303A160E2605860FD
:1047A80033680749EA1896F8293032602BB9CB6884
:1047B8009B1A8A68934288BF8B602846F8BD00BF61
:1047C8001C6102202DE9F74F234F8346FE68B84647
:1047D800BC6B013E264494E828009BBB61198E42BD
:1047E80030D954F805A0BAF1000F2BD07B6B13F821
:1047F8003A30012B26D1D8F82C302046D1F8049035
:1048080000930191FFF76CFF0199D8F834200868EC
:1048180002EBC002204654604A460CF0DCFD009BC7
:1048280004EB090128469A4502BFD8F834305B1BCF
:10483800C8F83430FFF774FFBBF1000F01D05845BA
:1048480005D24D462C44A642C5D8012000E00020E0
:1048580003B0BDE8F08F00BF1C61022028B1034BF4
:10486800DA6B026002B15060D86370471C610220A5
:10487800034B5B6B03EBC00040680830704700BF18
:104888001C610220054BDA690132DA615A6B12F8B1
:104898003030013302F83030FFF7EABF1C610220E4
:1048A80003680A4930B553F8085C4C6B14F8353086
:1048B800012B03D9CA690AB1013ACA61013B04F85C
:1048C800353000230360184630BD00BF1C6102204C
:1048D800024B21F00301186059607047F402002070
:1048E80030B1044B5B6B03EBC000436858680C386D
:1048F800704700BF1C61022010B5044660B1074B29
:104908005B6B03EBC00359684868FFF709FF204653
:10491800BDE81040FFF7D2BE10BD00BF1C610220E9
:104928002DE9F041224CE36A3BB9224B9D685B6854
:104938000835B3FBF5F5023503E023691D1D05EBCA
:10494800D305E80000F0F2F8804660B3616B226995
:1049580001EBC003E76AD2005E68174B08361B6894
:10496800304698472269691E66631346C4F82C804E
:104978008B4205D2013306EBC30040F8043CF7E74D
:1049880006EBC3064FF000083846C6F80480636893
:1049980062629B1A25612B4463603FB1FFF7ACFF4D
:1049A8004046BDE8F0810120BDE8F081BDE8F08116
:1049B8001C610220F402002024000020174A70B570
:1049C80092F8283043BB012382F82830144B9968A9
:1049D80011B95968890899605A2110261162002175
:1049E80002EBC10006FA01F501310C4C05641029EF
:1049F800F6D11968012558680223A1632361A0F143
:104A08001403E0600B4463635D6065626560FFF7F3
:104A180087FEFFF785FF256370BD00BF1C6102207C
:104A2800F40200202DE9F0410746264EFFF7C6FFA5
:104A38000337306CF26B27F00307144604378742BC
:104A480038BF074634B154F8043C9F4223682CD041
:104A58001C46F7E7F368B26B02EB030858F8045CEE
:104A6800C5EB08052B6833B12046FFF7ABFE58F8B5
:104A7800045CC5EB08052B680BBB6B689F421EDC0A
:104A880028461C1DFFF72CFEF3686868E41BDB1B37
:104A9800C01B2C44F36073693B44736102D0294600
:104AA800FFF73EFE44F8047C09E00BB161685960E9
:104AB800616801B10B60A24201D12368F36320460B
:104AC800BDE8F0811C61022008B5FFF777FF0023DD
:104AD8000B4A9918D1F8BC0010B1836800200BE08C
:104AE800083B13F1800FF4D108E05A689B689042A4
:104AF80038BF104613B19B68002BF6D10C3808BD9F
:104B08001C61022008B5FFF7DFFF6422B0F5800FB3
:104B1800054B85BF90FBF2F01B6A1B6A58439CBF8C
:104B28005843B0FBF2F008BD1C6102202DE9F843A0
:104B3800394E0446FFF742FF356C3368AC4224BF58
:104B4800033424F00305344C0C35AB423ED3236BBD
:104B580062689A420FD97368776A013B4FEAC708BF
:104B68007360736B03EB080252687262012203F8E8
:104B7800372057B92AE0013B2363FFF7D1FE236BA7
:104B8800013323630028E6D020E00F2306EBC3029D
:104B9800126C95420CD213F1FF33F7D208E09468F7
:104BA8002CB16268954214D9A268002AF7D1013362
:104BB8000F2B03D806EBC302526CF6E72846FFF723
:104BC80001FE0028E1D03846FFF778FD0020BDE857
:104BD800F883D4F804902046336CC5EB09020C33F3
:104BE8009A4238BF4D46FFF77BFD736B61194D45FF
:104BF80098444FF00003C8F8044027606560A3603C
:104C0800246141F8045C03DAC5EB0900FFF788FD6D
:104C18003846BDE8F88300BF1C61022008B1FFF7E1
:104C280085BF704710B504460068FFF765FE00238E
:104C3800236010BD70B506460D460024AC4205DA67
:104C480006EB84000134FFF7EDFFF7E770BD0000C5
:104C580073B50646FFF7E2FF054660B1FFF712FE9F
:104C680002AC064B324644F8040D00211B689847F5
:104C78002046FFF715FE284602B070BD2800002028
:104C880073B5044608460D46FFF7C8FF0646F8B157
:104C9800F4B12046FFF724FE8542A8BF05463046FA
:104CA800FFF7F0FD00902046FFF7ECFD2A4602AD25
:104CB800094B0146019055F8080D1B68984728468E
:104CC800FFF7EEFD01A8FFF7EBFD2046FFF714FE06
:104CD800304602B070BD00BF24000020034B1B68A3
:104CE800DB69187EDB7E5843704700BF1400002044
:104CF8002DE9F041124C2568EC6C04EB0008286D96
:104D0800A6184518C718BD4217DC4446B44212DC41
:104D18002946204601F08EFE01F05AFC80F0FF1073
:104D280080F47F4001F046FC29460246204601F007
:104D3800A1FC0134EAE70135E5E7BDE8F08100BFF1
:104D480014000020C3B2CAB29A1AC0F3072392B261
:104D580010B514B2002CBCBF524214B2C1F30722E2
:104D6800090C9B1AC1EB10419BB289B21AB208B266
:104D7800002ABCBF5B421AB20028B8BF494202FBF6
:104D880002F2B8BF08B204FB042280B200FB002084
:104D980010BD08B104F048BD704708B501F038FDF2
:104DA800BDE8084001F014BC08B501F039FDBDE8C4
:104DB800084001F00DBC0000014B1B68187C7047CF
:104DC80014000020FFF78ABF044BB3F900300360DA
:104DD800034BB3F900300B60704700BF0462022038
:104DE800F461022004483523037034238370C370B0
:104DF80061230371704700BF00000020027EC07E5F
:104E080050437047407E704710B538B309B30AB3B2
:104E1800B2F90040B1F90030A342A8BF2346B2F965
:104E280002400380B1F90230A342A8BF2346B2F979
:104E38000440B2F906204380B1F90430A342B8BF58
:104E480023468380B1F906309342B8BF1346C38026
:104E580010BD11460B6803604B68436010BD68B114
:104E680089B2038892B20B4403808388194443882B
:104E7800134481804380C3881A44C280704700006D
:104E88000C4B10B51C681CB1A047041C18BF0124AA
:104E980004F0A8FB084B00281B6818BF01241BB1AD
:104EA8009847002818BF0124044B1B6803B1984792
:104EB800204610BD006202202862022020620220E3
:104EC80010B50024FFF7DCFF08B10124FAE72046FB
:104ED80010BD0000024B1B6858840020998470475D
:104EE80014000020024B1B681A7E18761046704783
:104EF80014000020B0F90220B1F906309A4214DCFF
:104F0800B1F90220B0F906309A420EDCB0F900205F
:104F1800B1F904309A4208DCB0F90400B1F9003064
:104F28008342CCBF0020012070470020704700005A
:104F380008B5034B742219680CF042FA08BD00BF8B
:104F48001400002008B5034B0146742218680CF0C1
:104F580037FA08BD1400002008B501F099FD01F0EA
:104F680047FEBDE8084004F079BB01F077BB01F0CB
:104F78007BBB01F00DB80000034B1B68DA6900B178
:104F8800D8611046704700BF14000020024B1B6810
:104F98009A7E98761046704714000020094B0A46FE
:104FA80010B41880084B1980084B1B68597C084BB3
:104FB80053F82130D9680C6A0146184623465DF833
:104FC800044B184704620220F461022014000020F8
:104FD8002C620220034B1B68B3F92C2098851046DD
:104FE800704700BF14000020034B1B68B3F92A2048
:104FF80058851046704700BF1400002008B50E4BB6
:10500800186801F02BFB0D4B186801F02DFB0120EF
:10501800FFF768FF0020FFF7DDFF0020FFF7E4FF40
:105028000020FFF7A6FF064B1868FFF7A5FF002032
:10503800BDE80840FFF7AABF0803002010000020C1
:105048000C00002070B51A4E04461A4D06F1840370
:1050580004F108010367EB681A1D9B631B64DA639C
:1050680003F1080242615A7C134B53F82200C368CB
:105078001B6B9847114B63666B68E361EB680833F9
:10508800636101232376E37604F0EAFB0323A0643B
:1050980084F868306FF0704330682363636301F00D
:1050A800DDFAA86801F0E0FA054A064B1A6070BDFF
:1050B80008030020080000202C6202205014010878
:1050C800681401082462022070B500240A4D0B4EB2
:1050D8007422C5F88040043533682146284698472D
:1050E80033680822214606489847064BDD60064B80
:1050F8001C70064B1C6070BD0803002028000020AF
:105108002C6202200800002014620220F0610220B4
:105118002DE9F3410446042016461F460D4600F0CB
:1051280037FF134B80466846DB68DA6C1B6D144406
:1051380016441D441F44ADF80040ADF80460ADF8B6
:105148000250ADF8067004F0CBF828B9404600F0DC
:105158001FFF02B0BDE8F0813B4632462946204693
:1051680000F09EFF03F0FAFF0028F5D1EEE700BF3C
:1051780008000020002110B50846FFF7ABFE43F6F3
:10518800FF7303491A460846BDE81040FFF7C0BF41
:1051980001C0FFFFF0B5204D85B0D5F88030002B59
:1051A80037D101236A466E46C5F880301B4B03F1A0
:1051B80008071868083353F8041C1446BB4203C494
:1051C8002246F6D1186899889B792060A3713346E6
:1051D800A180134C13F8012B04F8012B1A78002A2C
:1051E800F8D1FFF7FFFD10F8013B224604F8013B18
:1051F8000378002BF7D15370FEF79CF8FEF74EFBAF
:10520800084B0948C5F8983005B0BDE8F04000F0F3
:10521800D1B805B0F0BD00BF08030020581401083C
:105228008C030020D1500008A003002090B583B063
:1052380000AF534A524B1B6823F001031360514BD4
:105248001B68C3F30A0340F2494293420CBF01238F
:105258000023DAB24B4B1B68C3F30A0340F25141F7
:105268008B420CBF01230023DBB21343DBB2194688
:10527800444B1B68C3F30A0340F2524293420CBFEB
:1052880001230023DBB20B43002B10D03E4B01223D
:105298001A6000BF3C4B1B68002BFBD13B4B3C4AC0
:1052A8001A603A4B1B683B4A934218D0FEE73A4BC8
:1052B8001B68C3F30A03B3F58A6F10D1374B012279
:1052C8001A6000BF354B1B68002BFBD1344B304AAA
:1052D8001A60334B1B682F4A934200D0FEE7FFF752
:1052E80059FF304B2E221A70FEF710FC2E48FFF79C
:1052F800A9FE01F00DF9786001F02CFB0346002BA4
:105308000CBF01230023DCB201F02AFB0346002B6B
:105318000CBF01230023DBB22343DBB2002B09D0EF
:1053280001F008FB044601F008FB03461946204635
:1053380001F00AFB00210020FFF730FE04F0F8F925
:105348001A4B1B68002B12D00DE0184B1B681B680A
:10535800002B03D0154B1B681B689847134B1B6821
:105368005B68124A1360114B1B68002BEDD1104B80
:1053780001221A707B6818460C37BD4690BD00BFE5
:10538800002000E0002004E0083002400030024025
:10539800C2A507F4CDB5E8B50010005C084C02586A
:1053A800004C0258E46102200C0300208403002012
:1053B8000C62022080B483B000AF7860064B1A6894
:1053C8007B685A60044A7B68136000BF0C37BD468F
:1053D8005DF8047B704700BF80030020012809DCCA
:1053E800054B53F8200020B1C3681B681BB1006847
:1053F800F9E77047002070472C620220FFF72EBAA9
:10540800012BF8B506460D4617461C4601DD00205F
:10541800F8BD1C20FFF706FB0028F8D00DB1056188
:1054280009E0094B53F8241029B10B680BB1194650
:10543800FBE70B690361002384618782C660036010
:1054480043608360F8BD00BF2C62022081690A4A6C
:1054580052F821309842036804D142F821300BB148
:1054680000225A60426802B11360036803B15A60AF
:1054780000230360436070472C62022030B508B9EE
:10548800012030BD8469012CFADC1B4B1A78944248
:10549800A4BF621C1A70194A52F8243015461BB969
:1054A80042F82400184630BD5A680AB11346FBE793
:1054B800C2681268D9680968914203DD1B68002B2D
:1054C800F8D1DDE709D1818A012906D1196821B10E
:1054D8000B46C96809688A42F8DD5A6812B110603B
:1054E800426001E045F824005860984208BF002354
:1054F8000360002030BD00BFDE6102202C62022064
:1055080038B51D46FFF77CFF044648B1FFF7B6FFE4
:10551800E3681B6823B9034B16351B6843F825401D
:10552800204638BD140000202DE9F04F054685B00F
:1055380000287FD0414C08F04BFE07462368A1465F
:10554800B3F9228008F02CFE226886B2938C9B1B4C
:1055580093842B78002B61D047F6FF71284608F01A
:10556800C9FE01468246284608F0EEFE2268938D61
:1055780003F00303012B04D0022B04D190FBF3F3B7
:1055880002E0034600E00023518C1FFA80FB284606
:10559800CB1A9BB219B25184ADF808100BF1FF3148
:1055A800B2F924200B445146ADF80A20013AADF86F
:1055B8000C30BBB21A440193ADF80E2002AA08F0D1
:1055C800F3FE2268BDF80A1028469184514600F07F
:1055D80099FA2A5C05EB000E019B0A2A01D00D2AD4
:1055E80012D12268918D01F00301013901298ABF86
:1055F800118CA2F8228051849EF800100A290AD141
:10560800918C0B44938406E0BDF80800D9F800306B
:105618008344A3F822B09EF8003043B923689A8CDB
:1056280016449A8D22F003029E849A8502E00EF1B8
:1056380001058EE705B0BDE8F08F00BF140000201B
:10564800024B1B6859849A84FFF76EBF1400002030
:105658002DE9F0470C4686B016461F46019008F023
:10566800B7FDDDF80490804624B104AB206861687A
:1056780003C302E004A8FFF78CFB16F00C0A02D162
:10568800BDF9124031E03C4600258CB12146019815
:1056980008F030FE0146241A019800F033FA019B05
:1056A80001351844019001A800F082FA0028ECD0D6
:1056B800BAF1080F05D0BAF10C0F08D0BAF1040FEF
:1056C80012D1BDF9164008FB154401340DE0BDF9AF
:1056D80012200224BDF916309B1A013308FB153538
:1056E80095FBF4F5AC1800E00024CDF804900025F3
:1056F80006F00306DFF8A09008F1FF38002F48D025
:105708003946019808F0F6FD014682463F1A01988D
:1057180008F01AFE012E0FD0022E03D086B9BDF96B
:1057280010500DE0BDF91050BDF914305B1B1B1A69
:1057380093FBF6F31D4403E0BDF914502D1A01350F
:105748000138D9F8001023B22AB228448B84ADF866
:105758000A3008EB04034A845146ADF8082002AA2F
:10576800ADF80C000198ADF80E3008F01DFE51465A
:10577800019800F0C7F9019B0DF1180A18444AF87E
:10578800140D08F025FD0444504600F011FA0028D5
:10579800B4D006B0BDE8F087140000202DE9F3412D
:1057A8000C46174698460646C0B169B1084604F04B
:1057B8004DFB054648B102462146684600F028FAE6
:1057C800684604F043FB00E00D46304643463A463F
:1057D8002146FFF73DFF284604F038FB02B0BDE83C
:1057E800F08147F6FF73FFF7D9BFF8B505460E46B7
:1057F800174600243A463146284600F0AAFB10B165
:1058080005440134F6E72046F8BD2DE9F04F8BB08A
:105818000D46174606460393002800F09680B1F916
:105828000030B1F904900193C3EB0903B1F90240C8
:10583800B1F906B00133029308F0CAFC17F00C085E
:1058480082461ED0039A30460299FFF7CEFFB8F180
:10585800080F05D0B8F10C0F09D0B8F1040F10D11A
:1058680010FB0AF00BF10104201A04B209E0C4EBA2
:105878000B03013300FB1A30022390FBF3F00444BE
:1058880024B2284604F0E2FA804688B1BDF8043014
:105898000246294606A8ADF81830ADF81A40ADF80A
:1058A8001C90ADF81EB000F0B3F906A804F0CEFACB
:1058B8001FFA8AF307F003070493013B0593039A41
:1058C800304602991FFA84FB00F012FBBDF8043041
:1058D80001468246ADF820303046059BADF822409F
:1058E8005B44ADF82490ADF8263008F02DFD012F6B
:1058F80011D0022F04D09FB92B88ADF820300FE0CB
:10590800B5F90020B5F904309B1A181A013090FB3C
:10591800F7F0104402E0AB880133181AADF8200004
:10592800304608AA514608F03FFD3046039A0299CE
:1059380000F00FFB049B064403EB0B04337824B2FE
:10594800002BBCD1404604F081FA0BB0BDE8F08FC3
:1059580038B50E4C08220E4D002120462B6898477A
:1059680008222B680021A01898472B6808220021DC
:1059780004F1100098472B680822002104F1180050
:1059880098470022034B1A6038BD00BFA8030020C7
:1059980028000020E0610220084B1A6A002A18BF7C
:1059A800002003EB800210B59469002CA2BF43F8D5
:1059B80020104FF0FF33936110BD00BFA8030020F3
:1059C80070B50A4C05460E46636A2BB92046084B4B
:1059D80040F8243FFFF7EEFC236A002B054B18BF65
:1059E8000025012EB8BF01265E5570BDA803002012
:1059F80059590008DC610220024B1A6802B9186084
:105A080000F0C2B8D4030020094A136851688B42D9
:105A180010B50BD0074CA34293E8030014BF08331A
:105A2800503B136004F0E2F8012010BD002010BDC7
:105A3800180000202804002038B50D46144601F04F
:105A480047F810B100232B60236038BD70B5084DAE
:105A5800012804462B685E7C08D8FFF7BFFC28B1F4
:105A68002B685C74FFF778FA024B1C60304670BDF7
:105A78001400002068620220FEF736B870B50446AC
:105A8800094EFEF731F80444FEF72EF8251A002DCA
:105A980008DDFFF715FA3068A842A8BF2846FEF7C8
:105AA80029F8F1E770BD00BF20000020014B1B68FA
:105AB8005B68184724620220014B1B681B68184763
:105AC80024620220014B1B68DB681847246202200D
