:020000040800F2
:1000000000200020C11500089D0300089F03000880
:1000100000000000000000000000000000000000E0
:10002000000000000000000000000000A103000824
:100030000000000000000000A3030008A503000862
:100040001116000800000000111600081116000823
:1000500011160008111600081116000811160008E4
:100060000000000011160008AD030008111600087A
:1000700011160008111600081116000800000000F3
:1000800011160008111600080000000011160008E3
:1000900011160008111600081116000811160008A4
:1000A0001116000811160008111600081116000894
:1000B0001116000800000000000000000000000011
:1000C00010B5064C2378002B07D1054B002B02D02E
:1000D000044800E000BF0123237010BD0C00002085
:1000E000000000006C160008044B10B5002B03D074
:1000F0000349044800E000BF10BDC04600000000F6
:10010000100000206C160008002243088B4274D3B4
:1001100003098B425FD3030A8B4244D3030B8B4208
:1001200028D3030C8B420DD3FF22090212BA030C11
:100130008B4202D31212090265D0030B8B4219D3F2
:1001400000E0090AC30B8B4201D3CB03C01A524112
:10015000830B8B4201D38B03C01A5241430B8B425A
:1001600001D34B03C01A5241030B8B4201D30B0343
:10017000C01A5241C30A8B4201D3CB02C01A52416A
:10018000830A8B4201D38B02C01A5241430A8B422D
:1001900001D34B02C01A5241030A8B4201D30B0216
:1001A000C01A5241CDD2C3098B4201D3CB01C01A30
:1001B000524183098B4201D38B01C01A524143093A
:1001C0008B4201D34B01C01A524103098B4201D328
:1001D0000B01C01A5241C3088B4201D3CB00C01A95
:1001E000524183088B4201D38B00C01A524143080D
:1001F0008B4201D34B00C01A5241411A00D2014632
:10020000524110467047FFE701B5002000F006F8A4
:1002100002BDC0460029F7D076E770477047C04658
:1002200030B589B01422002103A801F017FA134B4E
:10023000596980200003014359615A6902400192C3
:10024000019A5A69802189020A435A615B690B400D
:100250000293029B8025AD01094C00222900200059
:1002600000F092FE03950123049300230593069367
:1002700003A9200000F0B2FD09B030BD001002401B
:100280000008004800B583B0094A516901231943A9
:100290005161526913400193019B002200210A2001
:1002A00000F00AFF0A2000F037FF03B000BDC0468F
:1002B0000010024010B50948094B036096231B0249
:1002C000436000238360C36003610C224261836149
:1002D000C3610362436201F03BF910BD6C00002072
:1002E0000038014010B50E480E4B036082235B00BE
:1002F000436000238360F0221201C2600361436106
:10030000802292008261C361036243628362FA3A8F
:10031000FF3AC26203630833436300F0EBF810BD99
:10032000EC0000200030014030B595B02C220021B7
:1003300009A801F093F91022002104A801F08EF918
:1003400010220021684601F089F902230893012553
:100350000B950E330C93002408A800F031F9072305
:100360000493059406940794002104A800F0AEFBC2
:1003700000950294684600F059FC15B030BD10B5E8
:1003800000F00AFDFFF7D0FFFFF74AFFFFF77AFF03
:10039000FFF790FFFFF7A6FFFEE770477047FEE705
:1003A0007047704710B500F007FD10BD10B502484A
:1003B00000F02CFE10BDC0462800002082B00A4B81
:1003C000996901221143996199690A400092009A42
:1003D000DA69802149050A43DA61DB690B40019340
:1003E000019B02B07047C0460010024010B588B0B3
:1003F00004001422002103A801F030F92268134BF5
:100400009A4201D008B010BD114B9969802040017B
:10041000014399619A6902400192019A5A698021C7
:1004200089020A435A615B690B400293029BE023F5
:100430000393DE3B04930023059303220692079364
:10044000902003A9C00500F0C9FCDBE700300140A3
:100450000010024030B589B004001422002103A826
:1004600001F0FCF81F4B22689A4201D009B030BD60
:100470001D4B99698020C001014399619A6902402E
:100480000192019A5A69802189020A435A615B6983
:100490000B400293029BC023DB00039302230493CF
:1004A0000025059501330693023B0793902003A98D
:1004B000C00500F093FC0D480D4B0360456085605E
:1004C0008023C360056145618561C56100F076FDEB
:1004D000002803D1054BE3665C62C7E7FFF75DFFC9
:1004E000F8E7C04600380140001002402800002014
:1004F0003000024010B5041E5ED0002383625D33DD
:10050000C35C002B4CD05D230222E25422681368A6
:1005100040218B431360E368E022D200934245D927
:100520000022F02109018B4205D0E021C9008B4255
:1005300001D00021A162216B002905D1E021C90071
:100540008B4236D9022323636368A1680B43216978
:100550000B4361690B4380218900A06901400B4373
:10056000E1690B43216A0B432168A06A03430B60D6
:10057000618B04230B40616A0B43616B0B43E168A1
:100580000B43216813434B602268D3690B490B402E
:10059000D361002323665D330122E254002010BDA5
:1005A0005C330022C254FFF721FFACE780225201E6
:1005B000B7E701232363C7E70120F0E7FFF7FFFF59
:1005C00070B582B0041E00D12EE20368DB0726D589
:1005D000AE4B5A680C231340042B18D0AB4B5A680F
:1005E0000C231340082B0ED06368012B3CD0002B4A
:1005F00051D1A64B1A68A6490A401A601A68A54943
:100600000A401A6036E0A14B5B68DB03ECD59F4BD8
:100610001B689B0303D56368002B00D107E22368A6
:100620009B0772D5994B5B680C221A425DD0974BA1
:100630005A680C231340082B53D0E368002B00D1D9
:1006400085E0924A136801210B43136000F0C0FB60
:1006500005008E4B1B689B0770D400F0B9FB401B54
:100660000228F6D90320E0E1884A116880235B0262
:100670000B4313606368002B25D000F0A9FB050035
:10068000824B1B689B03CAD400F0A2FB401B64286A
:10069000F6D90320C9E1052B09D07C4B1A687C49A7
:1006A0000A401A601A687B490A401A60E2E7774BF1
:1006B00019688022D2020A431A6019688022520205
:1006C0000A431A60D6E700F083FB05006F4B1B68F6
:1006D0009B03A4D500F07CFB401B6428F6D90320C3
:1006E000A3E16A4B5B68DB03A7D4684B1B689B07DD
:1006F00003D5E368012B00D09BE164490B68F82225
:1007000093432269D20013430B6023681B0744D52F
:10071000E369002B2ED05D4A536A01210B435362DB
:1007200000F056FB0500594B5B6A9B0735D400F07F
:100730004FFB401B0228F6D9032076E153490B6892
:10074000F82293432269D20013430B60DDE74F4A3E
:10075000136801218B43136000F03AFB05004B4BFB
:100760001B689B07D1D500F033FB401B0228F6D94C
:1007700003205AE1454A536A01218B43536200F03A
:1007800027FB0500414B5B6A9B0706D500F020FB69
:10079000401B0228F6D9032047E123685B0700D4F9
:1007A00080E03A4BDB69DB000BD4384AD16980200A
:1007B00040050143D161D36903400193019B0125A9
:1007C00000E00025344B1B68DB050ED5A368012B28
:1007D0001FD0002B34D12D4B1A6A01218A431A6293
:1007E0001A6A03318A431A6218E02B4A116880237F
:1007F0005B000B43136000F0EBFA0600264B1B680E
:10080000DB05E3D400F0E4FA801B6428F6D903206A
:100810000BE11E4A136A01210B431362A368002BEC
:1008200024D000F0D5FA0600184B1B6A9B0737D47A
:1008300000F0CEFA801B194B9842F5D90320F4E062
:10084000052B09D0114B1A6A01218A431A621A6AD0
:1008500003318A431A62E1E70C4B1A6A04210A4306
:100860001A621A6A03390A431A62D7E700F0B0FA2B
:100870000600064B1B6A9B0712D500F0A9FA801BE5
:10088000064B9842F5D90320CFE0C0460010024045
:10089000FFFFFEFFFFFFFBFF00700040881300001A
:1008A000012D33D02368DB0610D56369012B33D0CB
:1008B000053351D1654A536B04218B435363536B0A
:1008C000F4318B43A169C9000B435363236A002BA6
:1008D00000D1B0E05D4A51680C220A40082A00D1DC
:1008E0008AE0022B4FD0594A136859490B401360D4
:1008F00000F06EFA0400554B1B689B017AD500F09E
:1009000067FA001B0228F6D903208EE04F4AD3690C
:1009100050490B40D361C5E74C4B5A6B04210A4345
:100920005A635A6B03390A435A6300F051FA0500BF
:10093000464B5B6B9B0706D400F04AFA401B02282B
:10094000F6D9032071E041494B6BF8229343A26929
:10095000D20013434B63B9E73C4B5A6B04210A4363
:100960005A635A6B03398A435A6300F031FA05001F
:10097000364B5B6B9B07A9D500F02AFA401B022877
:10098000F6D9032051E0314A136831490B40136016
:1009900000F01EFA05002D4B1B689B0106D500F0E8
:1009A00017FA401B0228F6D903203EE0274BDA6AEB
:1009B0000F218A43E16A0A43DA625A6826490A40EB
:1009C000A16A606A01430A435A601968802252048E
:1009D0000A431A6000F0FCF904001C4B1B689B01E1
:1009E00006D400F0F5F9001B0228F6D903201CE01C
:1009F00000201AE0002018E0012B1ED0134B5A688B
:100A0000D96A80235B021340606A834217D10F23A7
:100A10000B40E16A8B4214D1F0239B031A40A36A76
:100A20009A4210D1002000E0012002B070BD0120E8
:100A3000FBE70120F9E70020F7E70120F5E70120B7
:100A4000F3E70120F1E70120EFE7C0460010024084
:100A5000FFFFFFFEFFFFFFEFFFFFC2FF10B588B0F3
:100A600004AA164B13CB13C21B6813606A46144BBF
:100A700013CB13C21B681360124B5A680C2313402C
:100A8000082B02D0104808B010BD910C0733194054
:100A900004A8445C0B49C96A0B406946C95CD3038E
:100AA00004D50948FFF730FB6043ECE763011B1BEB
:100AB0009801C01AC00000190002E4E7841600087B
:100AC000981600080010024000127A0070B5040069
:100AD0000D00002800D17EE0434B1A68012313402B
:100AE0008B420AD240490B68012293432B430B608F
:100AF0000B681A40AA4200D06FE023689A070ED50F
:100B00005B0705D5394A5168E023DB000B4353608E
:100B1000364A5368F0218B43A1680B435360236826
:100B2000DB072DD56368012B1ED0022B22D02F4A64
:100B30001268920753D52D494A6803208243134314
:100B40004B6000F045F90600284B5B680C221A4008
:100B500063689B009A4213D000F03AF9801B244B43
:100B60009842F1D9032035E0204A12689203E2D47A
:100B700001202FE01D4A12689201DCD4012029E0F7
:100B8000194B1A6801231340AB4209D916490B6867
:100B9000012293432B430B600B681A40AA4220D1D9
:100BA00023685B0706D5114A536812490B40E16878
:100BB0000B435360FFF752FF0C4B5A6812090F2387
:100BC00013400D4AD35CD8400C4B1860002000F055
:100BD000BBF8002070BD0120FCE70120FAE70120EE
:100BE000F8E70120F6E7C04600200240001002406E
:100BF00088130000FFF8FFFFAC1600080800002073
:100C0000014B18687047C0460800002010B5FFF778
:100C1000F7FF044B5A68120A07231340024AD35CB9
:100C2000D84010BD00100240BC16000870B582B05C
:100C300004000368DB0337D53D4BDB69DB0049D497
:100C40003B4AD169802040050143D161D36903400B
:100C50000193019B0125374B1B68DB053CD5344BC9
:100C60001A6AC0239B00110019401A4213D062680F
:100C700013408B420FD02E4B186A2F4A02401E6A37
:100C80008021490231431962196A2C4E31401962A0
:100C90001A62C30734D4264A136A27490B40616895
:100CA0000B431362012D3AD02368DB0706D5204A97
:100CB000136B03218B43A1680B43136323689B06CB
:100CC00032D51B4A136B10218B43E1680B4313632E
:100CD00000202AE00025BEE7164A116880235B0049
:100CE0000B43136000F074F80600124B1B68DB0521
:100CF000B5D400F06DF8801B6428F6D9032014E009
:100D000000F066F806000A4B1B6A9B07C3D400F08C
:100D10005FF8801B0A4B9842F5D9032005E0D369A0
:100D200008490B40D361BFE7002002B070BDC04648
:100D30000010024000700040FFFCFFFFFFFFFEFFBD
:100D400088130000FFFFFFEF10B504000F4B197868
:100D5000FA208000FFF7D8F901000D4B1868FFF763
:100D6000D3F900F0E5F900280DD1032C01D90120B9
:100D70000AE0013000222100404200F09DF9054BBD
:100D80001C60002000E0012010BDC04600000020D3
:100D9000080000200400002010B5064A1368102146
:100DA0000B4313600020FFF7CFFFFFF707FB002086
:100DB00010BDC04600200240034A1168034B1B7857
:100DC0005B1813607047C0465001002000000020EF
:100DD000014B18687047C04650010020F0B5D64658
:100DE0004F464646C0B582B0002338E0032600E0F7
:100DF0000026A64034003C43023292005C4E9451DF
:100E00005C4A14684A46D24326004D46AE434D68BC
:100E1000ED0302D54D462C432600564C26606468EF
:100E2000260016404D68AD0302D54D462C432600E2
:100E3000504C6660A468260016404D68ED0202D54D
:100E40004D462C4326004B4CA660E46822404D687A
:100E5000AD0201D54A462243464CE26001330C689C
:100E60002200DA407DD001229A4025001540A94693
:100E70001442F3D04C68022C01D0122C0ED1DC08A5
:100E80000834A400275807261E40B6000F25B54099
:100E9000AF430D69B5402E003E4326500468A4467A
:100EA0005E000324A2462700B740B846FF436546CC
:100EB0004446A543AC464C68554625402C00B440FA
:100EC00065462C4304604C68651E012D03D9112C26
:100ED00001D0122C13D184683C40A446CC68B440A5
:100EE00065462C4384604468944322004C6824097E
:100EF000A446012465462C409C4014434460C268CB
:100F000017408A68B2403A43C2604A68D200A5D509
:100F1000194CA66901221643A661A46922400192D8
:100F2000019A9A08941CA400114EA75903241C404E
:100F3000A4000F26A640B7439026F605B04200D184
:100F400056E70E4EB04208D00D4EB04207D00D4EBF
:100F5000B04200D14AE705264BE7012649E70226C1
:100F600047E702B0E0BCBA46B146A846F0BDC0466D
:100F7000000001400004014000100240000400484D
:100F800000080048000C0048002A01D08161704729
:100F90008162FCE710B504000368064A9446634486
:100FA00018001421FFF7B0F880002064024BE363BF
:100FB00010BDC046F8FFFDBF0000024070B5041E22
:100FC00020D021250223435501680B680E4A1A40A0
:100FD000436880680343E068034320690343606912
:100FE0000343A0690343E069034313430B602000FC
:100FF000FFF7D0FF0023A363012262551F32A354E1
:10100000002070BD0120FCE70FC0FFFF70B5C36B6F
:101010001A6804682568016C04238B401A4212D0B8
:101020006B0710D523689B0603D4236804229343DF
:101030002360C26B0423016C8B405360C36A002B96
:1010400000D0984770BD02238B401A4218D0AB07DE
:1010500016D523689B0606D423680A22934323608F
:101060002123093AC254C26B0223016C8B405360A6
:1010700020230022C254836A002BE3D09847E1E783
:1010800008238B401A42DDD02B07DBD523680E22C4
:1010900093432360C26B01231900046CA14051608B
:1010A0008363212283541F330022C254036B002B1D
:1010B000C8D09847C6E7000070B5002811DB830848
:1010C000134EC0339B009D5903242040C000FF22D3
:1010D00014008440A54389010A4082402A439A5162
:1010E00070BD0F230340083B9B0806339B00094A51
:1010F000944663445C6803221040C000FC32150033
:101100008540AC4389010A40824022435A60E7E7A8
:1011100000E100E000ED00E0002805DB1F2318409F
:101120001E3B8340014A13607047C04600E100E067
:10113000013880235B0498420FD2094A5060094865
:10114000036A1B021B0AC02109060B43036200232A
:10115000936007331360002070470120FCE7C0460E
:1011600010E000E000ED00E070B504008368026963
:10117000134342691343C269134301680A686D4807
:10118000024013430B60226853686B490B40E168CF
:101190000B435360226AA3691A4321688B6867482E
:1011A000034013438B602368654A93421DD0654A10
:1011B00093422BD0102580231B02E2699A422FD044
:1011C000042D00D1A2E07DD8002D00D193E0022DA6
:1011D00075D1636858085C4B9C4660446168FEF7B3
:1011E00093FF0004000C00257DE0584B1A6B03238D
:1011F0001340022B0CD005D8002B0BD0012B0BD1A8
:101200000425D8E7032B09D10225D4E70025D2E72E
:101210000825D0E70025CEE71025CCE71025CAE742
:10122000042D3FD012D8002D30D0022D0BD1636891
:101230005808474B9C4660446168FEF765FF000410
:10124000000C002513E00125002010E0082D0CD132
:101250006368580880235B029C4660446168FEF71F
:1012600053FF0004000C002501E001250020394A4D
:101270000300103B934255D80F2302009A434008C5
:10128000083B184010432368D8604EE0FFF7BEFCCF
:10129000400063685B08C0186168FEF735FF000412
:1012A000000CE4E7FFF7DAFB400063685B08C01856
:1012B0006168FEF729FF0004000C0025D7E701252F
:1012C000002010E0082D0CD16368580880231B0211
:1012D0009C4660446168FEF717FF0004000C00257F
:1012E00001E0012500201B4A0300103B93421BD85C
:1012F0002368D86019E0FFF789FC63685B08181859
:101300006168FEF701FF0004000CECE7FFF7A6FBA5
:1013100063685B0818186168FEF7F6FE0004000CAD
:101320000025E0E7012500E0012500232366636630
:10133000280070BDF369FFFFFFCFFFFFFFF4FFFF41
:10134000003801400044004000127A0000100240C2
:101350000024F400EFFF0000436ADB0706D50268B3
:1013600053682C490B40816A0B435360436A9B07C7
:1013700006D50268536828490B40C16A0B43536085
:10138000436A5B0706D50268536824490B40016B2A
:101390000B435360436A1B0706D502685368204914
:1013A0000B40416B0B435360436ADB0606D5026872
:1013B00093681C490B40816B0B439360436A9B0607
:1013C00006D50268936818490B40C16B0B439360C4
:1013D000436A5B060BD50268536814490B40016CE5
:1013E0000B43536080235B03026C9A420AD0436A2A
:1013F0001B0606D5026853680D490B40816C0B43F0
:1014000053607047026853680A490B40416C0B43B4
:101410005360ECE7FFFFFDFFFFFFFEFFFFFFFBFF59
:10142000FF7FFFFFFFEFFFFFFFDFFFFFFFFFEFFF8C
:10143000FFFFF7FFFFFF9FFFF8B5CE46474680B599
:1014400006000D0017009946089B98463368DC6932
:101450002C40641B63425C41BC423CD14346013397
:10146000F4D0FFF7B5FC4B46C01A404520D84346A0
:10147000002B1DD033681A685207E7D5DA691205C8
:10148000E4D5802212011A623268136814490B40B5
:10149000136032689368A331FF318B43936020233C
:1014A0007367B367F36750330022F254032013E0ED
:1014B000326813680A490B40136032689368A3319D
:1014C000FF318B43936020237367B367503300224F
:1014D000F254032000E00020C0BCB946B046F8BD7D
:1014E0005FFEFFFF30B583B004000023C367FFF742
:1014F0006FFC050023681B681B070CD423681B685E
:101500005B0715D420236367A36750330022E2549E
:10151000002003B030BD80210C4B0093030000225B
:1015200089032000FFF788FF0028E7D00320F0E7B9
:101530008021064B00932B000022C9032000FFF7F7
:101540007BFF0028DED00320E3E7C046FFFFFF015A
:1015500010B5041E2ED0436F002B21D024236367C7
:101560002268136801218B4313602000FFF7FCFD04
:10157000012814D0636A002B18D1226853680E49E1
:101580000B4053602268936808218B439360226864
:10159000136807390B4313602000FFF7A3FF10BD4A
:1015A00070330022C254FEF755FFD7E72000FFF743
:1015B000D3FEE2E70120F2E7FFF7FFFF70470000EC
:1015C0000D4885460D480E490E4A002302E0D458C6
:1015D000C4500433C4188C42F9D30B4A0B4C00237B
:1015E00001E013600432A242FBD3FFF7E7FF00F0F3
:1015F00011F8FEF7C4FEFEE70020002000000020E6
:101600000C000020CC1600080C0000205401002023
:10161000FEE7000070B500260C4D0D4C641BA410B5
:10162000A64209D1002600F021F80A4D0A4C641B9D
:10163000A410A64205D170BDB300EB5898470136FF
:10164000EEE7B300EB5898470136F2E7C4160008FE
:10165000C4160008C4160008C81600080300821843
:10166000934200D1704719700133F9E7F8B5C046CD
:10167000F8BC08BC9E467047F8B5C046F8BC08BC2C
:041680009E467047CB
:1016840002030405060708090A0B0C0D0E0F1010BF
:10169400000000000102030405060708090A0B0CF8
:1016A4000D0E0F10000000000000000000000000FC
:1016B40001020304060708090000000001020304F4
:0416C400E900000831
:0416C800C100000855
:0C16CC00010000000400000000127A0081
:04000005080015C119
:00000001FF
