:020000040800F2
:1080000000000520AD3C01081393000815930008FB
:1080100017930008199300081B9300080000000044
:10802000000000000000000000000000D11701085F
:108030001D9300080000000071180108D518010800
:10804000FD3C0108FD3C0108FD3C0108FD3C010828
:10805000FD3C0108FD3C0108FD3C0108FD3C010818
:10806000FD3C0108FD3C0108FD3C0108FD3C010808
:10807000FD3C0108FD3C0108FD3C0108FD3C0108F8
:10808000FD3C0108FD3C0108FD3C0108FD3C0108E8
:10809000FD3C0108FD3C0108FD3C0108FD3C0108D8
:1080A000FD3C0108FD3C0108FD3C0108FD3C0108C8
:1080B000FD3C0108FD3C0108FD3C0108FD3C0108B8
:1080C000FD3C0108FD3C0108FD3C0108FD3C0108A8
:1080D000FD3C0108FD3C0108FD3C0108FD3C010898
:1080E000FD3C0108FD3C0108FD3C0108FD3C010888
:1080F000FD3C0108FD3C0108FD3C0108FD3C010878
:10810000FD3C0108FD3C0108FD3C0108FD3C010867
:10811000FD3C0108FD3C010821930008FD3C0108DD
:10812000FD3C0108FD3C0108FD3C0108FD3C010847
:10813000FD3C0108FD3C0108FD3C0108FD3C010837
:10814000FD3C0108FD3C0108FD3C0108319300089D
:10815000FD3C0108FD3C0108FD3C0108FD3C010817
:10816000FD3C0108FD3C0108FD3C0108FD3C010807
:10817000FD3C0108FD3C0108FD3C01080000000039
:10818000FD3C0108FD3C0108FD3C0108FD3C0108E7
:10819000FD3C0108FD3C0108FD3C0108FD3C0108D7
:1081A00041930008FD3C010851930008FD3C010883
:1081B000FD3C0108FD3C0108FD3C0108FD3C0108B7
:0881C000FD3C0108FD3C010833
:1081D00010B5054C237833B9044B13B10448AFF301
:1081E00000800123237010BDF80100200000000072
:1081F0008C4C010808B5034B1BB103490348AFF38E
:10820000008008BD00000000FC0100208C4C01082B
:1082100001F0FF01102A2BDB10F0070F08D010F837
:10822000013B013A8B422DD010F0070F42B3F6D13B
:10823000F0B441EA012141EA014122F007047FF054
:1082400000070023F0E80256083C85EA010586EAAB
:10825000010685FA47F5A3FA87F586FA47F6A5FAE7
:1082600087F68EB9EED1F0BC01F0FF0102F00702F3
:1082700032B110F8013B013A83EA010313B1F8D19E
:108280000020704701387047002D06BF354603387F
:10829000073815F0010F07D1013015F4807F02BFB8
:1082A000013015F4C03F0130F0BC0138704700BF09
:1082B00053B94AB9002908BF00281CBF4FF0FF314D
:1082C0004FF0FF3000F072B9ADF1080C6DE904CE4B
:1082D00000F006F8DDF804E0DDE9022304B07047A1
:1082E0002DE9F047089E04468846002B4BD18A4270
:1082F000154667D9B2FA82F24AB1C2F1200701FAF3
:1083000002F320FA07F7954047EA030894404FEA42
:10831000154E230CB8FBFEF71FFA85FC0EFB1788E1
:1083200043EA084307FB0CF1994209D9EB1807F11E
:10833000FF3080F01B81994240F21881023F2B44AC
:108340005B1AA4B2B3FBFEF00EFB103344EA034405
:1083500000FB0CFCA44509D92C1900F1FF3380F077
:108360000781A44540F2048102382C4440EA0740CA
:10837000A4EB0C0400271EB1D4400023C6E900433F
:108380003946BDE8F0878B4209D9002E00F0EB801A
:108390000027C6E9000138463946BDE8F087B3FA40
:1083A00083F7002F47D18B4202D3824200F2FA803A
:1083B000841A61EB030301209846002EE0D0C6E941
:1083C0000048DDE702B9FFDEB2FA82F2002A40F08F
:1083D0008F80491B4FEA154E1FFA85F80127B1FB24
:1083E000FEFC230C0EFB1C1143EA014308FB0CF1BD
:1083F000994207D9EB180CF1FF3002D2994200F2F2
:10840000CD808446591AA3B2B1FBFEF00EFB1014C6
:1084100043EA044408FB00F8A04507D92C1900F1F1
:10842000FF3302D2A04500F2B6801846A4EB080440
:1084300040EA0C409FE7C7F1200CBB4022FA0CFE3B
:108440004EEA030E01FA07F420FA0CF521FA0CF3B8
:108450004FEA1E482543B3FBF8F92C0C08FB1933EF
:108460001FFA8EFA44EA034309FB0AF49C4202FA1B
:1084700007F200FA07F10BD91EEB030309F1FF30F5
:1084800080F087809C4240F28480A9F10209734405
:108490001B1BADB2B3FBF8F008FB103345EA0344F5
:1084A00000FB0AFAA24508D91EEB040400F1FF33D1
:1084B0006BD2A24569D90238744440EA0940A0FB56
:1084C0000289A4EB0A044C45C2464B4654D351D012
:1084D000002E69D0B1EB0A0564EB030404FA0CFC2E
:1084E000FD40FC404CEA0505C6E90054002747E77B
:1084F000C2F1200320FA03F7954001FA02F021FAB5
:1085000003F34FEA154E3843010CB3FBFEF71FFA95
:1085100085F80EFB173341EA034107FB08F38B4252
:1085200004FA02F407D9691807F1FF3C2FD28B42F5
:108530002DD9023F2944CB1A81B2B3FBFEF00EFBCA
:10854000103341EA034100FB08F38B4207D9691855
:1085500000F1FF3C17D28B4215D902382944C91AC1
:1085600040EA07473BE73746304609E70746E7E674
:108570001846FBE64145ABD2B8EB020A69EB0E02A6
:1085800001381346A4E76046E9E7184695E76746D1
:10859000D1E781467CE702382C4447E7ACF1020C76
:1085A0002B442FE7384608E73746E9E6704700BF17
:1085B000054B064A1A6000225A609A60DA601A6116
:1085C0005A619A61704700BF00920020002C014060
:1085D0002DE9F04F91B000240B940C940D940E945F
:1085E0000F94994B1A6B42F010021A631A6B02F047
:1085F00010020092009A1A6B42F040021A631A6B42
:1086000002F040020192019A1A6B42F002021A63D0
:108610001A6B02F002020292029A1A6B42F00802EE
:108620001A631A6B02F008020392039A1A6B42F063
:1086300004021A631A6B02F004020492049A1A6B81
:1086400042F001021A631A6B02F001020592059AC8
:108650001A6B42F400721A631A6B02F400720692EB
:10866000069A1A6B42F480721A631A6B02F48072D3
:108670000792079A1A6B42F480621A631A6B02F42B
:1086800080620892089A1A6B42F020021A631A6BF1
:1086900002F020020992099A1A6B42F080021A63D2
:1086A0001B6B03F080030A930A9B01222021674879
:1086B00003F0A3FB22460C21654803F09EFB012238
:1086C0000821644803F099FB01224FF4805160486F
:1086D00003F093FB22464FF400515F4803F08DFBFB
:1086E0002246C8215D4803F088FB4FF0080ACDF808
:1086F0002CA00C940D940BA9594803F089FA43F669
:1087000023430B934FF00208CDF830800D940327DC
:108710000E970A260F960BA9524803F079FA4FF4E8
:1087200080530B930C940D940BA94F4803F070FAEF
:1087300040230B93DFF83CB1CDF830B00D940BA97A
:10874000424803F065FA20230B9301250C950D9404
:108750000E940BA93D4803F05BFA41F20C030B9316
:108760000C950D940E940BA9394803F051FA4FF46F
:108770000059CDF82C900C940D940BA93B4803F0B4
:1087800047FACDF82CA00C950D940E940BA9314806
:1087900003F03EFA4FF0100ACDF82CA00C940D9483
:1087A0000BA92A4803F034FA48F204030B930C9403
:1087B0000D940BA9284803F02BFACDF82C900C95BA
:1087C0000D940E940BA9244803F022FACDF82C90B6
:1087D000CDF830B00D940BA91D4803F019FACDF86F
:1087E0002CA0CDF830800D940E970F960BA91A4847
:1087F00003F00EFAC8230B930C950D940E940BA95D
:10880000164803F005FA05230B93CDF830800D943C
:108810000E970F960BA9154803F0FAF904230B9352
:108820000C940D940BA90D4803F0F2F928230B9337
:10883000CDF830800D940E970F960BA90C4803F0DD
:10884000E7F911B0BDE8F08F00380240000C02409B
:108850000020024000280240001C02400018024094
:1088600000100240000402400024024000080240C0
:10887000000002400000121070B584B00025009581
:10888000019502950395104C104B23604FF48033F3
:108890006360A5602561A56184F82050E5620C4BFA
:1088A000A362E5600126E66184F8305066612046E7
:1088B00003F018FD042300930196029569462046B3
:1088C00003F03CFD04B070BDAC93002000220140D9
:1088D0000100000F08B50648064B03600023037132
:1088E0004371436183610123036203F00DFE08BD00
:1088F000DC9100200030024008B50948094B0360B4
:10890000002343608360C36003614361836103624A
:1089100043628362C362036303F06CFE08BD00BF61
:10892000F49300200000055010B5094C094B23605A
:1089300000236360A360E360A362E3622363636375
:10894000204603F0A7FE0121204603F071FF10BD71
:10895000A495002000B0024008B50E480E4B0360FD
:10896000012343600023038242691370426980211E
:1089700051704269E12191704269D370426913716B
:10898000426953718361C3614FF40003036204F0D1
:10899000CBF808BD989600200080024000B589B051
:1089A0001348144B03600023436083600421C160BB
:1089B00010220261402242614FF4C0728261C361A1
:1089C0004FF4006202624FF48052426283620223DB
:1089D00001930722029203910492032205920693C7
:1089E0000793694404F050FA09B05DF804FB00BF36
:1089F00064960020400100A038B50D4C0D4B23605B
:108A00000D4B63600025A5600123E360256165616E
:108A1000A561E5612562204603F012FB2946204648
:108A200003F06CFB2946204603F096FB38BD00BFDF
:108A30009091002000540040FFEAC00038B50D4C72
:108A40000D4B23600D4B63600025A5600123E3609F
:108A500025616561A561E5612562204603F0F0FAB4
:108A60002946204603F04AFB2946204603F074FBC2
:108A700038BD00BFD08F0020005C0040FFEAC0007E
:108A800030B59BB03424224600210DEB04000BF0DE
:108A900076F92246002168460BF071F9304D314BD2
:108AA0002B6000246C60AC60EC602C6128236B614F
:108AB0000923AB613523EB610B232B6240F21523B5
:108AC0006B6240F21B13AB6240F23523EB6240F263
:108AD0001D132B6385F8344085F8354085F8364002
:108AE000284604F0BBFA0D944FF4F0720E920F94E6
:108AF0004FF48873109302211191FF211291139466
:108B00004FF4C0611491072115914FF04041169127
:108B1000179218938DF864408DF865408DF8664083
:108B200022460DA9284604F083FB00940194029488
:108B30000394059406944FF48063079305230893E8
:108B400009940A940B948DF830408DF831408DF8DB
:108B5000324001226946284604F06AFB1BB030BD52
:108B6000049300200068014008B50848084B0360E2
:108B7000FF234360012282600023C36002614361DE
:108B80008361C361036204F0A9FB08BDE096002085
:108B9000001000A070B592B000240C940D940E94B7
:108BA0000F94109411940B942C22214668460BF0DC
:108BB000E6F8274D274B2B606C607F23AB60FF23CB
:108BC000EB602C616C61AC61284604F019FC8DF8F7
:108BD00030408DF831408DF83240109411940122CC
:108BE0000CA9284604F06AFC01268DF82C608DF84B
:108BF0002D608DF82E608DF82F4032460BA9284647
:108C000004F0DCFC8DF800408DF801408DF8024046
:108C10000194049405940694079408948DF82460B4
:108C20004FF480730A9332466946284604F034FDB7
:108C30004FF400730A9332466946284604F02CFD2F
:108C400002222146284604F0D7FD12B070BD00BFB5
:108C5000C494002000280040F8B51E481E4B036055
:108C6000002404634460402747638463C4638460D2
:108C7000046144618461194BC361C46044628462CD
:108C8000C46208260664012545648464C4640465DE
:108C900044658465C565046604F0FEFD1048114B0B
:108CA000036004630323436047638463C463856094
:108CB00004618461C46044628462C4620664456481
:108CC0008464C464046544658465C565046604F011
:108CD000E3FDF8BD0C910020045C014000EE0200B1
:108CE000488F0020245C014008B509484FF040231C
:108CF0000360002343608360C36003614361836159
:108D0000C36103624362836205F080FF08BD00BF58
:108D1000C090002008B50E480E4B03604FF48273DC
:108D20004360002383604FF44072C260036143617B
:108D30004FF400728261C36103624362836207225F
:108D4000C26203630823436305F098FF08BD00BFB8
:108D50001C9000200038004030B589B000240494F5
:108D60000594069407940194029403940E4D0F4BBE
:108D70002B606C60AC604FF6FF73EB602C616C6134
:108D8000AC61284606F060FA4FF48053049304A9BE
:108D9000284606F069FB01940294039401A9284631
:108DA00006F0D0FB09B030BD8090002000040140E7
:108DB00030B59BB00024169417941894199413940A
:108DC000149415940C940D940E940F941094119483
:108DD00012942C22214601A80AF0D1FF214D224BEA
:108DE0002B606C60AC604FF6FF73EB602C616C61C4
:108DF000AC61284606F028FA4FF48053169316A962
:108E0000284606F031FB284606F037FA13941494EE
:108E1000159413A9284606F095FB60230C930D9436
:108E20000E940F9410941194129422460CA9284683
:108E300006F074FA019402940394049405944FF498
:108E400000530693079408944FF0007309930A9413
:108E50000B9401A9284606F0C5FB284600F026FF22
:108E60001BB030BDE49400200000014030B58FB04D
:108E700000240A940B940C940D940794089409947C
:108E80000094019402940394049405940694164D5E
:108E90004FF080432B606C60AC604FF0FF33EB60B1
:108EA0002C61AC61284606F0CFF94FF480530A9349
:108EB0000AA9284606F0D8FA284606F0DEF90794F3
:108EC000099407A9284606F03DFB6023009301940E
:108ED0000294049422466946284606F01FFA284662
:108EE00000F0E4FE0FB030BDE495002030B58FB047
:108EF00000240A940B940C940D94079408940994FC
:108F00000094019402940394049405940694164DDD
:108F1000164B2B606C60AC604FF6FF73EB602C61FE
:108F2000AC61284606F090F94FF480530A930AA9E1
:108F3000284606F099FA284606F09FF90794099406
:108F400007A9284606F0FEFA6023009301940294D4
:108F5000049422466946284606F0E0F9284600F0C7
:108F6000A5FE0FB030BD00BFC49200200004004039
:108F700030B58FB000240A940B940C940D94079490
:108F80000894099400940194029403940494059421
:108F90000694164D164B2B606C60AC604FF0FF339F
:108FA000EB602C61AC61284606F04EF94FF480531B
:108FB0000A930AA9284606F057FA284606F05DF9F2
:108FC0000794099407A9284606F0BCFA6023009389
:108FD0000194029404940C226946284606F09EF9F6
:108FE000284600F063FE0FB030BD00BF8492002021
:108FF000000C004030B589B0002401940294039421
:1090000004940594069407940D4D0E4B2B606C60F0
:10901000AC604FF6FF73EB602C61AC61284606F044
:109020002CF960230193029403940594224601A92C
:10903000284606F073F9284600F038FE09B030BD26
:10904000249600200018004008B50948094B036029
:109050004FF4E133436000238360C36003610C225B
:1090600042618361C3610362436206F002FE08BD90
:10907000449400200010014008B50948094B0360E2
:109080004FF4E133436000238360C36003610C222B
:1090900042618361C3610362436206F0EAFD08BD79
:1090A000249500200014014008B508F0F1FE642367
:1090B00006220649064806F04CFD06480AF084FFE1
:1090C00040F6B83008F0AAFDF1E700BFA44C010853
:1090D00024950020AC4C01080023934223DA10B4FD
:1090E0000CE000BF4FF0604109680029F9D04FF053
:1090F0006041087001332146934210DA4C1C087815
:109100004FF06041D1F8801E11F0010FF2D04FF006
:109110006041D1F8001E11F0010FEBD0E2E71046DC
:109120005DF8044B704710467047000070B5B4B04E
:109130003022002128A80AF022FE0024239424943F
:109140002594269427948422214602A80AF017FE2B
:1091500002F0ACFE2F4B1A6C42F080521A641B6C6A
:1091600003F080530093009B2B4B1A6842F440425B
:109170001A601B6803F440430193019B0923289361
:109180004FF48032299201262D9602252E954FF418
:1091900080022F92192230924FF4C8723192329588
:1091A000339328A801F020FE02F088FE0F232393BA
:1091B000249525944FF4A05326934FF4805327937E
:1091C000062123A802F07EF8144B02936423039334
:1091D0000695049505954FF4C073079305230993ED
:1091E000089503230A930B960C964FF400330D93C6
:1091F0004FF400730E931294139418941B941D94BF
:109200004FF000632193229402A802F053F934B086
:1092100070BD00BF00380240007000406848B101D6
:1092200008B5274B274A9A6002F0D8FEFFF77EFF69
:10923000FFF7CEF9FFF720FBFFF74CFBFFF75CFBD6
:10924000FFF772FBFFF788FBFFF7A8FBFFF7D4FBE4
:10925000FFF7F4FBFFF714FCFFF786FCFFF79AFC1F
:10926000FFF7FAFCFFF7A4F9FFF73EFDFFF752FD09
:10927000FFF79EFDFFF7FAFDFFF738FEFFF778FED8
:10928000FFF76AFDFFF7B6FEFFF7DEFEFFF7F4FE1D
:1092900001F028F808F0ECFB0B480AF095FE642377
:1092A00006220A490A4806F054FC0A4A00210A48E4
:1092B00008F04AFC094B186008F00CFCFEE700BF00
:1092C00000ED00E000800008D84C0108A44C010823
:1092D00024950020B44C0108A9900008CC8F0020F0
:1092E00008B50268034B9A4200D008BD02F082FE26
:1092F000FBE700BF001000407047704708B5024907
:1093000002480AF0EDFD08BD950A0108EC4C010881
:1093100070477047FEE7FEE7FEE7FEE77047000094
:1093200008B5024805F03CFE08BD00BF2C970020A0
:1093300008B5024809F0DEF908BD00BFECB0002016
:1093400008B5024803F007FF08BD00BF04930020E2
:1093500008B5024803F0CEF908BD00BFA49500206F
:10936000F0B587B000230193029303930493059310
:109370002A4B1B680BB107B0F0BD284B01221A60C5
:10938000274B9A6B42F001029A639B6B03F0010337
:109390000093009B4FF683730193022602960325E8
:1093A00004950C24059401A91E4802F031FC48F2F2
:1093B000331301930296002703970495059401A99E
:1093C000194802F025FC4CF20373019302960397AF
:1093D0000495059401A9154802F01AFC4FF63F03C5
:1093E0000193029603970495059401A9104802F091
:1093F0000FFC28230193029603970495059401A975
:109400000C4802F005FC082301930296039704958B
:10941000059401A9084802F0FBFBACE71402002008
:10942000003802400010024000180240000C0240C8
:1094300000140240001C02400008024000B583B046
:109440000D4B1A6C42F080521A641A6C02F0805272
:109450000092009A5A6C42F480425A645B6C03F4A6
:1094600080430193019B00220F216FF0010002F065
:1094700075FD03B05DF804FB0038024010B588B0FC
:1094800000230393049305930693079302681A4BF2
:109490009A4201D008B010BD03F58B335A6C42F4E8
:1094A00080625A645A6C02F480620092009A1A6BCD
:1094B00042F020021A631A6B02F020020192019A14
:1094C0001A6B42F001021A631B6B03F00103029353
:1094D000029B4FF4F86303930324049403A9074801
:1094E00002F096FB0123039304940023059303A940
:1094F000034802F08DFBCDE700220140001402403A
:10950000000002400268094B9A4200D0704782B0C6
:1095100003F500631A6B42F480521A631B6B03F469
:1095200080530193019B02B0704700BF003002409E
:1095300070B58CB000230793089309930A930B939B
:109540000268394B9A4201D00CB070BD374B5A6B50
:1095500042F001025A635A6B02F001020192019A31
:109560001A6B42F010021A631A6B02F01002029298
:10957000029A1A6B42F008021A631A6B02F0080290
:109580000392039A1A6B42F040021A631A6B02F0BC
:1095900040020492049A1A6B42F080021A631A6B1A
:1095A00002F080020592059A1A6B42F001021A63DA
:1095B0001B6B03F001030693069B602307930226AF
:1095C00008960D250B9507A9194802F021FB0823E1
:1095D00007930896002409940A940B9507A9154847
:1095E00002F016FB4FF400730793089609940A944F
:1095F0000B9507A9104802F00BFB4FF4BC430793EF
:10960000089609940A940B9507A90C4802F000FBF0
:1096100050230793089609940A940B9507A90848C4
:1096200002F0F6FA90E700BF000005500038024053
:1096300000100240000C024000180240001C0240D2
:109640000000024002680E4B9A4200D0704700B5FD
:1096500083B0A3F5F0431A6B42F400021A631B6B4C
:1096600003F400030193019B002205215A2002F01C
:1096700075FC5A2002F0A4FC03B05DF804FB00BFA7
:1096800000B00240F0B58DB0002307930893099312
:109690000A930B930268304B9A4201D00DB0F0BD93
:1096A000A3F590431A6B42F000721A631A6B02F032
:1096B00000720192019A1A6B42F080621A631A6B6F
:1096C00002F080620292029A1A6B42F000621A6300
:1096D0001A6B02F000620392039A1A6B42F0400286
:1096E0001A631A6B02F040020492049A1A6B42F059
:1096F00004021A631A6B02F004020592059A1A6BAF
:1097000042F001021A631B6B03F001030693069BF0
:109710004FF4D04307930226089603250A950B249D
:109720000B9407A90D4802F073FA322307930896A9
:10973000002709970A950B9407A9094802F068FACF
:1097400086230793089609970A950B9407A905485D
:1097500002F05EFAA2E700BF00800240001802405B
:10976000000802400000024010B58AB000230593B3
:1097700006930793089309930368264A934204D0FB
:10978000254A934222D00AB010BD244C236B43F0EB
:1097900002032363236B03F002030193019B4FF445
:1097A000407305931223069301230793042309931F
:1097B00005A91B4802F02CFA236C43F40013236420
:1097C000236C03F400130293029BDCE7134C236B1E
:1097D00043F080032363236B03F080030393039B15
:1097E0004FF4C073059312230693012307930323B9
:1097F00008930423099305A90A4802F009FA236C87
:1098000043F400032364236C03F400030493049BD8
:10981000B9E700BF00540040005C0040003802403F
:1098200000040240001C024070B58CB00023079376
:10983000089309930A930B9302683E4B9A4201D016
:109840000CB070BD03F550435A6C42F080625A640C
:109850005A6C02F080620192019A1A6B42F0100277
:109860001A631A6B02F010020292029A1A6B42F407
:1098700000721A631A6B02F400720392039A1A6B55
:1098800042F480621A631A6B02F480620492049AB2
:109890001A6B42F040021A631A6B02F04002059202
:1098A000059A1A6B42F480721A631B6B03F480737F
:1098B0000693069B10230793022508950E260B9608
:1098C00007A91D4802F0A4F94EF6FF730793089507
:1098D000002409940A940B9607A9184802F098F9F5
:1098E000F7230793089509940A940B9607A914483F
:1098F00002F08EF94FF480530793089509940A9467
:1099000009230B9307A90F4802F082F94FF446434D
:109910000793089509940A940B9607A90A4802F040
:1099200077F922460521582002F018FB582002F052
:1099300047FB85E700680140001002400024024018
:109940000028024000180240002002402DE9F043A8
:109950008BB000230593069307930893099302683D
:109960002E4B9A4202D00BB0BDE8F0832C4B9A6B81
:1099700042F002029A639A6B02F002020192019A8B
:109980001A6B42F010021A631A6B02F01002029274
:10999000029A1A6B42F002021A631A6B02F0020278
:1099A0000392039A1A6B42F008021A631B6B03F0CE
:1099B00008030493049B4FF00409CDF8149002258A
:1099C0000695032408940926099605A9154802F06E
:1099D0001FF94023059306950027079708940A234B
:1099E0000993DFF8488005A9404602F011F9CDF847
:1099F0001490069507970894099605A9404602F029
:109A000007F94FF460530593069507970894099654
:109A100005A9054802F0FCF8A5E700BF001000A06A
:109A20000038024000100240000C024000040240D6
:109A30000268054B9A4200D07047044A136F43F402
:109A400000431367F8E700BF0028004000380240D9
:109A500070B588B00023039304930593069307938E
:109A600002681E4B9A4201D008B070BD03F58633E0
:109A70005A6C42F400625A645A6C02F4006200921A
:109A8000009A1A6B42F004021A631A6B02F0040285
:109A90000192019A1A6B42F008021A631B6B03F0E1
:109AA00008030293029B4FF4F85303930226049693
:109AB000032506950C2407940DEB0401084802F0D9
:109AC000A7F80423039304960023059306950794AF
:109AD0000DEB0401034802F09BF8C5E7002C0140A0
:109AE00000080240000C024000B589B00023039337
:109AF00004930593069307930368B3F1402F02D0B4
:109B000009B05DF804FB03F5FC331A6C42F48032B3
:109B10001A641A6C02F480320192019A1A6B42F0B4
:109B200008021A631B6B03F008030293029B802355
:109B30000393022304930823079303A9014802F027
:109B400067F8DDE7000C024030B589B000230393CD
:109B5000049305930693079302681C4B9A4201D025
:109B600009B030BD03F500331A6C42F480421A6428
:109B70001A6C02F480420092009A1A6B42F48072CE
:109B80001A631A6B02F480720192019A1A6B42F006
:109B900002021A631B6B03F002030293029B02246E
:109BA000039404940525079503A9094802F030F8A9
:109BB0004FF44043039304940023059306930795C1
:109BC00003A9044802F024F8CAE700BF00380040A7
:109BD000002002400004024086B00368234A9342FA
:109BE00016D0B3F1804F1FD0214A934228D0214A8A
:109BF000934230D0204A934214D1204B5A6C42F009
:109C000002025A645B6C03F002030593059B09E0B2
:109C10001A4B5A6C42F001025A645B6C03F0010368
:109C20000193019B06B0704703F50E331A6C42F0A6
:109C300001021A641B6C03F001030293029BF1E71B
:109C40000E4B1A6C42F002021A641B6C03F0020302
:109C50000393039BE6E7094B1A6C42F008021A646F
:109C60001B6C03F008030493049BDBE70000014036
:109C700000040040000C0040000401400038024095
:109C80000268094B9A4200D0704782B003F508334E
:109C90001A6C42F040021A641B6C03F040030193FB
:109CA000019B02B0704700BF0018004000B58BB0A8
:109CB00000230593069307930893099303683E4A8C
:109CC00093420ED0B3F1804F21D03C4A934235D01D
:109CD0003B4A934246D03B4A934257D00BB05DF883
:109CE00004FB394B1A6B42F001021A631B6B03F041
:109CF00001030093009B4FF48073059302230693A6
:109D00000123099305A9314801F082FFE6E703F535
:109D10000E331A6B42F001021A631B6B03F001034E
:109D20000193019B4FF40043059302230693012303
:109D3000099305A9254801F06BFFCFE7224B1A6B69
:109D400042F002021A631B6B03F002030293029BB0
:109D50001023059302230693099305A91C4801F0DB
:109D600057FFBBE7184B1A6B42F480721A631B6BE8
:109D700003F480730393039B01230593022306934B
:109D8000099305A9134801F043FFA7E70E4B1A6B8F
:109D900042F080021A631B6B03F080030493049B60
:109DA00040230593022306930923099305A90A4832
:109DB00001F02EFF92E700BF0000014000040040C8
:109DC000000C004000180040003802400000024033
:109DD0000004024000200240001C024030B58BB05D
:109DE00000230593069307930893099303682D4A6C
:109DF000934204D02C4A934234D00BB030BD2B4B4D
:109E00005A6C42F010025A645A6C02F0100200922E
:109E1000009A1A6B42F002021A631A6B02F00202F5
:109E20000192019A1A6B42F001021A631B6B03F054
:109E300001030293029B80230593022506950724C4
:109E4000099405A91A4801F0E3FE4FF40073059345
:109E50000695002307930893099405A9154801F076
:109E6000D7FECAE7114B5A6C42F020025A645A6C72
:109E700002F020020392039A1A6B42F004021A6362
:109E80001B6B03F004030493049BC023059302237C
:109E90000693032308930823099305A9064801F0B4
:109EA000B7FEAAE70010014000140140003802404C
:109EB00000040240000002400008024008B5FFF71D
:109EC0004FFA08BD10B588B004460268224B9A428A
:109ED00005D02268214B9A421FD008B010BD204BFC
:109EE0001B684BB91F4A516C41F400015164526C1C
:109EF00002F400020192019A0133194A1360F0231F
:109F00000393022304930023059306930A230793E4
:109F100003A9154801F07CFEDBE7114B1B684BB928
:109F2000104A516C41F400015164526C02F4000279
:109F30000292029A01330A4A13604FF4806303933A
:109F4000022304930023059306930A23079303A98E
:109F5000064801F05DFEC0E7045C0140245C01405E
:109F60001802002000380240002002400018024081
:109F700000B589B000220146362001F0EFFF3620FF
:109F800002F01EF8154B1A6C42F010021A641B6C9A
:109F900003F010030193019B02A903A801F06CFADE
:109FA00001F04AFA43000E48A0FB03239B0C013B3F
:109FB0000C480D4A026040F2E732C2604360002361
:109FC0000361836005F040F918B1012009B05DF824
:109FD00004FB044804F0CAFFF8E700BF0038024061
:109FE00083DE1B432C9700200010004008B5134669
:109FF0000A460146024804F039FA00B1012008BDC2
:10A000000092002008B513460A460146024804F0B3
:10A01000CDFA00B1012008BD0092002008B5034828
:10A0200004F0ACFD043818BF012008BD00920020E8
:10A0300008B50146014804F03DFD08BD009200202E
:10A0400008B500F02FF908BD00B583B001238DF8E5
:10A05000073000F039F910B900238DF807309DF86A
:10A06000070003B05DF804FB10B5FFF7EDFF012812
:10A0700002D00224204610BD074804F0FCFC044630
:10A080000028F7D14FF40061034804F025FD0028B3
:10A09000F0D00124EEE700BF0092002008B5074B86
:10A0A00001221A70FFF7BAFF20B9044A137803F0AF
:10A0B000FE031370014B187808BD00BF000000209C
:10A0C00010B50446164B01221A7007F0F1FC022865
:10A0D00002D0134B187810BDFFF7C6FF88B1104BA4
:10A0E0001B78DBB2012BF4D00E4B1B687BB10D4B00
:10A0F0001B68002BEDD10A4A137843F0010313705B
:10A10000E7E72046FFF7CAFF054B1870E7E7002294
:10A1100002210A2007F0A0FD024B1860E7E700BF0C
:10A12000000000201C02002008B5FFF7B7FF08BDA3
:10A1300038B5054607F0F2FC044607F0EFFC001BBB
:10A14000A84205D2FFF76AFF0028F6D1002001E0FF
:10A150004FF0FF3038BD000070B582B00C46154698
:10A160001E4647F23050FFF7E3FF002829DB324656
:10A1700029462046FFF73AFF08B1012022E047F2C6
:10A18000305300220DF106011048006807F014FE5C
:10A19000D0B9BDF80630012B01D0012012E007F044
:10A1A000BDFC044607F0BAFC001B47F22F5398424F
:10A1B00005D8FFF733FF0028F4D1002002E001208A
:10A1C00000E0012002B070BD0120FBE71C0200206E
:10A1D00070B582B00C4615461E4647F23050FFF768
:10A1E000A7FF002829DB324629462046FFF70AFF51
:10A1F00008B1012022E047F2305300220DF10601A0
:10A200001048006807F0D8FDD0B9BDF80630022B21
:10A2100001D0012012E007F081FC044607F07EFC2B
:10A22000001B47F22F53984205D8FFF7F7FE00288E
:10A23000F4D1002002E0012000E0012002B070BD56
:10A240000120FBE71C020020154B1B7813F0010FC7
:10A2500021D110B588B0144603291ED8DFE801F0DB
:10A2600002050C13002008B010BD6846FFF7E0FEA1
:10A27000069B23600020F6E76846FFF7D9FE079BA0
:10A2800023800020EFE76846FFF7D2FE079B5B0ABA
:10A2900023600020E7E7032070470420E3E700BFC6
:10A2A0000000002000B583B002A9012321F8023D7F
:10A2B00000231A460348006807F02AFD03B05DF842
:10A2C00004FB00BF1C02002008B54FF400510448F5
:10A2D00001F08CFD08B1002008BD0120FCE700BFA3
:10A2E0000008024008B50349034805F025FD034B6B
:10A2F000187008BD70970020F84C01086C9700207A
:10A30000002301330C4A934211D80269002AF8DA7B
:10A31000036943F00103036100230133064A9342BA
:10A3200007D8026912F0010FF7D10020704703200F
:10A3300070470320704700BF400D030084B010B584
:10A34000044603A880E80E00089B012B1DD1A36BD7
:10A3500023F48033A363E268164B1340E360E368A1
:10A3600023F44013E3600F9B012B09D02046FFF735
:10A37000C7FF069B012B14D0BDE8104004B0704706
:10A38000E36843F48013E360F0E7E36843F04003DD
:10A39000E3602046FFF7B4FFA36B43F48033A3636D
:10A3A000E7E7A36843F00603A360A36843F0200334
:10A3B000A360E1E7BFFFBDFF022A0AD00921C268FE
:10A3C00022F47052C260C36843EA8123C360002054
:10A3D0007047274B0B44274A934239D9264B0B44ED
:10A3E000264A934236D9264B0B44264A934233D908
:10A3F000254B0B4402F5C332A03293422ED9234B96
:10A400000B44234A93422BD9224B0B4402F5922250
:10A4100002F57872934225D91F4B0B4402F5C322F3
:10A4200002F5207293421FD91C4B0B4402F5B71260
:10A4300002F55872934219D9194B0B4402F51222B6
:10A4400002F5F862934201D90621B8E70721B6E781
:10A450000F21B4E70E21B2E70D21B0E70C21AEE7E2
:10A460000B21ACE70A21AAE70921A8E70821A6E702
:10A47000405327FFFF340C00401E1BFF3F420F00DC
:10A4800000DC0BFF7F4F1200808CF9FE60B6E5FE0A
:10A490005FE3160000D3CEFEC05BB3FE00CA91FEA0
:10A4A000E05459FE836843F0010383600020704745
:10A4B000836823F0010383600020704708B5C368F8
:10A4C00023F0C043C360012909D069B9C36843F0D0
:10A4D0008043C360322001F09FFD002008BDC368A7
:10A4E00043F00053C360F5E70120F7E7890141F02D
:10A4F0002001016100230133054A934205D8026916
:10A5000012F0200FF7D1002070470320704700BFE2
:10A51000400D03001023036100230133054A9342D9
:10A5200005D8026912F0100FF7D100207047032000
:10A53000704700BF400D0300D0F800381943C0F841
:10A54000001800207047000084B02DE9F041044657
:10A5500007A880E80E002546002306E003F140022C
:10A5600004EB82020021516001330E2BF6D9119BBE
:10A5700033BBD4F8043843F00203C4F80438A36BA7
:10A5800023F40013A363236843F04003236023688C
:10A5900043F0800323600023C4F8003E04F5006606
:10A5A000D4F80038C4F800380C9B012B0DD0032BD5
:10A5B0001CD1099BABB900212046FFF7BDFF19E074
:10A5C000A36B43F40013A363E5E7099B23B90021C0
:10A5D0002046FFF7B1FF0DE001212046FFF7ACFF59
:10A5E00008E001212046FFF7A7FF03E003212046F2
:10A5F000FFF7A2FF10212046FFF778FF804608B141
:10A600004FF001082046FFF785FF08B14FF0010821
:10A61000002333617361F3610AE0C3B94FF0006056
:10A62000C2F8000900220A614FF67F328A600133C6
:10A630000799994210D905EB431202F51061D2F83F
:10A6400000090028E9DB0020C2F80009EAE74FF022
:10A650009040C2F80009E5E700230AE0BBB14FF0E3
:10A660009047C2F8007B002202614FF67F32826081
:10A670000133994210D905EB431202F53060D2F84C
:10A68000007B002FEADB0027C2F8007BEBE74FF0EE
:10A690000067C2F8007BE6E7336923F48073336117
:10A6A0000023A3616FF0804363610A9B1BB9A36918
:10A6B00043F01003A361A2690A4B1343A3610D9BEE
:10A6C0001BB1A36943F00803A361119B012B04D0C4
:10A6D0004046BDE8F04104B07047A269024B134305
:10A6E000A361F5E700383C8004000040D0F808384A
:10A6F00013F0060305D0062B18BF022B03D102204E
:10A700007047002070470F207047000070B40B782E
:10A710004A78012A20D0D0F81C2803F00F06012423
:10A72000B44042EA0442C0F81C2800EB4310D0F8C1
:10A73000003B13F4004F0CD1D0F8002B8B68C3F30F
:10A740000A03C97843EA81431343134A1A43C0F802
:10A75000002B002070BC7047D0F81C4803F00F0697
:10A76000B24092B22243C0F81C2800EB4310D0F84C
:10A77000002912F4004FECD1D0F800498A68C2F3E6
:10A780000A02C97842EA814242EA83532343024AD9
:10A790001A43C0F80029DCE70080001030B40B78C1
:10A7A0004A78012A24D000EB4313D3F8002B002A67
:10A7B00050DBD0F83C580A7802F00F02012404FA6A
:10A7C00002F225EA0242C0F83C28D0F81C28097899
:10A7D00001F00F018C4022EA0444C0F81C48D3F871
:10A7E000001B234A0A40C3F8002B002030BC7047EE
:10A7F00000EB4313D3F80029002A1EDBD0F83C58A5
:10A800000A7802F00F02012404FA02F292B225EA59
:10A810000202C0F83C28D0F81C28097801F00F018A
:10A820008C40A4B222EA0404C0F81C48D3F80019F2
:10A83000104A0A40C3F80029D7E7D3F8002942F0AC
:10A840000062C3F80029D3F8002942F08042C3F81F
:10A850000029D3E7D3F8002B42F00062C3F8002BA5
:10A86000D3F8002B42F08042C3F8002BA1E700BFD1
:10A870000078F3EF007833EC70B40B784C78012C4F
:10A8800024D000EB431000F530631D693E4C2C4092
:10A890001C611D693D4C2C401C614C690CB18C68DD
:10A8A0004C611C6944F400241C611C698D68C5F36B
:10A8B00012052C431C61012A61D0D0F8003B43F003
:10A8C0000443C0F8003B002070BC70474C695CBB7F
:10A8D00000EB4314D4F810692C4D3540C4F81059DE
:10A8E000D4F8105945F40025C4F81059D4F810696B
:10A8F000254D3540C4F81059012A31D000EB4313DF
:10A90000D3F8002942F00442C3F800294B69002B18
:10A91000D9D0D0F83428097801F00F040121A140E2
:10A920000A43C0F83428CEE700EB431404F5106462
:10A930002669154D354025612669144D3540256140
:10A940004E698D68AE4200D94D61256945F40025F8
:10A95000256125694E69C6F3120635432561CBE7AB
:10A960000A691AB100EB4311C1F8142900EB431036
:10A97000D0F8002942F00442C0F80029A3E7CA68D1
:10A98000002A9AD05A6198E70000F8FFFFFF07E01D
:10A9900070B49DF80C4064B903339D0807E000EBE8
:10A9A000023303F5805351F8046B1E600134AC424E
:10A9B000F5D3002070BC7047F0B583B00B784C78AD
:10A9C000012C29D000EB431303F5306426697D4D3B
:10A9D0003540256126697C4D354025614D69002D46
:10A9E00040F0C18025698E68C6F3120635432561A3
:10A9F000256945F400252561012A00F0C980CA783F
:10AA0000012A00F0CB80D3F8002B42F00442C3F8B7
:10AA1000002B002003B0F0BD4C6974BB00EB431465
:10AA2000D4F81069684D3540C4F81059D4F810595D
:10AA300045F40025C4F81059D4F81069614D35402B
:10AA4000C4F81059012A4AD000EB4313D3F8004947
:10AA500044F00444C3F80049CC78012C68D04B6919
:10AA6000002BD6D0D0F83428097801F00F0401214A
:10AA7000A1400A43C0F83428CBE700EB4314D4F8D4
:10AA80001069504D3540C4F81059D4F810694E4D36
:10AA90003540C4F81059D4F810694D698F683D44A9
:10AAA000013DB5FBF7F5494F07EAC5453543C4F805
:10AAB0001059D4F810594E69C6F312063543C4F83C
:10AAC000105904F51064CD78012DBBD1256925F00E
:10AAD000C0452561256945F000552561B2E70A6941
:10AAE0001AB100EB4314C4F81429CA78012A08D01B
:10AAF00000EB4313D3F8002942F00442C3F80029C5
:10AB000087E7D0F8082812F4807F08D100EB4311C2
:10AB1000D1F8002942F00052C1F80029E8E700EB23
:10AB20004311D1F8002942F08052C1F80029DFE733
:10AB3000D0F8084814F4807F0ED1D3F8004944F0CF
:10AB40000054C3F8004914460B46C9681A789B8A1A
:10AB50000094FFF71DFF5CE7D3F8004944F08054F0
:10AB6000C3F80049EFE78E683544013DB5FBF6F5C3
:10AB70002669164F07EAC5473E43266127698E6856
:10AB8000ADB206FB05F5C5F312053D43256133E77C
:10AB9000CA68002A3FF433AF626130E7D0F8082872
:10ABA00012F4807F06D1D3F8002B42F00052C3F894
:10ABB000002B28E7D3F8002B42F08052C3F8002B7B
:10ABC00021E700BF0000F8FFFFFF07E00000F81FCB
:10ABD00003329208002393420CD210B400F5805443
:10ABE000246841F8044B01339342F7D308465DF8DB
:10ABF000044B7047084670470B784A78012A14D0F6
:10AC000000EB4310D0F8002B002A06DB2BB1D0F864
:10AC1000003B23F08043C0F8003BD0F8003B43F4F6
:10AC20000013C0F8003B0020704700EB4310D0F841
:10AC30000029002A06DB2BB1D0F8003923F080432D
:10AC4000C0F80039D0F8003943F40013C0F80039D7
:10AC5000E9E70B784A78012A0ED000EB4310D0F8D0
:10AC6000003B23F40013C0F8003BCB78023BDBB27F
:10AC7000012B15D90020704700EB4310D0F80039A4
:10AC800023F40013C0F80039CB78023BDBB2012B70
:10AC9000F0D8D0F8003943F08053C0F80039E9E724
:10ACA000D0F8003B43F08053C0F8003BE2E7D0F817
:10ACB000003823F4FE63C0F80038D0F800380901EA
:10ACC00001F4FE610B43C0F800380020704708B55E
:10ACD000D0F8043823F00203C0F80438032001F050
:10ACE0009BF9002008BD08B5D0F8043843F00203F2
:10ACF000C0F80438032001F08FF9002008BD426934
:10AD0000806910407047D0F8183800F50060C069BD
:10AD10001840000C7047D0F8183800F50060C06982
:10AD2000184080B2704700EB4111D1F8082B00F5B4
:10AD3000006040691040704710B4D0F81048D0F857
:10AD4000343801F00F02D340DB01DBB2234300EBC8
:10AD5000411000F51060806818405DF8044B7047A2
:10AD6000406900F001007047D0F80029054B1340FE
:10AD7000C0F80039D0F8043843F48073C0F80438C0
:10AD80000020704700F8FFFF10B4046C154B9C4284
:10AD900003D9D0F8003B002B16DB0024C0F8104B81
:10ADA000D0F8104B44F40024C0F8104BD0F8104BEE
:10ADB00044F01804C0F8104BD0F8104B44F0C044D5
:10ADC000C0F8104B012903D000205DF8044B7047F8
:10ADD000C0F8142BD0F8003B43F08023C0F8003BB0
:10ADE000F2E700BF0A30544F002800F0098270B526
:10ADF00082B00446036813F0010F29D0A24B9B6870
:10AE000003F00C03042B1AD09F4B9B6803F00C0338
:10AE1000082B0FD06368B3F5803F40D0002B54D18E
:10AE2000994B1A6822F480321A601A6822F4802240
:10AE30001A6039E0944B5B6813F4800FEAD0924BB0
:10AE40001B6813F4003F03D06368002B00F0DA8125
:10AE5000236813F0020F75D08B4B9B6813F00C0F17
:10AE60005ED0894B9B6803F00C03082B53D0E3683A
:10AE7000002B00F08A80844A136843F001031360BA
:10AE800001F0C4F80546804B1B6813F0020F73D124
:10AE900001F0BCF8401B0228F5D90320B5E17A4A3D
:10AEA000136843F48033136063682BB301F0AEF88A
:10AEB0000546754B1B6813F4003FC9D101F0A6F895
:10AEC000401B6428F5D903209FE1B3F5A02F09D0DA
:10AED0006D4B1A6822F480321A601A6822F48022BC
:10AEE0001A60E1E7684B1A6842F480221A601A6817
:10AEF00042F480321A60D7E701F088F80546624BC9
:10AF00001B6813F4003FA3D001F080F8401B6428B5
:10AF1000F5D9032079E15C4B5B6813F4800FA6D16F
:10AF2000594B1B6813F0020F04D0E368012B01D0CA
:10AF300001206AE1544A136823F0F803216943EAC7
:10AF4000C1031360236813F0080F46D0636983B30D
:10AF50004D4A536F43F00103536701F057F805461C
:10AF6000494B5B6F13F0020F37D101F04FF8401BD4
:10AF70000228F5D9032048E1434A136823F0F80377
:10AF8000216943EAC1031360DCE73F4A136823F0F9
:10AF90000103136001F03AF805463B4B1B6813F0C0
:10AFA000020FCFD001F032F8401B0228F5D9032060
:10AFB0002BE1354A536F23F00103536701F026F864
:10AFC0000546314B5B6F13F0020F06D001F01EF8FF
:10AFD000401B0228F5D9032017E1236813F0040F62
:10AFE0007ED0294B1B6C13F0805F1ED1264B1A6C50
:10AFF00042F080521A641B6C03F080530193019B52
:10B000000125224B1B6813F4807F10D0A368012B0D
:10B0100021D0002B3CD11C4B1A6F22F001021A6781
:10B020001A6F22F004021A671AE00025E9E7174AAE
:10B03000136843F48073136000F0E8FF0646134B77
:10B040001B6813F4807FE1D100F0E0FF801B6428CF
:10B05000F5D90320D9E00C4A136F43F001031367BD
:10B06000A3685BB300F0D2FF0646074B1B6F13F0DB
:10B07000020F34D100F0CAFF801B41F2883398429E
:10B08000F3D90320C1E000BF003802400070004047
:10B09000052B09D0604B1A6F22F001021A671A6F54
:10B0A00022F004021A67DBE75B4B1A6F42F00402DE
:10B0B0001A671A6F42F001021A67D1E700F0A6FF83
:10B0C0000646554B1B6F13F0020F08D000F09EFF91
:10B0D000801B41F288339842F3D9032095E0FDB9F3
:10B0E000A369002B00F090804B4A926802F00C029A
:10B0F000082A58D0022B19D0474A136823F08073CE
:10B10000136000F083FF0446434B1B6813F0007F7D
:10B1100047D000F07BFF001B0228F5D9032074E024
:10B120003D4A136C23F080531364D9E73A4A1368FD
:10B1300023F08073136000F069FF0546364B1B68EF
:10B1400013F0007F06D000F061FF401B0228F5D904
:10B1500003205AE0E369226A1343626A43EA8213D6
:10B16000A26A5208013A43EA0243E26A43EA0263EE
:10B1700043F00053284A5360136843F08073136010
:10B1800000F044FF0446244B1B6813F0007F06D1F7
:10B1900000F03CFF001B0228F5D9032035E0002019
:10B1A00033E0002031E01C4A5268012B2FD002F41A
:10B1B0008003E1698B4201D0012026E002F03F03C9
:10B1C000216A8B4201D001201FE0616A47F6C073FB
:10B1D0001340B3EB811F01D0012016E002F440318F
:10B1E000A36A5B08013BB1EB034F01D001200CE0E7
:10B1F00002F07062E36AB2EB036F0AD0012004E050
:10B2000001207047012000E0002002B070BD012045
:10B21000FBE70020F9E700BF00380240264B9B689F
:10B2200003F00C03042B44D0082B01D023487047B3
:10B230002DE9F04B204B5A6802F03F025B6813F493
:10B24000800F13D01C4B5968C1F3881100231C4890
:10B25000A1FB0001FDF72CF8174B5B68C3F301431A
:10B2600001335B00B0FBF3F0BDE8F08B124B5B6881
:10B27000C3F388131E4600275C010025E41A65EB22
:10B280000705A90141EA9461A001001B61EB0501DA
:10B29000CB0043EA5073C400A01943EB07018B02B3
:10B2A00043EA90538402204619460023FDF700F834
:10B2B000D2E70348704700BF003802400024F40082
:10B2C00040787D01002800F0A38070B50446524B01
:10B2D0001B6803F00F038B420CD24F4A136823F014
:10B2E0000F030B431360136803F00F038B4201D06D
:10B2F000012070BD236813F0020F17D013F0040F64
:10B3000004D0464A936843F4E0539360236813F0F3
:10B31000080F04D0414A936843F4604393603F4A66
:10B32000936823F0F003A068034393600D462368FD
:10B3300013F0010F31D06368012B20D0022B25D0F0
:10B34000364A126812F0020F64D034498A6822F03B
:10B35000030213438B6000F059FE06462F4B9B6897
:10B3600003F00C036268B3EB820F16D000F04EFEC0
:10B37000801B41F288339842F0D90320B9E7274A6D
:10B38000126812F4003FE0D10120B2E7234A1268AC
:10B3900012F0007FD9D10120ABE71F4B1B6803F0EF
:10B3A0000F03AB420CD91C4A136823F00F032B4345
:10B3B0001360136803F00F03AB4201D0012098E73C
:10B3C000236813F0040F06D0144A936823F4E05363
:10B3D000E1680B439360236813F0080F07D00F4A0E
:10B3E000936823F46043216943EAC1039360FFF744
:10B3F00015FF0A4B9B68C3F30313094AD35CD8407B
:10B40000084B1860084B1868FEF7B2FD002070E783
:10B410000120704701206CE7003C024000380240E8
:10B420000C4D01080800002004000020014B1868A2
:10B43000704700BF0800002008B5FFF7F7FF044B76
:10B440009B68C3F38223034AD35CD84008BD00BF86
:10B45000003802401C4D010808B5FFF7E7FF044B18
:10B460009B68C3F34233034AD35CD84008BD00BF96
:10B47000003802401C4D01080F2303600B4B9A68F3
:10B4800002F0030242609A6802F0F00282609A6859
:10B4900002F4E052C2609B68DB0803F4E0530361EE
:10B4A000034B1B6803F00F030B607047003802402A
:10B4B000003C0240F0B583B00446036813F0010F6E
:10B4C0000CD0AF4B9A6822F400029A609A68416BE4
:10B4D0000A439A60436BC3B1002600E0002623684C
:10B4E00013F4002F15D0A64AD2F88C3023F4401361
:10B4F000E16B0B43C2F88C30E36BB3F5801F06D0D1
:10B50000002B00F01B81002504E00126E7E701265F
:10B51000F6E70025236813F4801F0FD0984AD2F86D
:10B520008C3023F44003216C0B43C2F88C30236C25
:10B53000B3F5800F00F0048103B90125236813F0EF
:10B54000807F00D0012613F0200F40F0FB8023689D
:10B5500013F0100F0CD08A4BD3F88C2022F080729D
:10B56000C3F88C20D3F88C20A16B0A43C3F88C203D
:10B57000236813F4804F08D0814AD2F8903023F426
:10B580004033616E0B43C2F89030236813F4004FD0
:10B5900008D07B4AD2F8903023F44023A16E0B43AD
:10B5A000C2F89030236813F4803F08D0744AD2F870
:10B5B000903023F44013E16E0B43C2F890302368BF
:10B5C00013F4003F08D06E4AD2F8903023F44003C1
:10B5D000216F0B43C2F89030236813F0400F08D05E
:10B5E000674AD2F8903023F00303616C0B43C2F832
:10B5F0009030236813F0800F08D0614AD2F8903061
:10B6000023F00C03A16C0B43C2F89030236813F4B1
:10B61000807F08D05A4AD2F8903023F03003E16C92
:10B620000B43C2F89030236813F4007F08D0544ACB
:10B63000D2F8903023F0C003216D0B43C2F8903054
:10B64000236813F4806F08D04D4AD2F8903023F469
:10B650004073616D0B43C2F89030236813F4006FA0
:10B6600008D0474AD2F8903023F44063A16D0B43D1
:10B67000C2F89030236813F4805F08D0404AD2F8B3
:10B68000903023F44053E16D0B43C2F890302368AF
:10B6900013F4005F08D03A4AD2F8903023F44043C4
:10B6A000216E0B43C2F89030236813F4800F08D04A
:10B6B000334AD2F8903023F08063A16F0B43C2F875
:10B6C0009030236813F4001F0DD02D4AD2F890302B
:10B6D00023F00063E16F0B43C2F89030E36FB3F1E6
:10B6E000006F00F09980236813F0080F00D0012547
:10B6F00013F4802F08D0224AD2F8903023F0407300
:10B70000616F0B43C2F89030236813F4000F09D027
:10B710001B4AD2F8903023F08053D4F880100B43AA
:10B72000C2F89030002E79D12368B3F1007F75D034
:10B73000002D40F00681002003B0F0BD0125E9E6B0
:10B740000126F9E60E4B1A6C42F080521A641B6C0B
:10B7500003F080530193019B0A4A136843F48073FA
:10B76000136000F053FC0746064B1B6813F4807F00
:10B770000AD100F04BFCC01B6428F5D90320DBE79D
:10B780000038024000700040B34B1B6F13F440734D
:10B7900015D0226B02F440729A4210D0AE4B1A6F51
:10B7A00022F44072196F41F480311967196F21F446
:10B7B000803119671A671B6F13F0010F12D1236BC9
:10B7C00003F44072B2F5407F1DD0A34A936823F47E
:10B7D000F8139360A0490B6F226BC2F30B02134363
:10B7E0000B67B4E600F012FC07469B4B1B6F13F08F
:10B7F000020FE4D100F00AFCC01B41F288339842EA
:10B80000F3D9032098E79448826822F4F812934908
:10B8100019400A438260DDE7012564E78E4A136818
:10B8200023F08063136000F0F1FB06468A4B1B682F
:10B8300013F0006F06D000F0E9FB801B6428F5D9F7
:10B84000032079E7236813F0010F13D0636B8BB9E2
:10B85000814AD2F88430D2F88410606803F440330F
:10B8600043EA801301F070610B43A16843EA01735E
:10B87000C2F88430236813F4002F03D0E26BB2F5D2
:10B88000801F06D013F4801F1ED0236CB3F5800FE9
:10B890001AD1714AD2F88430D2F88410606803F467
:10B8A000403343EA8013E06843EA006301F0E0417B
:10B8B0000B43C2F88430D2F88C3023F01F03616A46
:10B8C00001390B43C2F88C30236813F0807F11D00C
:10B8D000614AD2F88400D2F88410666823691B0498
:10B8E00043EA861300F07060034301F0E0410B432C
:10B8F000C2F88430236813F0007F0DD0626823699A
:10B900001B0443EA8213E26843EA0263A26843EA43
:10B910000273514AC2F884304F4A136843F080637F
:10B92000136000F073FB06464B4B1B6813F0006F6F
:10B930007FF4FEAE00F06AFB801B6428F4D903207C
:10B94000FAE6454A136823F08053136000F05EFB6B
:10B950000546414B1B6813F0005F06D000F056FB14
:10B96000401B6428F5D90320E6E6236813F4002F72
:10B9700001D0E26B22B113F4801F1DD0236CDBB920
:10B98000354AD2F88830D2F88810606903F4403321
:10B9900043EA8013A06943EA006301F0E0410B43EE
:10B9A000C2F88830D2F88C3023F4F853A16A0139F8
:10B9B00043EA0123C2F88C30236813F4001F03D03C
:10B9C000E36FB3F1006F31D0236813F0080F19D083
:10B9D000214AD2F88810D2F88830606903F44033E5
:10B9E00043EA801301F070610B43E16943EA01739C
:10B9F000C2F88830D2F88C3023F44033E16A0B432C
:10BA0000C2F88C30144A136843F08053136000F07E
:10BA1000FDFA0446104B1B6813F0005F19D100F0CB
:10BA2000F5FA001B6428F5D9032085E60A4AD2F806
:10BA30008800D2F888106569236A1B0443EA8513DD
:10BA400000F07060034301F0E0410B43C2F888301E
:10BA5000BAE7002070E600BF00380240FFFCFF0F8D
:10BA600010B4B0F5002F07D00023B0F5801F65D0CB
:10BA700018465DF8044B7047614BD3F88C3003F4E3
:10BA80004013B3F5801F2ED0B3F5001F54D00BB177
:10BA90000023EAE75A4B5B6813F4800F1BD1584B25
:10BAA0005A6802F03F02574BB3FBF2F3544AD2F804
:10BAB0008810C1F30361D2F88840C4F3881403FBF3
:10BAC00004F3B3FBF1F3D2F88C20C2F30422013269
:10BAD000B3FBF2F3C9E74A4B5A6802F03F024A4B04
:10BAE000B3FBF2F3E2E7464B5B6813F4800F1BD124
:10BAF000434B5A6802F03F02424BB3FBF2F3404A19
:10BB0000D2F88410C1F30361D2F88440C4F38814DE
:10BB100003FB04F3B3FBF1F3D2F88C2002F01F0215
:10BB20000132B3FBF2F3A0E7354B5A6802F03F0253
:10BB3000354BB3FBF2F3E2E7344B96E7304AD2F8E9
:10BB40008C2002F44002B2F5800F2DD0B2F5000F28
:10BB500053D0002A8CD12A4B5B6813F4800F1BD181
:10BB6000274B5A6802F03F02264BB3FBF2F3244AFC
:10BB7000D2F88800C0F30360D2F88810C1F38811AE
:10BB800003FB01F3B3FBF0F3D2F88C00C0F3042005
:10BB90000130B3FBF0F36BE7194B5A6802F03F0238
:10BBA000194BB3FBF2F3E2E7154B5B6813F4800F1C
:10BBB0001BD1134B5A6802F03F02124BB3FBF2F356
:10BBC0000F4AD2F88400C0F30360D2F88410C1F3A6
:10BBD000881103FB01F3B3FBF0F3D2F88C0000F003
:10BBE0001F000130B3FBF0F342E7054B5A6802F047
:10BBF0003F02054BB3FBF2F3E2E7044B38E700BF2B
:10BC0000003802400024F40040787D010080BB0031
:10BC100000230F2B00F2E180F0B583B039E0092258
:10BC200000E00022B2403A4302346C4E46F8242031
:10BC30006B4A1468EA4302EA04064F6817F4803F2F
:10BC400001D045EA0406664C2660646802EA0406F0
:10BC50004F6817F4003F01D045EA0406604C666067
:10BC6000A46802EA04064F6817F4801F01D045EA71
:10BC700004065B4CA660E46822404E6816F4001F80
:10BC800001D045EA0402564CE26001330F2B00F26A
:10BC9000A28001229A400C6804EA0205AA42F4D16B
:10BCA0004C68661E112C18BF012E01D9122C12D11E
:10BCB00086685F000324BC4026EA0406CC68BC40CA
:10BCC00034438460466826EA02064C68C4F30012D6
:10BCD0009A4032434260C2685F000326BE40F6438A
:10BCE00032408C68BC401443C4604A68122A18BFB2
:10BCF000022A13D1DC08083450F824E003F00702CC
:10BD00004FEA820C0F2202FA0CF22EEA020E0A69A6
:10BD100002FA0CF242EA0E0240F8242002681640B1
:10BD20004A6802F00302BA40324302604A6812F0E5
:10BD3000805FAAD02B4A546C44F480445464526C03
:10BD400002F480420192019A9C08A61C234A52F8F0
:10BD5000267003F0030296000F22B24027EA020782
:10BD6000214A90423FF45DAF02F58062904222D0BA
:10BD700002F58062904220D002F5806290421ED08F
:10BD800002F5806290421CD002F5806290421AD087
:10BD900002F58062904218D002F58062904216D07F
:10BDA00002F58062904214D002F5806290423FF426
:10BDB00036AF0A2236E7012234E7022232E70322B5
:10BDC00030E704222EE705222CE706222AE7072285
:10BDD00028E7082226E703B0F0BD7047003801408D
:10BDE000003C014000380240000002400369194253
:10BDF00001D1002070470120704712B90904816108
:10BE000070478161704730B405682C6824F4802441
:10BE10002C60046863608368402B05D003689960D8
:10BE20000368DA6030BC704703689A600368D960C1
:10BE3000F8E738B5856D90F83440012C31D00124F5
:10BE400080F8344090F83540E4B2012C04D000234F
:10BE500080F83430022038BD0446022084F83500D2
:10BE6000002060652046FFF7CEFFE26D3F23934040
:10BE7000AB602268136843F01603136022685369AD
:10BE800043F080035361236C23B12268136843F0AD
:10BE9000080313602268136843F001031360002055
:10BEA000D9E70220D7E7406D70470000024A1368C7
:10BEB00043F48073136070470070004010B582B087
:10BEC0001B4B1A6C42F080521A641B6C03F08053B7
:10BED0000193019B174A136843F48033136000F009
:10BEE00095F80446134B5B6813F4803F08D100F0CB
:10BEF0008DF8001BB0F57A7FF4D9032002B010BD95
:10BF00000C4A136843F40033136000F07FF80446D2
:10BF1000084B5B6813F4003F07D100F077F8001B73
:10BF2000B0F57A7FF4D90320E8E70020E6E700BF08
:10BF300000380240007000400649CB6823F4E063FB
:10BF40001B041B0C000200F4E0600343024A1A4386
:10BF5000CA60704700ED00E00000FA0530B4154BF0
:10BF6000DB68C3F30223C3F10704042C28BF0424B5
:10BF70001D1D062D14D9033B4FF0FF3505FA04F4BF
:10BF800021EA0401994005FA03F322EA0303194365
:10BF9000002807DB0901C9B2074B195430BC7047B0
:10BFA0000023E9E700F00F000901C9B2034B19545F
:10BFB000F4E700BF00ED00E000E400E014ED00E075
:10BFC000002807DB00F01F02400901239340024ACA
:10BFD00042F82030704700BF00E100E008B50320C0
:10BFE000FFF7AAFF0020FDF7C3FFFDF727FA0020A7
:10BFF00008BD0000034A1168034B1B780B44136013
:10C00000704700BFD89B002001000020014B18683A
:10C01000704700BFD89B002038B50446FFF7F6FFF5
:10C020000546B4F1FF3F02D0044B1B781C44FFF7D8
:10C03000EDFF401BA042FAD338BD00BF0100002035
:10C04000002857D010B5044690F84130002B41D05D
:10C05000242384F841302268136823F0010313601D
:10C060006368226823F0706313612268936823F485
:10C0700000439360E368012B31D0A368226843F446
:10C0800004439360E368022B2FD0226851681A4B57
:10C090000B4353602268D36823F40043D3602369C1
:10C0A00062691343A169226843EA0123D360E3690B
:10C0B000216A22680B4313602268136843F001036E
:10C0C000136000206064202384F84130206384F8EA
:10C0D000420010BD80F84030FDF746FBB8E7A3688A
:10C0E000226843F400439360CCE723684FF4006276
:10C0F0005A60CAE7012070470080000290F8413082
:10C10000DBB2202B24D190F84030012B22D0012328
:10C1100080F84030242380F841300268136823F00F
:10C12000010313600268136823F4805313600268EC
:10C130001368194311600268136843F00103136028
:10C14000202380F84130002380F8403018467047A3
:10C15000022070470220704790F84130DBB2202B5C
:10C1600022D190F84030012B20D0012380F84030BC
:10C17000242380F841300268136823F00103136020
:10C180000268136823F4706343EA012111600268B6
:10C19000136843F001031360202380F8413000232B
:10C1A00080F84030184670470220704702207047E0
:10C1B0004A4B5A6822F440325A605A6841680A432E
:10C1C0005A600268536823F48073536002685368AE
:10C1D000016943EA012353600268536823F0407306
:10C1E00053600268536881680B4353600268936828
:10C1F00023F40063936002689368C1680B43936003
:10C20000826A374B9A424BD00268936823F070637E
:10C21000936002689368816A0B4393600268936835
:10C2200023F04053936002689368C16A0B439360A4
:10C230000268936823F0020393600268936881693F
:10C2400043EA4103936090F82030002B33D1026819
:10C25000536823F4006353600268D36A23F47003C5
:10C26000D3620168CB6AC269013A43EA0253CB62E6
:10C270000268936823F4007393600268936890F8EF
:10C28000301043EA412393600268936823F480638B
:10C29000936002689368416943EA81239360704721
:10C2A0000268936823F0706393600268936823F0D8
:10C2B00040539360BCE70268536843F400635360E3
:10C2C0000268536823F46043536001684B68426A14
:10C2D000013A43EA42334B60BEE700BF002301400E
:10C2E0000100000F28B310B50446036C43B1236C62
:10C2F00013F0100F0BD00120002384F83C3010BD48
:10C30000FDF7BCF80023636484F83C30EFE7226C4F
:10C31000094B134043F0020323642046FFF748FF14
:10C3200000206064236C23F0030343F001032364C3
:10C33000E2E70120704700BFFDEEFFFF30B482B09E
:10C340000023019390F83C30012B00F0D1800123B1
:10C3500080F83C300B68B3F1004F18BF092B22D98D
:10C360000568EA689BB203EB43031E3B072404FA0B
:10C3700003F322EA0303EB600B685E4A93420BD09F
:10C380000568EA688C689BB203EB43031E3B04FA22
:10C3900003F31343EB601BE00268D3688C6843EA45
:10C3A0000463D36014E005682A699BB203EB43037E
:10C3B000072404FA03F322EA03032B6105682A69C0
:10C3C0008C680B8803EB430304FA03F313432B61DC
:10C3D0004B68062B28D805686A6B03EB8303053B83
:10C3E0001F2404FA03F322EA03036B6305686A6BF4
:10C3F0004B6803EB8303053B0C8804FA03F31343F8
:10C400006B6302683C4B9A423ED002683A4B9A42B8
:10C4100044D00268384B9A4249D0002380F83C301F
:10C42000184602B030BC70470C2B16D805682A6B32
:10C4300003EB8303233B1F2404FA03F322EA0303E1
:10C440002B6305682A6B4B6803EB8303233B0C8843
:10C4500004FA03F313432B63D3E70568EA6A03EB9B
:10C460008303413B1F2404FA03F322EA0303EB6234
:10C470000568EA6A4B6803EB8303413B0C8804FAC6
:10C4800003F31343EB62BCE70B68B3F1004FBCD17D
:10C490001A4A536823F440035360B6E70B68122B23
:10C4A000B7D1164A536843F480035360B1E70B6871
:10C4B000104A112B18BF9342AFD1104A536843F46E
:10C4C000000353600A680B4B9A42A6D10C4B1B68C1
:10C4D0000C4AA2FB03239B0C03EB83035A0001923B
:10C4E00002E0019B013B0193019B002BF9D194E7F2
:10C4F000022096E7120000100020014000230140B6
:10C500000800002083DE1B43002838D010B5044605
:10C51000437F1BB30223637723791BBB2368194A2C
:10C520005A612268936823F018039360637913BB00
:10C5300023684FF0FF321A612268936823F060038A
:10C5400061690B4393602268936823F08003A169BB
:10C550000B43936001236377002010BD0377FCF742
:10C56000D1FFD7E7E268A168204600F00DF8002867
:10C57000DCD00120F1E7236822691A61DCE70120A1
:10C58000704700BFB71DC10430B41F24651E3CB105
:10C5900005F01F0321FA03F32C4613F0010FF5D029
:10C5A000182A23D8DFE802F00F2222222222222298
:10C5B0001E222222222222221A2222222222222267
:10C5C0000D00062D14D80368596101688B6823F0AB
:10C5D00018031A438A60002030BC7047072DF2D937
:10C5E0000120F9E70F2DEED90120F5E70120F3E74F
:10C5F0000120F1E7002848D010B5044690F8353006
:10C60000002B32D0022384F83530A3690BB100230C
:10C610006362226811681E4B0B4013602268116828
:10C62000636860690343E068034320690343A068CB
:10C630000343A0690343206A0343606A0343A06A7B
:10C640000343E06A0343206B03430B4313606368B7
:10C65000102B0DD02268D36843F01E03D360002056
:10C66000E064012384F8353010BDFCF761FFC9E7B1
:10C67000237F627F43EA0223A27F43EA0243E17FF2
:10C68000226843EA01639361E4E70120704700BF39
:10C6900007F0E0FF38B310B5044690F83930EBB13D
:10C6A000022384F839302268136823F44033616828
:10C6B0000B4313602268536B23F00703A1680B43FD
:10C6C00053632268116C094B0B40E1680B43136400
:10C6D0000020E063012384F8393010BD80F8383041
:10C6E000FCF7B0FFDCE70120704700BF00C0FFFF90
:10C6F0007047704770B5044603685D681E6815F0A2
:10C70000010F16D016F4807F13D01A6822F48072BD
:10C710001A60C36B43F00103C363036801229A608C
:10C72000042380F83930002380F83830436903B19E
:10C73000984715F0200F18D016F4005F15D0226826
:10C74000136823F400531360236820229A60E36B7C
:10C7500043F00203E363042384F83930002384F8B0
:10C76000383063690BB12046984715F0080F18D090
:10C7700016F4006F15D02268136823F40063136069
:10C78000236808229A60E36B43F00403E363042305
:10C7900084F83930002384F8383063690BB12046BF
:10C7A000984715F0040F02D016F4806F20D115F0D1
:10C7B000020F16D016F4007F13D02268136823F4FA
:10C7C00000731360236802229A60E36BE363012322
:10C7D00084F83930002384F8383023690BB12046BF
:10C7E000984715F0100F02D016F4805F0CD170BD81
:10C7F0002268136823F480631360236804229A601C
:10C800002046FFF775FFD2E72268136823F48053B0
:10C810001360236810229A60E36BE363012384F8BA
:10C820003930002384F838302046FFF762FFDEE716
:10C8300090F83830012B59D030B4012380F83830CB
:10C84000022380F8393000EB0113DA698B1C1B01DD
:10C85000C35842EA0343093A012A1ED98A1C00EB55
:10C860000212526843EA026341BB0468656A204AC7
:10C870002A4013436362026800EB01139C699461D0
:10C88000DB69093B012B10D9012380F839300023E3
:10C8900080F83830184630BC70478A1C00EB021212
:10C8A000526802F07F421343DEE7023100EB0111D0
:10C8B0004B68026823F07F439362E5E70468E5690B
:10C8C0000B4A2A401343E361026800EB01139C69A1
:10C8D0001461DB69093B012BD6D8023100EB011151
:10C8E0004B68026823F07F431362CDE70220704754
:10C8F000F0FFFC005079137943EA002307480B50FE
:10C90000D07893781B0443EA0063507843EA00230D
:10C9100012781343024A8B50704700BF4080024098
:10C920004480024070B59EB0044629B14FF40063C4
:10C93000C3604FF480438360E369002B68D14FF4F8
:10C940008063079321680B68374A1A40A368E06840
:10C9500003430798034343F4007313430B602368B6
:10C960001D680120FFF758FB23681D6023684022E3
:10C970005A6023685D680120FFF74EFB23685D6005
:10C98000236800259D602368DD602268936923F099
:10C99000BE031B041B0C43F08003936123689E6954
:10C9A0000120FFF739FB23689E612368DD6123685E
:10C9B000DD690120FFF730FB2368DD61216841F26A
:10C9C00018054B59194A1A40194B13434B51236808
:10C9D0005E590120FFF720FB23685E51236803F5B1
:10C9E0008053144A1A60236803F580531D680120A0
:10C9F000FFF712FB236803F580531D60A369012B29
:10CA000009D0626900212046FFF774FF1EB070BD97
:10CA10000023079396E7216841F21C028858064BD1
:10CA200003438B50EDE700BF0F8120FF233FDEF86B
:10CA3000040020028020C10240000100F8B590F8F7
:10CA40004430DBB2822B33D016460546822380F871
:10CA500044300268136903F01C03048AE402A4B2A0
:10CA600023438C0104F4F8641C4344F00104146172
:10CA7000FFF7CCFA074614F0010F10D0FFF7C6FA03
:10CA8000C01BB0F5803F02D22B681C69F3E701237D
:10CA900085F84430002385F84530032007E02B68F3
:10CAA0005B699BB23360012385F844300020F8BDF8
:10CAB0000220FCE790F84430DBB2422B32D070B554
:10CAC0000546422380F844300068036903F01C03E4
:10CAD0002C8AE402A4B223438C0104F4F8641C43BE
:10CAE00044F0030492B242612B681C61FFF78EFA96
:10CAF000064614F0010F10D0FFF788FA801BB0F53E
:10CB0000803F02D22B681C69F3E7012385F844308B
:10CB1000002385F84530032003E0012385F84430E5
:10CB2000002070BD0220704770B582B000230193D1
:10CB3000002800F00D81044690F84430002B32D0DC
:10CB4000844B5A6C42F480425A645B6C03F4804319
:10CB50000093009B804B5A6822F400025A605A6886
:10CB6000216A0A435A60236803F580531A6842F029
:10CB700001021A60FFF74AFA0546236803F580525E
:10CB8000126812F0010F13D0FFF740FA401BB0F506
:10CB9000FA7FF2D9032584F84450002384F8453005
:10CBA000284602B070BD80F84530FCF76BFDC7E742
:10CBB0001D6925F01C05FEF739FC684B0344684AE3
:10CBC000934256D845F0080523681D614FF4004292
:10CBD00000212046FFF76EFF0546002861D140F690
:10CBE000FF70FFF719FA6368002B00F09180FFF7E0
:10CBF0000DFA064601AA01212046FFF71FFFFFF7A5
:10CC000005FA801B41F28833984252D8019B13F0F9
:10CC1000040FEFD04FF4805200212046FFF74AFF67
:10CC2000002852D1FFF7F2F9064601AA0121204659
:10CC3000FFF704FFFFF7EAF9801B41F288339842BF
:10CC40004BD8019B13F0200FEFD001AA1F212046E3
:10CC5000FFF7F4FE00284CD1019B13F0100F50D0C9
:10CC60004FF40062E26013F0040F4DD00023A36084
:10CC70005EE03C4B03443C4A934202D845F00C052D
:10CC8000A2E73A4B03443A4A93429DD9394B0344B5
:10CC9000394A934202D845F0040595E745F010055E
:10CCA00092E701212046FFF73DFE012584F844501C
:10CCB00076E701212046FFF735FE012384F8443052
:10CCC000002384F8453003256AE701212046FFF759
:10CCD00029FE012584F8445062E701212046FFF730
:10CCE00021FE012384F84430002384F845300325D5
:10CCF00056E701212046FFF715FE012584F8445030
:10CD00004EE70022E260AEE74FF48043A3600FE0FD
:10CD1000E268C2F3CF02A368C3F34F031A430021B2
:10CD20002046FFF7C7FE58B940F6FF70FFF774F9C9
:10CD300000212046FFF7F6FD012384F844302FE759
:10CD400001212046FFF7EEFD012584F8445027E736
:10CD5000012525E7003802400038014000D3CEFE0F
:10CD6000BFE1E40040F1E9FD3F787D0100796CFC12
:10CD7000FF596202001F0AFA7FF0FA0230B40B6812
:10CD8000012B18D00368194A1A404B688C6823435A
:10CD9000CC6823430C6923434C6923438C692343A8
:10CDA000CC6923430C6A2343496A0B431343036052
:10CDB000002030BC7047046824F4F844CB690A6A48
:10CDC0001A434B6A1A4322434368084C1C404B6881
:10CDD0008D682B43CD682B430D692B434D692B4345
:10CDE00089690B43234302604360E1E70080FFFF52
:10CDF00030B4012A21D0826802F070420B68013BF6
:10CE00004C68013C43EA04138C68013C43EA042368
:10CE1000CC68013C43EA04330C69013C43EA044317
:10CE20004C69013C43EA04538969013943EA0163CF
:10CE300013438360002030BC70478368114C1C4052
:10CE4000CA68551E4B695A1E120542EA0532224332
:10CE5000C46804F070440B68013B4D68013D43EA2F
:10CE600005138D68013D43EA05230D69013D43EA41
:10CE700005438969013943EA016323438260C36042
:10CE8000D8E700BFFF0F0FFFD8B138B504460D46F5
:10CE900090F82C3083B1022384F82C30211D2068B7
:10CEA000FFF76CFF626829462068FFF7A1FF0123A6
:10CEB00084F82C30002038BD80F82D30FCF7FEFFC0
:10CEC000E9E7012070470000F0B44D680468E368AA
:10CED000C3F30B431D44D2011444D4F8883003F447
:10CEE0007043C4F888300B680468E668C6F30B46E4
:10CEF00033440133144443EA0543C4F88830CD6811
:10CF00000468E368C3F30A031D441444D4F88C3066
:10CF100003F47043C4F88C308B680468E668C6F389
:10CF20000A0633440133144443EA0543C4F88C3001
:10CF300003681344D3F8944024F00704C3F89440E2
:10CF4000036813440C69C3F8944091F831C091F818
:10CF500032708E6905681544D5F89C300024C5F8F8
:10CF60009C4091F8303043EA0C2343EA07430568BC
:10CF7000154443EA0663C5F89C3003681344D3F8AC
:10CF8000985025F0FF05C3F89850036813444D6985
:10CF9000C3F8985003681344D3F8A0602D4D354072
:10CFA000C3F8A050CD690E6A036813443543C3F833
:10CFB000A05003681344D3F8AC50C3F8AC400368E6
:10CFC00013444C6AC3F8AC400B696BB1012B3AD0E7
:10CFD000022B18BF042B38D0032B38D0072B01D0DD
:10CFE000012302E0022300E0042304681444D4F87F
:10CFF000B05005F0E025C4F8B0508C6A03FB04F58E
:10D000004C680E68A41B03FB04F303330468144448
:10D0100043EA0543C4F8B03003681344D3F8B4506E
:10D020000D4C2C40C3F8B44003681344C96AC3F8DC
:10D03000B41003681A44D2F8843043F00103C2F8F4
:10D040008430F0BC70470323CFE70223CDE70223EF
:10D05000CBE700BFF8F8FFFF00F8FFFF002872D011
:10D0600038B5044690F8A130002B67D0022384F82D
:10D07000A1302268936923F07043936121688A6923
:10D080006368A0680343E0680343206903431343D4
:10D090008B6121688A682D4B1A408A606569206817
:10D0A0008268A16941EA05410A4382602168CA6831
:10D0B0001A40CA60E5692068C268216A41EA0541F0
:10D0C0000A43C26021680A691A400A61656A2068D9
:10D0D0000269A16A41EA05410A43026121684A697D
:10D0E00013404B61E06A21684B69226B42EA0042BF
:10D0F00013434B6194F8350094F836301B042168D3
:10D10000CA6A02F07F42CA622168CA6A43EA0023FF
:10D1100094F8340003431343CB622268536B43F00B
:10D12000060353632268936943F00103936100206F
:10D13000C4F8A400012384F8A13038BD80F8A030E1
:10D14000FCF772FB92E70120704700BF00F800F087
:10D1500070477047704770B5044603689D6B5E6BFF
:10D1600015F0040F02D016F0040F12D115F0020FC3
:10D1700002D016F0020F21D115F0010F02D016F0E7
:10D18000010F32D115F0080F02D016F0080F3DD173
:10D1900070BD5A6B22F004025A6303680422DA63FA
:10D1A000D0F8A43043F00103C0F8A43080F8A120E7
:10D1B000002380F8A030FFF7CBFFD7E72268536B3E
:10D1C00023F00203536323680222DA63D4F8A43005
:10D1D0001343C4F8A430042384F8A130002384F856
:10D1E000A0302046FFF7B4FFC6E72268536B23F058
:10D1F0000103536322680123D36384F8A130002321
:10D2000084F8A0302046FFF7A4FFBBE72268536BE9
:10D2100023F00803536323680822DA63012384F8A8
:10D22000A130002384F8A0302046FFF793FFAFE73A
:10D2300090F8A030012B27D02DE9F04194460F46FD
:10D2400006464FF0010880F8A080022380F8A13044
:10D25000342404FB020438340D460FCD0FC40FCD27
:10D260000FC40FCD0FC42B68236062463946304689
:10D27000FFF72AFE3368C3F8248086F8A1800020D7
:10D2800086F8A000BDE8F081022070472DE9F0414A
:10D2900005460F4616469846069C2B689B683B42FF
:10D2A00014BF01230023B34213D0B4F1FF3FF4D0E5
:10D2B000FEF7ACFEA0EB0800A04201D8002CECD198
:10D2C000042385F841306B6C43F001036B6401204B
:10D2D00000E00020BDE8F0818164704730B583B084
:10D2E0000446FEF793FE002C4CD0054694F84130DE
:10D2F000002B3CD021680B6823F4F853A268013A54
:10D3000043EA02230B60A36C00932B4600222021EA
:10D310002046FFF7BBFF014618BB206803681A4A86
:10D320001A406568E36843EA0563E5692B43256AAB
:10D330002B431343036020684268144B1340256954
:10D34000626942EA0542A5692A43134343602268A1
:10D35000136843F00103136000236364012384F81E
:10D360004130002384F84030084603B030BD84F8D3
:10D3700040302046FCF7EAFA41F288312046FFF7B8
:10D38000ABFFB7E70121EFE72FFFFF00FEF8E0FF5B
:10D3900038B504460268D36823F0A003D360FEF7D3
:10D3A00035FE05462368DB6813F0200F07D1FEF732
:10D3B0002DFE401BB0F57A7FF4D9032000E0002059
:10D3C00038BD38B50368DA6812F0400F01D000208C
:10D3D00038BD04464FF0FF32DA60FEF717FE05460F
:10D3E0002368DB6813F0400F07D1FEF70FFE401BE8
:10D3F000B0F57A7FF4D90320EAE70020E8E70000DF
:10D4000000284AD038B50446437F002B3AD0022387
:10D4100063772368CA225A62236853225A622046DD
:10D42000FFF7CFFF0246002830D1216888681C4BE7
:10D4300003408B6020688168636825692B436569B8
:10D440002B430B4383602368E168196121680B69F2
:10D45000A06843EA00430B612168CB6823F0800396
:10D46000CB602168CB6C23F00803CB642168CB6CC4
:10D47000A0690343CB642368FF21596201236377CA
:10D48000104638BD0377FCF7D3FAC0E72368FF22C4
:10D490005A62042363770122F2E7012210467047A3
:10D4A000BFFF8FFF002302E001330A38C0B2092812
:10D4B000FAD81B01DBB2184370470000F8B5037FB0
:10D4C000012B76D00D4604460123037702234377D0
:10D4D000002A44D103689B6813F0400F01D1002358
:10D4E0000B732878FFF7DEFF06046878FFF7DAFF92
:10D4F00046EA0026A878FFF7D5FF0643287B46EAD0
:10D5000000462368CA225A62236853225A62204680
:10D51000FFF757FF0746002833D12268264B3340D8
:10D5200013602268936823F48023936021688B68DA
:10D530002A696869024313438B602268D36823F029
:10D540008003D36023689B6813F0200F23D02368E7
:10D55000FF225A62012363770023237719E00368CF
:10D560009B6813F0400F01D100230B7328786E786D
:10D57000360246EA0046A8780643287B46EA00467B
:10D58000BFE72368FF225A620423637700232377CF
:10D5900001273846F8BD2046FFF7FAFE0028D6D00E
:10D5A0002368FF225A62042363770023237701272D
:10D5B000EFE70227EDE700BF7F7F7F0070B5037FB5
:10D5C000012B64D001230377022343773AB94B78C8
:10D5D00013F0100F03D003F0EF030A334B700E4625
:10D5E0000446002A30D1C878FFF75CFF0504707844
:10D5F000FFF758FF45EA0025B078FFF753FF0543D2
:10D60000307845EA40352368CA225A62236853229B
:10D610005A622046FFF7D5FE064600BB22681D4B26
:10D620002B4053602268D36823F08003D3602368C3
:10D630009B6813F0200F1CD02368FF225A6201233D
:10D6400063770023237712E0C8784D782D0245EAEE
:10D65000004588780543087845EA4035D3E72368D4
:10D66000FF225A6204236377002323770126304682
:10D6700070BD2046FFF78CFE0028DDD02368FF2216
:10D680005A6204236377002323770126EFE70226FB
:10D69000EDE700BF3FFFFF00F8B5037F012B00F06F
:10D6A000A9800D4604460123037702234377002A0D
:10D6B0004DD103689B6813F0400F01D100230B7319
:10D6C0002E6A2878FFF7EEFE07046878FFF7EAFE77
:10D6D00047EA0027A878FFF7E5FE0743287B47EADB
:10D6E000004795F82400FFF7DDFE47EA0060064397
:10D6F000AB691E436F68EB691F432368CA225A62F5
:10D70000236853225A62AB6AB3F5807F39D022680E
:10D71000936823F4007393602268936823F40053A2
:10D720009360FEF773FC05462368DA6812F0020F77
:10D7300050D1FEF76BFC401BB0F57A7FF4D923681B
:10D74000FF225A62032060770023237751E00368A9
:10D750009B6813F0400F01D100230B732A6A2978CC
:10D760006B781B0243EA0143A9780B43297B43EA08
:10D77000014395F8241043EA01631343AE691E4345
:10D78000B8E72268936823F48073936022689368F3
:10D7900023F480539360FEF739FC05462368DA686A
:10D7A00012F0010F0DD1FEF731FC401BB0F57A7F6E
:10D7B000F4D92368FF225A6203206077002323777D
:10D7C00017E0DE6123685F642268936843F4807326
:10D7D000936007E01E6223689F642268936843F4A5
:10D7E000007393602368FF225A620123637700204D
:10D7F0002077F8BD0220FCE770B4047F012C27D00D
:10D8000001240477022343770568AE68A3F60B036F
:10D8100033401943CA236B62036853255D62056870
:10D82000EB6C23F00603EB640568EB6C1A43EA64C7
:10D83000036899600268936843F400639360036827
:10D84000FF225A62447700230377184670BC704762
:10D850000220FBE70E4B1B680E4AA2FB03231B0BA7
:10D860009B0001680A6822F480320A605A1E3BB1AC
:10D8700003681968134611F4803FF7D10020704700
:10D88000D0F8803043F04003C0F880300320704768
:10D89000080000201BECCB95002800F0EB8070B551
:10D8A000044690F87D30002B00F0B980022384F804
:10D8B0007D302046FFF7CEFFE368012B00F0B680F5
:10D8C000022B00F0B1800022A368022B00F0B08090
:10D8D000032B00F0B080012B00F0B28000252368FC
:10D8E000654866498B4218BF834240F0AC80644B68
:10D8F0001A60E36923B323685F49604A934218BF03
:10D900008B4200F0A380002023685E495E4A934268
:10D9100018BF8B4200F09F8000EB80004100E3695C
:10D920005B02B1FBF3F1594BA3FB0123DB0823623C
:10D9300003EB830042008A1A082A01D901332362CB
:10D940006268022A14BF00230123002A08BF0123B2
:10D95000002B00F08780E36B012B00F081804FF4F7
:10D96000007621680B684A4A1A400A6022681168EA
:10D970006368206B0343606B0343A06B0343334333
:10D980002B43606A03432069034360690343206AB1
:10D9900043EA00530B431360226851683D4B0B4030
:10D9A000536021684A68A369A06A0343E06A03439D
:10D9B00013434B6022689168374B0B40936020689B
:10D9C0008268236C013B216D0B43A16C0B43E16C1E
:10D9D0000B43616C013943EA0123134383602268DE
:10D9E000D36823F47D6323F00F031B041B0CD36067
:10D9F0002068C268636DA16D0B43216E43EA014349
:10DA0000E16D013943EA01231343C3600020C4F8E8
:10DA10008000012384F87D3084F87C0070BD80F89C
:10DA20007C30FCF74FFA41E720224DE710224BE70C
:10DA30004FF4006553E742F001024FF400654EE7F2
:10DA40004FF480654BE7154B1A6052E74FF4002006
:10DA5000FEF706F858E74FF48010FEF701F85BE791
:10DA600000267EE7E36B012B01D0002679E74FF417
:10DA7000007676E7012070470458014024580140A1
:10DA800000580140045C0140245C0140CDCCCCCC6A
:10DA900010C005FFF01FFFFF0080F8FF005C014091
:10DAA0000B4B1B680B4AA2FB03235A0A41F2883333
:10DAB00003FB02F35A1E43B1416B134611F0800F72
:10DAC000F8D0C5238363002070474FF000407047B3
:10DAD00008000020D34D6210154B1B68154AA2FBAD
