:020000040800F2
:1020000000500020F1530008B1220008B32200085C
:10201000B5220008B7220008B9220008000000001D
:102020000000000000000000000000001151000846
:10203000BB22000800000000B1510008BD220008CA
:10204000395400083954000839540008395400083C
:10205000395400083954000839540008395400082C
:10206000395400083954000839540008395400081C
:10207000395400083954000839540008395400080C
:1020800039540008395400083954000839540008FC
:1020900039540008395400083954000839540008EC
:1020A00039540008395400083954000839540008DC
:1020B00039540008395400083954000839540008CC
:1020C00039540008395400083954000839540008BC
:1020D00039540008D5220008395400083954000842
:1020E0003954000839540008395400080000000031
:1020F00000000000000000000000000000000000E0
:0C21000000000000000000005FF808F183
:1021100010B5054C237833B9044B13B10448AFF321
:1021200000800123237010BD10000020000000007B
:10213000B054000808B5034B1BB103490348AFF383
:10214000008008BD0000000014000020B05400080A
:1021500030B587B000240294039404940594144B82
:102160009A6942F010029A619A6902F01002009294
:10217000009A9A6942F004029A619B6903F0040391
:102180000193019B0B4D22464FF40051284600F06D
:10219000ABFD4FF4005302930123039304940223F5
:1021A000059302A9284600F08FFC07B030BD00BFA0
:1021B000001002400010014008B50848084B0360B9
:1021C0004FF4E133436000238360C36003610C225A
:1021D00042618361C36100F027FF08BD341900200C
:1021E0000038014008B503F0E7F8024B186801F029
:1021F00015FF08BD3019002010B590B02422002131
:1022000007A803F04DF90024019402940394049468
:1022100005940223069301230A9310230B9306A827
:1022200000F038F90F230193029403940494059469
:10223000214601A800F06CFB10B010BD08B5134B8F
:10224000134A9A6062B600F0B5F800F0E9F8FFF7BB
:10225000D3FFFFF77DFFFFF7AFFF02F049FC0D480A
:1022600002F026FD0C4B18600C4A0121084602F0D2
:102270007DFD0B4B18600B4A00210B4802F080FCDF
:102280000A4B186002F056FCFEE700BF00ED00E0CC
:10229000002000080C550008741900201C55000887
:1022A00078190020E8540008E521000830190020C2
:1022B0007047FEE7FEE7FEE7FEE7704708B500F06F
:1022C000C1F802F0A5F9012800D108BD02F092FF83
:1022D000FBE7000008B5024800F0A4FF08BD00BFFE
:1022E0003419002082B00E4B9A6942F001029A61C3
:1022F0009A6902F001020092009ADA6942F0805273
:10230000DA61DB6903F080530193019B054A53684E
:1023100023F0E06343F00073536002B0704700BFE6
:10232000001002400000014030B587B00023029346
:1023300003930493059302681B4B9A4201D007B0A4
:1023400030BD03F558439A6942F480429A619A6914
:1023500002F480420092009A9A6942F004029A6163
:102360009B6903F004030193019B4FF400730293F4
:1023700002230393032305930C4D02A9284600F082
:10238000A3FB4FF48063029300240394049402A9F6
:10239000284600F099FB22462146252000F010FD3A
:1023A000252000F041FDCAE7003801400008014047
:1023B0007047000010B5064B4FF0FF32DA60002482
:1023C0001C61DA60DC60FFF7F3FF204610BD00BF40
:1023D0000010024010B504460E4B18784FF47A7383
:1023E000B3FBF0F30C4A1068B0FBF3F000F02AFDE9
:1023F00068B90F2C01D901200AE0002221464FF0D4
:10240000FF3000F0DDFC054B1C60002000E00120E7
:1024100010BD00BF000000200800002004000020C4
:1024200008B5074A136843F010031360032000F057
:10243000B5FC0020FFF7CEFFFFF754FF002008BDDA
:1024400000200240034A1168034B1B780B441360C1
:10245000704700BF7C19002000000020014B186865
:10246000704700BF7C19002082B0084B1B68084AE7
:10247000A2FB03235B0A00FB03F3019300BF019B54
:102480005A1E0192002BF9D102B0704708000020BB
:10249000D34D6210002800F0F18170B582B004467F
:1024A000036813F0010F2CD0AA4B5B6803F00C03F8
:1024B000042B1DD0A74B5B6803F00C03082B12D034
:1024C0006368B3F5803F41D0002B55D103F18043C1
:1024D00003F504331A6822F480321A601A6822F471
:1024E00080221A6037E09B4B5B6813F4803FE7D093
:1024F000984B1B6813F4003F03D06368002B00F077
:10250000BF81236813F0020F75D0924B5B6813F004
:102510000C0F5FD08F4B5B6803F00C03082B54D07B
:102520002369002B00F089808B4B01221A60FFF792
:1025300095FF0546874B1B6813F0020F74D1FFF718
:102540008DFF401B0228F5D903209EE1814A1368C4
:1025500043F480331360636843B3FFF77FFF05469E
:102560007C4B1B6813F4003FCBD1FFF777FF401B78
:102570006428F5D9032088E1B3F5A02F09D0754B65
:102580001A6822F480321A601A6822F480221A60D3
:10259000E1E703F18043A3F53C331A6842F480225B
:1025A0001A601A6842F480321A60D4E7FFF756FFC7
:1025B0000546684B1B6813F4003FA2D0FFF74EFF9F
:1025C000401B6428F5D903205FE1624B5B6813F47C
:1025D000803FA5D15F4B1B6813F0020F03D0236926
:1025E000012B40F04F815B4A136823F0F8036169C7
:1025F00043EAC1031360236813F0080F32D0A369C4
:10260000002B45D0554B01221A60FFF727FF0546E6
:10261000504B5B6A13F0020F21D1FFF71FFF401BE5
:102620000228F5D9032030E14A4A136823F0F80361
:10263000616943EAC1031360DDE7474B00221A607A
:10264000FFF70CFF0546434B1B6813F0020FD2D077
:10265000FFF704FF401B0228F5D9032015E10120F4
:10266000FFF702FF236813F0040F00F09780394B47
:10267000DB6913F0805F1DD1364BDA6942F080527E
:10268000DA61DB6903F080530193019B012512E0BD
:10269000324B00221A60FFF7E1FE05462D4B5B6AC4
:1026A00013F0020FDED0FFF7D9FE401B0228F5D948
:1026B0000320EAE000252A4B1B6813F4807F11D029
:1026C000E368012B22D0002B38D103F1804303F5BE
:1026D00004331A6A22F001021A621A6A22F0040212
:1026E0001A6218E01E4A136843F480731360FFF700
:1026F000B5FE06461A4B1B6813F4807FE0D1FFF746
:10270000ADFE801B6428F5D90320BEE0114A136A90
:1027100043F001031362E36873B3FFF79FFE0646BD
:102720000C4B1B6A13F0020F37D1FFF797FE801B8B
:1027300041F288339842F3D90320A6E0052B11D04B
:10274000044B1A6A22F001021A621A6A22F0040289
:102750001A62E0E700100240000042428004424258
:10276000007000404D4B1A6A42F004021A621A6A65
:1027700042F001021A62CEE7FFF770FE0646474BB1
:102780001B6A13F0020F08D0FFF768FE801B41F2AE
:1027900088339842F3D9032077E0E5B9E369002B49
:1027A00072D03E4A526802F00C02082A56D0022B20
:1027B00017D03B4B00221A60FFF750FE0446374B00
:1027C0001B6813F0007F47D0FFF748FE001B02286C
:1027D000F5D9032059E0314AD36923F08053D361FE
:1027E000DCE72F4B00221A60FFF738FE05462B4B23
:1027F0001B6813F0007F06D0FFF730FE401B022855
:10280000F5D9032041E0236AB3F5803F1AD023496C
:102810004B6823F47413226A606A024313434B60CB
:102820001F4B01221A60FFF719FE04461B4B1B6861
:1028300013F0007F0ED1FFF711FE001B0228F5D91F
:10284000032022E0154A536823F40033A1680B43A8
:102850005360DCE7002018E0002016E0012B16D0C2
:102860000E4B5B6803F48031226A914211D103F46C
:102870007013626A93420ED1002006E00120704777
:10288000012002E0012000E0002002B070BD012024
:10289000FBE70120F9E70120F7E700BF0010024045
:1028A0006000424286B0164B0FCB0DF1180C0CE9BC
:1028B0000F0040F20123ADF80430124B5B6803F0C7
:1028C0000C02082A02D0104806B07047C3F38342B6
:1028D000624412F8102C13F4803F0CD0094B5B6853
:1028E000C3F34043634413F8143C074800FB02F071
:1028F000B0FBF3F0E8E7054800FB02F0E4E700BFB7
:102900002C5500080010024000127A0000093D001A
:10291000002800F0A08070B50D460446524B1B689D
:1029200003F007038B420BD24F4A136823F00703CF
:102930000B431360136803F007038B4240F08D8054
:10294000236813F0020F17D013F0040F04D0474A86
:10295000536843F4E0635360236813F0080F04D016
:10296000424A536843F460535360404A536823F02B
:10297000F003A1680B435360236813F0010F31D0BB
:102980006368012B20D0022B25D0384A126812F040
:10299000020F64D035494A6822F0030213434B60AA
:1029A000FFF75CFD0646314B5B6803F00C03626881
:1029B000B3EB820F16D0FFF751FD801B41F2883335
:1029C0009842F0D9032045E0284A126812F4003FEB
:1029D000E0D101203EE0254A126812F0007FD9D1F3
:1029E000012037E0204B1B6803F00703AB420AD9F4
:1029F0001D4A136823F007032B431360136803F089
:102A00000703AB422DD1236813F0040F06D0174AF9
:102A1000536823F4E063E1680B435360236813F0C9
:102A2000080F07D0114A536823F46053216943EA21
:102A3000C1035360FFF736FF0C4B5B68C3F303130E
:102A40000B4AD35CD8400B4B18600B4B1868FFF750
:102A5000C1FC002070BD012070470120FAE7012071
:102A6000F8E70120F6E700BF002002400010024016
:102A7000405500080800002004000020014B1868A1
:102A8000704700BF0800002008B5FFF7F7FF044BB0
:102A90005B68C3F30223034AD35CD84008BD00BF80
:102AA000001002405055000808B5FFF7E7FF044B3F
:102AB0005B68C3F3C223034AD35CD84008BD00BFA0
:102AC0000010024050550008F0B482B000252C469A
:102AD000A3E07F4FBB4210D007D97E4FBB420CD042
:102AE00007F58037BB4208D013E0A7F58017BB423B
:102AF00003D007F57027BB4207D18B68002B58D055
:102B0000012B51D04261082503E0A7F58017BB4295
:102B1000F3D0FF2E4FD88446FF2E4FD8A200DCF80A
:102B200000300F27974023EA070305FA02F2134308
:102B3000CCF800304B6813F0805F6DD0664B9A691B
:102B400042F001029A619B6903F001030193019B2A
:102B5000A208971C614B53F8273004F00307BF000D
:102B60004FF00F0C0CFA07FC23EA0C0C5C4B98425C
:102B70002AD003F58063984200F08A8003F58063D1
:102B8000984200F0878003F5806398421AD00423AE
:102B90001BE0CD68BDE7CD680435BAE7CD680835E0
:102BA000B7E7CD680C35B4E702610825B1E7002529
:102BB000AFE70425ADE700F1040CADE7A4F108028E
:102BC0009200ACE7032300E00023BB4043EA0C0380
:102BD0000232424F47F822304B6813F4803F5BD0FB
:102BE000404A1368334313604B6813F4003F59D0D5
:102BF0003C4A5368334353604B6813F4801F57D0EB
:102C0000384A9368334393604B6813F4001F55D0E0
:102C1000344AD3681E43D66001340B6833FA04F299
:102C200052D00122A24003EA020632EA0303F3D1A2
:102C30004B68122B3FF64DAF122B3FF66AAF01A740
:102C400057F823F0FB2A0008932B00089D2B00085F
:102C5000AF2B0008132B0008132B0008132B0008C0
:102C6000132B0008132B0008132B0008132B00084C
:102C7000132B0008132B0008132B0008132B00083C
:102C8000132B0008132B0008972B0008A32B000818
:102C900001239AE7022398E7124A136823EA0603FE
:102CA0001360A1E70F4A536823EA06035360A3E7C2
:102CB0000C4A936823EA06039360A5E7094AD368A0
:102CC00023EA0606D660A7E702B0F0BC704700BF53
:102CD00000002210000031100010024000000140EE
:102CE00000080140000401400AB101617047090475
:102CF00001617047C3680B4201D0416170470161B7
:102D00007047000008B590F82130022B03D004234F
:102D10008363012008BD0268136823F00E0313606B
:102D20000268136823F0010313600368194A934291
:102D300014D0143293421FD0143293421ED0143256
:102D400093421ED0143293421ED01432934202D0CA
:102D50004FF0807203E04FF4801200E001220E4B2E
:102D60005A60012380F82130002380F82030436B23
:102D70006BB198470020CDE71022F0E74FF4807246
:102D8000EDE74FF48052EAE74FF48032E7E70020A6
:102D9000C0E700BF0800024000000240074AD368B5
:102DA00023F4E0631B041B0C000200F4E060034307
:102DB00043F0BF6343F40033D360704700ED00E09D
:102DC00030B4174BDB68C3F30223C3F10704042CB0
:102DD00028BF04241D1D062D18D9033B4FF0FF35D5
:102DE00005FA04F421EA0401994005FA03F322EA02
:102DF0000303194300280BDB0901C9B200F160404D
:102E000000F5614080F8001330BC70470023E5E70F
:102E100000F00F000901C9B2024B1954F4E700BFDA
:102E200000ED00E014ED00E0002807DB00F01F02D9
:102E3000400901239340024A42F82030704700BF06
:102E400000E100E00138B0F1807F0AD2064B586003
:102E5000064AF02182F823100020986007221A60A9
:102E600070470120704700BF10E000E000ED00E077
:102E70000268D36823F49073D3600268536923F027
:102E800001035361202380F83A30704790F83930BD
:102E9000DBB2212B01D0022070478368B3F5805F3D
:102EA00017D0036A5A1C02621A7803685A60C38CEE
:102EB0009BB2013B9BB2C3844BB90268D36823F039
:102EC0008003D3600268D36843F04003D3600020DE
:102ED0007047036A1B880268C3F3080353600369E1
:102EE0001BB9036A02330362E1E7036A0133036239
:102EF000DDE7000038B504460268136923F4405347
:102F0000C1680B43136183680269134342691A4322
:102F10000168CB6823F4B05323F00C031343CB6058
:102F20000268536923F4407381690B43536102685B
:102F3000214B9A421FD0FFF7A7FD00EB800000EB6A
:102F4000800063689B00B0FBF3F01C4DA5FB0032D2
:102F50005109642303FB11031B013233A5FB032337
:102F60005B0903F0F00202EB011203F00F0321688A
:102F700013448B6038BDFFF797FD00EB800000EB3A
:102F8000800063689B00B0FBF3F00C4DA5FB0032A2
:102F90005109642303FB11031B013233A5FB0323F7
:102FA0005B0903F0F00202EB011203F00F0321684A
:102FB00013448B60DEE700BF003801401F85EB51F2
:102FC0002DE9F84305460F4616469946DDF8208060
:102FD0002C68246837EA04030CBF01240024B4429F
:102FE0001FD1B8F1FF3FF3D0B8F1000F05D0FFF7C4
:102FF00035FAA0EB09004045EAD92A68D36823F4E2
:10300000D073D3602A68536923F0010353612023EE
:1030100085F8393085F83A30002385F838300320B8
:1030200000E00020BDE8F88358B310B5044690F8DE
:1030300039300BB3242384F839302268D36823F461
:103040000053D3602046FFF755FF2268136923F42D
:10305000904313612268536923F02A035361226865
:10306000D36843F40053D3600020E063202384F846
:10307000393084F83A3010BD80F83830FFF754F911
:10308000D8E7012070472DE9F04182B01E4690F844
:103090003930DBB2202B58D104460D46904600292A
:1030A00057D0002A57D090F83830012B55D0012343
:1030B00080F838300023C363212380F83930FFF7CC
:1030C000CDF90746A4F82480A4F8268017E00096DE
:1030D0003B46002280212046FFF772FF00283ED1A8
:1030E0002B882268C3F30803536023690BB90235A8
:1030F00005E0013503E015F8012B23685A60E38CE5
:103100009BB29BB1E28C92B2013A92B2E284A36884
:10311000B3F5805FDBD000963B460022802120463D
:10312000FFF74EFF0028E6D003200FE000963B4655
:10313000002240212046FFF743FF90B9202384F866
:103140003930002384F8383000E0022002B0BDE8B6
:10315000F0810120FAE70120F8E70220F6E70320DA
:10316000F4E70320F2E7704708B50168CA6822F067
:103170004002CA60202280F83920FFF7F4FF0020C7
:1031800008BD704708B590F83A30DBB2222B46D123
:103190008368B3F5805F0FD003690BBB03685A687F
:1031A000836A591C81621A70C38D9BB2013B9BB22A
:1031B000C385F3B1002008BD826A036943B903687F
:1031C0005B68C3F308031380836A02338362EBE70F
:1031D00003685B68DBB21380836A01338362E3E7D1
:1031E00003685B68826A511C816203F07F0313707D
:1031F000DAE70268D36823F02003D3600268D3685B
:1032000023F48073D3600268536923F00103536190
:10321000202380F83A30FFF7B4FF0020CBE70220EC
:10322000C9E7704710B5044602681368D16852694F
:1032300013F00F0005D113F0200F02D011F0200F72
:1032400013D128B112F0010213D111F4907F10D1E3
:1032500013F0800F02D011F0800F69D113F0400FEE
:1032600002D011F0400F67D110BD2046FFF78AFF52
:10327000FAE713F0010F06D011F4807F03D0E06B62
:1032800040F00100E06313F0040F04D01AB1E06BCA
:1032900040F00200E06313F0020F04D01AB1E06BBB
:1032A00040F00400E06313F0080F04D01AB1E26BA1
:1032B00042F00802E263E26B002AD5D013F0200F3F
:1032C00002D011F0200F21D123685B6903F0400385
:1032D000E26B12F0080F00D123B32046FFF7C8FDC0
:1032E00023685A6912F0400F18D05A6922F0400240
:1032F0005A61636B73B1124A5A63606BFFF702FD48
:103300000028B1D0606B436B9847ADE72046FFF7CC
:1033100039FFD9E72046FFF784FFA5E72046FFF7EE
:1033200080FFA1E72046FFF77CFF0023E3639BE7D4
:103330002046FFF7ABFD97E72046FFF715FF93E721
:103340004533000808B5406A0023C385C384FFF7EE
:1033500068FF08BD0F4B1A6842F001021A605968F5
:103360000D4A0A405A601A6822F0847222F48032B0
:103370001A601A6822F480221A605A6822F4FE0247
:103380005A604FF41F029A60044B4FF000629A603B
:10339000704700BF001002400000FFF800ED00E0A1
:1033A00000F1080343604FF0FF328260C3600361A5
:1033B00000230360704700230361704743684B603C
:1033C0009A688A60516099600861036801330360FC
:1033D000704730B40D68B5F1FF3F11D000F108031C
:1033E0001C465B681A68AA42FAD963684B60996008
:1033F0008C606160086103680133036030BC704712
:103400000469F2E70369416882688A604168516033
:103410005A68824206D0002202611A68013A1A6094
:103420001868704782685A60F5E710B5044601F0E5
:1034300081FEA26BE36B9A4204D0002401F09CFE53
:10344000204610BD0124F9E710B5044601F072FED4
:10345000A36B23B9012401F08FFE204610BD002488
:10346000F9E770B504461546866B026C5AB90368D5
:103470001BB100200136A66370BD406801F0D8F88A
:1034800000236360F6E76DB9806801F0FBFF226CF2
:10349000A3681344A3606268934219D32368A360AE
:1034A0002846E7E7C06801F0EDFF226C5142E3686F
:1034B0009B1AE3602268934202D263680B44E36084
:1034C000022D01D00020D5E726B1013E0020D1E732
:1034D0002846CFE70020CDE70346026C6AB110B55D
:1034E0000846D9681144D9605C68A14201D31968C3
:1034F000D960D96801F0C6FF10BD704738B50546E0
:1035000001F018FE95F8454064B203E001F07AF846
:10351000013C64B2002C08DD6B6A33B105F1240074
:1035200000F0DCFF0028F3D0F0E7FF2385F84530FA
:1035300001F022FE01F0FEFD95F8444064B203E084
:1035400001F060F8013C64B2002C08DD2B6933B156
:1035500005F1100000F0C2FF0028F3D0F0E7FF23D0
:1035600085F8443001F008FE38BD000038B5E0B100
:103570000D46044601F0DEFD2168E26B236C03FB7F
:10358000021060600020A063A160013A02FB0313F7
:10359000E360FF2384F8443084F84530EDB92369B3
:1035A00063B901F0E9FD012038BD4FF0500383F30A
:1035B0001188BFF36F8FBFF34F8FFEE704F1100048
:1035C00000F08CFF0028ECD0084B4FF080521A60BE
:1035D000BFF34F8FBFF36F8FE3E704F11000FFF7E6
:1035E000DFFE04F12400FFF7DBFEDAE704ED00E084
:1035F00038B51D46049C0B4649B92460E06323643A
:1036000001212046FFF7B2FF84F84C5038BD2260FC
:10361000F4E740B94FF0500383F31188BFF36F8F85
:10362000BFF34F8FFEE730B585B01C46054653B15A
:1036300092B189B94FF0500383F31188BFF36F8FB4
:10364000BFF34F8FFEE74FF0500383F31188BFF3B2
:103650006F8FBFF34F8FFEE76AB150230393039B35
:10366000502B13D04FF0500383F31188BFF36F8FAB
:10367000BFF34F8FFEE70029EFD04FF0500383F3E5
:103680001188BFF36F8FBFF34F8FFEE7012384F8DC
:10369000463000949DF820302846FFF7A9FF2046C9
:1036A00005B030BD40B94FF0500383F31188BFF32C
:1036B0006F8FBFF34F8FFEE7F0B583B00C46164611
:1036C0000746A1B101FB00F0503001F02FFC054688
:1036D00050B1002380F846300090334600F150028C
:1036E00021463846FFF784FF284603B0F0BD084660
:1036F000EAE730B583B040B94FF0500383F3118847
:10370000BFF36F8FBFF34F8FFEE70C46134688421F
:1037100008D24FF0500383F31188BFF36F8FBFF3CC
:103720004F8FFEE70222009200221146FFF771FF41
:10373000034600B18463184603B030BD40B94FF072
:10374000500383F31188BFF36F8FBFF34F8FFEE7F2
:1037500010B50C46884208D24FF0500383F311880D
:10376000BFF36F8FBFF34F8FFEE702220021FFF7F9
:1037700099FF034600B18463184610BDF0B585B0CB
:10378000019288B10E461D460446B1B1022D20D1EA
:10379000E36B012B1DD04FF0500383F31188BFF36F
:1037A0006F8FBFF34F8FFEE74FF0500383F3118805
:1037B000BFF36F8FBFF34F8FFEE7036C002BE5D095
:1037C0004FF0500383F31188BFF36F8FBFF34F8F18
:1037D000FEE700F01DFF074658B9019B002B44D0BF
:1037E0004FF0500383F31188BFF36F8FBFF34F8FF8
:1037F000FEE7002739E02A4631462046FFF731FE32
:10380000626A6AB938B13C4B4FF080521A60BFF31C
:103810004F8FBFF36F8F01F0AFFC012005B0F0BDFB
:1038200004F1240000F05AFE0028F4D0324B4FF08F
:1038300080521A60BFF34F8FBFF36F8FEBE701F039
:103840009BFC0020EAE702A800F08EFE012719E0A9
:10385000002384F8443021E0002384F8453023E03D
:103860002046FFF74BFE00F019FD01F063FCA26B50
:10387000E36B9A42BFD3022DBDD0019B002BDED05B
:10388000002FE0D001F078FC00F06EFC01F052FC5B
:1038900094F844305BB2B3F1FF3FD9D094F845308F
:1038A0005BB2B3F1FF3FD7D001F066FC01A902A8DB
:1038B00000F066FEC8B92046FFF7B7FD0028CFD05C
:1038C000019904F1100000F0D5FD2046FFF716FE27
:1038D00000F0E4FC0028C8D1074B4FF080521A607A
:1038E000BFF34F8FBFF36F8FBFE72046FFF706FE92
:1038F00000F0D4FC002091E704ED00E048B110B5E1
:10390000002141600160C1600B460A46FFF736FFA7
:1039100010BD704710B5024600210120FFF7C2FE1E
:103920000446FFF7EBFF204610BD10B582B00B46F2
:103930000090002211460120FFF76BFE0446FFF7BE
:10394000DDFF204602B010BD2DE9F84390B1894655
:1039500090461F460446B1B1022F20D1E36B012BE4
:103960001DD04FF0500383F31188BFF36F8FBFF367
:103970004F8FFEE74FF0500383F31188BFF36F8F33
:10398000BFF34F8FFEE7036C002BE5D04FF05003E1
:1039900083F31188BFF36F8FBFF34F8FFEE701F002
:1039A000B7FCEFF311864FF0500383F31188BFF398
:1039B0006F8FBFF34F8FA26BE36B9A4206D3022F38
:1039C00004D0002086F31188BDE8F88394F84550B0
:1039D0006DB23A4649462046FFF743FDB5F1FF3F39
:1039E00005D06B1C5BB284F845300120EAE7636ABE
:1039F0000BB90120E6E704F1240000F06FFD30B1BF
:103A0000B8F1000F05D00120C8F80000DAE7012066
:103A1000D8E70120D6E70000F0B585B0019290B15B
:103A20000E460446C1B100F0F3FD074600BB019B02
:103A3000002B5CD04FF0500383F31188BFF36F8FDE
:103A4000BFF34F8FFEE74FF0500383F31188BFF3AE
:103A50006F8FBFF34F8FFEE7036C002BE3D04FF067
:103A6000500383F31188BFF36F8FBFF34F8FFEE7CF
:103A700000273CE031462046FFF72EFD013DA563BF
:103A8000236923B901F078FB012005B0F0BD04F1F2
:103A9000100000F023FD0028F4D0354B4FF0805289
:103AA0001A60BFF34F8FBFF36F8FEBE701F064FB3A
:103AB0000020EAE702A800F057FD012721E00023DB
:103AC00084F8443029E0002384F845302BE0204678
:103AD000FFF714FD00F0E2FB09E02046FFF70EFDC2
:103AE00000F0DCFB2046FFF7AFFC00283DD101F0E1
:103AF00021FBA56B002DBDD1019B002BD6D0002F43
:103B0000D8D001F039FB00F02FFB01F013FB94F843
:103B100044305BB2B3F1FF3FD1D094F845305BB293
:103B2000B3F1FF3FCFD001F027FB01A902A800F0BD
:103B300027FD0028D1D12046FFF786FC0028C6D0FB
:103B4000019904F1240000F095FC2046FFF7D6FC13
:103B500000F0A4FB0028CAD1054B4FF080521A6038
:103B6000BFF34F8FBFF36F8FC1E700208DE700BF1A
:103B700004ED00E0002300E00133072B0BD8064AD8
:103B800052F83320002AF7D1034A42F8331002EBEF
:103B9000C30358607047704780190020002300E07D
:103BA0000133072B0DD8074A02EBC3025268824249
:103BB000F6D1044A002142F8331002EBC3035960E6
:103BC000704770478019002038B110B50446FFF7E0
:103BD000E5FF94F846304BB110BD4FF0500383F32E
:103BE0001188BFF36F8FBFF34F8FFEE7204601F0C0
:103BF00015FAF1E770B504460D46164601F09AFA3B
:103C000094F844305BB2B3F1FF3F0DD094F84530E7
:103C10005BB2B3F1FF3F0BD001F0AEFAA36B5BB127
:103C20002046FFF76BFC70BD002384F84430EDE7BD
:103C3000002384F84530EFE73246294604F124009A
:103C400000F030FCECE70000084B1B681B6823B950
:103C5000074B4FF0FF321A607047044B1B68DB685C
:103C6000DB685A68024B1A60704700BF30000020C2
:103C7000D80400202DE9F04780460D4617469946A6
:103C8000089EDDF824A00A9C9200A521206B01F07B
:103C900007FC236B07F18042013A03EB820727F010
:103CA000070700220F2A07D8A95CA31883F834104D
:103CB000AB5C0BB10132F5E7002384F84330372EBB
:103CC00000D93726E662E66400252565201DFFF74A
:103CD00072FB04F11800FFF76EFB2461C6F1380691
:103CE000A6616462656584F858504A464146384684
:103CF00001F0FCF92060BAF1000F01D0CAF80040D1
:103D0000BDE8F08738B50024372C08D804EB8402CE
:103D100093000E481844FFF743FB0134F4E70C4DC1
:103D20002846FFF73DFB0B4C2046FFF739FB0A48BE
:103D3000FFF736FB0948FFF733FB0948FFF730FB75
:103D4000084B1D60084B1C6038BD00BF38000020C8
:103D5000B0040020C4040020E00400200C05002072
:103D6000F8040020300000203400002010B5044684
:103D700001F0E0F9214A136801331360204B1B68FE
:103D80005BB1204B1B686BB91D4B1B68DA6AE36A99
:103D90009A4207D81A4B1C6004E0194B1C60136848
:103DA000012B27D0184A1368013313606364E06A5B
:103DB000164B1B68984201D9144B186000EB800029
:103DC000211D134B03EB8000FFF7F8FA01F0D4F943
:103DD0000C4B1B686BB10A4B1B68DA6AE36A9A42A8
:103DE00007D20C4B4FF080521A60BFF34F8FBFF3D6
:103DF0006F8F10BDFFF786FFD4E700BF9804002047
:103E00002C000020F4040020A8040020AC040020B2
:103E10003800002004ED00E010B5044690F8593059
:103E200063B1012B11D0022B0ED04FF0500383F35E
:103E30001188BFF36F8FBFF34F8FFEE7006B01F068
:103E4000EDF8204601F0EAF810BD01F0E7F8FBE7D5
:103E50000F4B1B68D3B110B501F06CF90D4BDB684B
:103E6000DC68201DFFF7CEFA0B4A1368013B136094
:103E7000074A1368013B136001F07EF92046FFF703
:103E8000CBFF034B1B68002BE6D110BD704700BF72
:103E90009C0400200C0500209804002008B5FFF7C2
:103EA000D7FF064B1B68012BF9D9054B4FF0805209
:103EB0001A60BFF34F8FBFF36F8FF0E73800002019
:103EC00004ED00E070B504460D46174B1E68174B15
:103ED00018680430FFF796FAB4F1FF3F0DD0344470
:103EE000124B1B685C60A64210D9114B18680F4B2F
:103EF00019680431FFF76DFA70BD002DEFD00B4B40
:103F0000196804310B48FFF759FAF5E70A4B1868AE
:103F1000064B19680431FFF75CFA084B1B68A34293
:103F2000EAD9064B1C60E7E7200500202C000020A2
:103F300034000020F804002030000020D8040020C5
:103F400070B586B00B9D0C9C75B1B4B15C2604961F
:103F5000049E5C2E1AD04FF0500383F31188BFF3F8
:103F60006F8FBFF34F8FFEE74FF0500383F311883D
:103F7000BFF36F8FBFF34F8FFEE74FF0500383F314
:103F80001188BFF36F8FBFF34F8FFEE725630225C4
:103F900084F8595000250395029405AD01950A9DBA
:103FA0000095FFF767FE2046FFF7E0FE059806B094
:103FB00070BD2DE9F04385B00746884614461E467D
:103FC000900000F0B3FF00B381465C2000F0AEFF2C
:103FD0000546B0B1C0F83090E5B1002385F85930FE
:103FE000039302950D9B01930C9B0093334622464D
:103FF00041463846FFF73EFE2846FFF7B7FE012050
:1040000005E0484601F00AF8E6E74FF0FF3005B05A
:10401000BDE8F0834FF0FF30F9E7000038B5044603
:1040200001F088F824B3251D2846FFF7EBF9A36AB1
:104030001BB104F11800FFF7E5F91E4A13680133BC
:1040400013601D4B1B68A34215D01C4A1368013B2B
:1040500013602046FFF7E0FEFFF7F6FD01F08CF855
:10406000174B1B681BB1144B1B68A3420CD038BD07
:10407000114B1C68D7E729461248FFF79FF9124AEF
:10408000136801331360E9E7104B1B6843B14FF02D
:10409000500383F31188BFF36F8FBFF34F8FFEE799
:1040A0000B4B4FF080521A60BFF34F8FBFF36F8FEF
:1040B000DDE700BFA80400202C00002098040020A9
:1040C000F40400200C0500209C040020A40400201F
:1040D00004ED00E010B588B000240594069407AA0A
:1040E00006A905A800F0AEFE059B0293069B01936E
:1040F00000942346079A17491748FFF721FF48B154
:1041000000F04AFB0346012B06D0B3F1FF3F18D065
:1041100008B010BD0023F6E74FF0500383F3118879
:10412000BFF36F8FBFF34F8F0C4B4FF0FF321A600E
:104130000B4B01221A600B4B00221A6001F08CF825
:10414000E6E74FF0500383F31188BFF36F8FBFF39F
:104150004F8FFEE7585500089D3E0008D804002008
:10416000F404002020050020024A13680133136084
:10417000704700BFA4040020014B1868704700BFBF
:1041800020050020F8B53A4B1B68002B65D1394B50
:104190001D6801351D60C5B9374B1B681B6843B1ED
:1041A0004FF0500383F31188BFF36F8FBFF34F8F2E
:1041B000FEE7314A1168314B186810601960304AC7
:1041C000136801331360FFF73FFD2E4B1B68AB42B2
:1041D0000CD900242C4B1B68DB6A03EB83039A0089
:1041E0002A4B9B58012B3DD901243BE0002416E0CB
:1041F000244B4FF0FF321A60ECE7224A1360E9E7E4
:1042000003EB83039A00394620481044FFF7D6F8A1
:10421000F26A1D4B1B68DB6A9A4200D30124164BDD
:104220001B681B68002BE3D0134B1B68DB68DE6840
:1042300073689D42E1D3371D3846FFF7E3F8B36A50
:104240001BB106F11800FFF7DDF8F36A104A126897
:104250009342D5D90E4A1360D2E70E4A1368013350
:10426000136000240C4B1B6803B101242046F8BDE9
:10427000A40400202005002030000020340000208D
:10428000DC040020D80400202C000020380000208E
:10429000AC040020A00400202405002038B5344BD5
:1042A0001B6843B94FF0500383F31188BFF36F8F3E
:1042B000BFF34F8FFEE700F03DFF2D4B1A68013A28
:1042C0001A601B68002B4DD12A4B1B680BB90024C8
:1042D00049E00024284B1B681BB3274BDB68DC68D4
:1042E00004F11800FFF78EF8251D2846FFF78AF81D
:1042F000E06A224B1B68984201D9204B186000EB02
:10430000800029461E4B03EB8000FFF757F8E26A56
:104310001C4B1B68DB6A9A42DCD31B4B01221A60E0
:10432000D8E70CB1FFF790FC184B1C6874B9164B1A
:104330001C68C4B1164B4FF080521A60BFF34F8F08
:10434000BFF36F8F01240EE0013C07D0FFF71AFF87
:104350000028F9D00C4B01221A60F5E70B4B002224
:104360001A60E4E7002400F007FF204638BD00BFD4
:10437000A404002098040020E0040020AC040020E5
:10438000380000202C00002024050020A00400207C
:1043900004ED00E010B5A8B104460F4B1B6843B113
:1043A0004FF0500383F31188BFF36F8FBFF34F8F2C
:1043B000FEE7FFF7D9FE00212046FFF783FDFFF758
:1043C0006DFF38B9054B4FF080521A60BFF34F8F25
:1043D000BFF36F8F10BD00BFA404002004ED00E008
:1043E0001F4B1B681BB11F4B01221A6070471D4BEE
:1043F00000221A601C4B1B6803EB83018A001B49D7
:104400008A585AB90BB1013BF6E74FF0500383F3DA
:104410001188BFF36F8FBFF34F8FFEE710B403EB2C
:10442000830082000A4450684068506003EB8304B4
:10443000A20014460832114488420CD003EB8302D8
:1044400091000A4A0A445268D168094A1160064A32
:10445000136010BC70474068044A22445060EDE786
:10446000A404002024050020AC0400203800002013
:104470002C00002058B110B50C46094B19681831B2
:10448000FEF7A7FF01212046FFF71CFD10BD4FF0EE
:10449000500383F31188BFF36F8FBFF34F8FFEE795
:1044A0002C00002038B570B10C4615460A4B19682F
:1044B0001831FEF783FF0DB14FF0FF342946204637
:1044C000FFF700FD38BD4FF0500383F31188BFF3B1
:1044D0006F8FBFF34F8FFEE72C00002038B5C36805
:1044E000DC6824B304F118052846FEF78BFF184B4F
:1044F0001B682BBB251D2846FEF784FFE06A154B81
:104500001B68984201D9134B186000EB80002946C4
:10451000114B03EB8000FEF751FFE26A0F4B1B6863
:10452000DB6A9A4211D901200D4B18600EE04FF062
:10453000500383F31188BFF36F8FBFF34F8FFEE7F4
:1045400029460848FEF73AFFE7E7002038BD00BFDC
:10455000A4040020AC040020380000202C0000201F
:1045600024050020E0040020034B1B680360034B7C
:104570001B684360704700BFDC040020200500205A
:10458000F8B5C8B10C460546F9B100F0D3FD1B4B98
:1045900019686B68C81A2268B2F1FF3F26D02F68ED
:1045A000174E3668B74201D08B4224D9824215D8C3
:1045B0000023236001241AE04FF0500383F3118895
:1045C000BFF36F8FBFF34F8FFEE74FF0500383F3BE
:1045D0001188BFF36F8FBFF34F8FFEE75B1A134451
:1045E00023602846FFF7C0FF002400E0002400F00D
:1045F000C3FD2046F8BD0124F9E700BF20050020D7
:10460000DC040020014B01221A60704724050020C1
:10461000054B1B6833B1054B1B680BB1002070477D
:104620000220704701207047F4040020A4040020F9
:1046300000283BD038B504461E4B1B68834208D087
:104640004FF0500383F31188BFF36F8FBFF34F8F89
:10465000FEE7036D43B94FF0500383F31188BFF3B6
:104660006F8FBFF34F8FFEE7013B0365C16AC26CDA
:1046700091421DD00BB1002038BD051D2846FEF724
:10468000C1FEE06CE062C0F13803A3610A4B1B6815
:10469000984201D9084B186000EB80002946074B6F
:1046A00003EB8000FEF78AFE0120E5E7002070475B
:1046B0000020E1E72C000020AC040020380000209E
:1046C000064B1A681368B3FA83F35B09036013B9E6
:1046D000D368186870470020704700BF2805002085
:1046E00008B54160006191420CD8D21A83699A42A0
:1046F00001D3012008BD011D094B1868FEF769FEB2
:104700000020F7E79A4201D2994206D2011D054BDB
:104710001868FEF75EFE0020ECE70120EAE700BF24
:104720002C0500202805002030B583B000F002FDE4
:10473000114B1B681BB100F01FFD03B030BD0F4DC6
:104740002846FEF72DFE0E4C2046FEF729FE0D4BA7
:104750001D600D4B1C60002300930C4B0C4A102174
:104760000A20FEF756FF044B18600028E3D00949E1
:10477000FFF700FADFE700BF4C060020D00500205D
:10478000E4050020280500202C050020FC05002061
:10479000300500206055000810B588B0FFF7C4FF51
:1047A000124B1B68CBB100240594069407AA06A9F6
:1047B00005A800F053FB059B0293069B019302237F
:1047C00000932346079A0A490A48FFF7B9FB0A4AA9
:1047D000106010B1012008B010BD4FF0500383F3FA
:1047E0001188BFF36F8FBFF34F8FFEE74C06002099
:1047F00068550008D94A000850060020C0B110B51D
:1048000084B014461A4603461648006838B300912F
:104810000194029305291CDCFFF7FAFE022810D050
:1048200000231A4669460F480068FEF7A7FF14E008
:104830004FF0500383F31188BFF36F8FBFF34F8F97
:10484000FEE70023069A694606480068FEF796FFD1
:1048500003E000236946FFF777F804B010BD00209D
:10486000FBE700BF4C06002070B582B01A4B1B68F6
:104870001A6852B3DB681E68DC68251D2846FEF7FF
:10488000C1FD636A20469847E369012BEED1A36915
:1048900033449E4207D26360246129460E4B186858
:1048A000FEF797FDE2E7002100910B4632462046D5
:1048B000FFF7A4FF0028D9D14FF0500383F31188EC
:1048C000BFF36F8FBFF34F8FFEE7044A10680249B2
:1048D0000860136002B070BD280500202C05002080
:1048E00038B50546FFF748FC0446074B1B68834272
:1048F00005D800232B60044B1C60204638BDFFF711
:10490000B3FF01232B60F6E7F805002070B582B0F5
:1049100005460E46144B1B68DB68DC68201DFEF75D
:1049200071FDE369012B04D0636A2046984702B009
:1049300070BDA1692B46324629442046FFF7D0FEC0
:104940000028F1D0002100910B462A462046FFF7AF
:1049500055FF0028E8D14FF0500383F31188BFF3CF
:104960006F8FBFF34F8FFEE72805002070B582B030
:1049700006460C46FFF7F8FB01A8FFF7B1FF019BC5
:104980001BBB05460CB9B04218D22CB1114B1B68A9
:104990001C68B4FA84F464092246711B0E4B186833
:1049A000FFF728F9FFF77AFC88B90C4B4FF08052DB
:1049B0001A60BFF34F8FBFF36F8F08E0FFF76EFCF5
:1049C00029463046FFF7A2FF01E0FFF767FC02B07F
:1049D00070BD00BF2C0500204C06002004ED00E057
:1049E00010B588B006E007990698059B9847049B88
:1049F000002B0BDA002204A9364B1868FFF70CF8DD
:104A0000002865D0049B002BF1DAECE7069C636973
:104A100013B1201DFEF7F6FC03A8FFF761FF049B0E
:104A2000092BE7D801A252F823F000BF554A00082D
:104A3000554A0008554A0008F54900089B4A0008F5
:104A4000C14A0008554A0008554A0008F5490008BF
:104A50009B4A0008059BA169024619442046FFF7BE
:104A60003FFE0028C6D0636A20469847E369012BC1
:104A7000C0D1A269002100910B460598024420464E
:104A8000FFF7BCFE0028B5D14FF0500383F3118827
:104A9000BFF36F8FBFF34F8FFEE70599A16131B16F
:104AA0000346024601442046FFF71AFEA2E74FF0F4
:104AB000500383F31188BFF36F8FBFF34F8FFEE76F
:104AC00094F82C30002B95D1204600F0A7FA91E7FE
:104AD00008B010BD4C06002000B583B001A8FFF758
:104AE000EFFD0199FFF742FFFFF77AFFF6E70000BD
:104AF000EFF3058393B9EFF3108393B90C4B186868
:104B0000022804D080B90A4B01221A607047EFF3E3
:104B10001183002BF6D06FF0050070476FF0050091
:104B200070476FF0050070474FF0FF30704700BFCF
:104B3000B008002008B5EFF30583B3B9EFF3108395
:104B4000B3B90E4B1B68022B08D0012B13D10B4BB2
:104B500002221A60FFF7BEFA002008BDEFF31182AF
:104B6000002AF2D06FF00500F7E76FF00500F4E7D8
:104B70006FF00500F1E74FF0FF30EEE7B0080020DE
:104B8000F0B587B000240494EFF30584002C43D1E2
:104B9000EFF31083002B3FD1334B1B68022B21D046
:104BA000002839D000238DF8173062B31568EDB1B5
:104BB000936903B918235C1E372C51D8546814F03C
:104BC000010F4FD15669A6B14FEA960C94682CB1EB
:104BD000D7685B2F02D9176907B106BB64B14FF0E4
:104BE000FF3416E0EFF31183B3B9D9E70DF11705E0
:104BF000DEE74FF0800CE9E7D46894B914699CB102
:104C00004FF0FF3405E0002418234FF0800C0DF125
:104C10001705012C0AD0ACB1049807B0F0BD0124EF
:104C2000F7E74FF0FF34F4E70024F2E714699268E5
:104C30000292019400930B4662462946FFF780F9E1
:104C40000490E9E704AA019200930B461FFA8CF244
:104C50002946FFF7AEF90128DED000230493DBE7F5
:104C60000020DAE70020D8E7B008002008B5EFF30D
:104C70000583A3B9EFF31083A3B90C4B1B68022B78
:104C800002D040B9002008BDEFF31183002BF8D00B
:104C90006FF00500F7E7FFF77DFB0020F3E76FF00B
:104CA0000500F0E76FF00500EDE700BFB008002059
:104CB00070B5EFF30583002B4ED10446EFF310825D
:104CC0001346002A4BD1284A1268022A23D004B185
:104CD000636813F0010600D0012613F0080F40D1DD
:104CE0007CB3A16811B1E3684F2B1FD8C9B14FF055
:104CF000FF337BBB4EB30420FEF70CFE05462DB1FF
:104D000004B1246821462846FEF734FF2DB326B3AC
:104D100045F0010521E0EFF31182002AD7D00025EC
:104D20001BE0E3687BB14FF0FF33E2E726B10420DC
:104D3000FEF7FBFD0546E2E70120FEF7F6FD05461E
:104D4000DDE70023D5E70023D3E70120FEF7E2FDEE
:104D50000546D4E70025D9E70025284670BD002583
:104D6000FBE70025F9E700BFB008002070B582B06E
:104D7000EFF30583002B57D10E461546EFF3108352
:104D8000002B55D12E4B1B68022B0ED0002851D082
:104D9000B04251D37DB1AC6814B1EB684F2B1AD837
:104DA000002C4BD1EB683BB13FE0EFF31183002BBC
:104DB000ECD0002439E0002301280ED073BB31462B
:104DC000FEF7BCFC044684B305B12D682946204695
:104DD000FEF7D0FE29E00123EEE7B3B9032200215C
:104DE0000120FEF75FFC0446002CECD0002EEAD038
:104DF00000231A4619462046FEF7C0FC0128E2D0DF
:104E00002046FEF7E1FE00240FE0AB68032200928B
:104E100000221146FEF7FDFB0446E5E7AA6831468D
:104E2000FEF767FC0446CEE70024204602B070BDC2
:104E30000024FAE70024F8E70024F6E70024F4E76A
:104E4000B0080020034B0360034B0B60802313600A
:104E5000704700BF5408002054060020034B036035
:104E6000034B0B604FF4807313607047B40C002049
:104E7000B4080020124A12F0070F1ED0D11D21F0F5
:104E80000701C1F5406313440A460E480260002141
:104E900041601344083B23F007030B48036059604B
:104EA0001960991A51601360084B1960084B19601A
:104EB000084B4FF000421A6070474FF44063E4E73C
:104EC000140D002020190020100D00201C190020B6
:104ED000181900201419002010B4124B1A461B6830
:104EE0008342FBD351685418844209D04168441866
:104EF000A3420AD00360904200D0106010BC7047FB
:104F00004068014451601046F0E7074C2468A34212
:104F100006D05B681944416013681B680360EAE7C8
:104F20000460E8E720190020100D002070B5044649
:104F3000FFF71AF9344B1B68A3B1344B1B681C42B2
:104F40004AD134B1083414F0070F02D024F007041A
:104F50000834002C42D02E4B1B68A3424DD32D4B5E
:104F60001D6804E0FFF786FFE7E72B4615466A68F1
:104F7000A24202D22A68002AF7D1234A1268AA4222
:104F80003DD01E6808362A681A606B681B1B102B00
:104F900010D9281910F0070F08D04FF0500383F3F1
:104FA0001188BFF36F8FBFF34F8FFEE743606C60D4
:104FB000FFF792FF6A6816490B689B1A0B60164947
:104FC00009688B4201D214490B60104B1B681343D4
:104FD0006B6000232B6002E0002600E00026FFF754
:104FE0005DF916F0070F0CD04FF0500383F31188D2
:104FF000BFF36F8FBFF34F8FFEE70026EFE700266A
:10500000EDE7304670BD00BF100D002014190020E0
:1050100018190020201900201C19002080B338B571
:105020000446A0F1080550F8043C164A12681342E1
:1050300008D14FF0500383F31188BFF36F8FBFF394
:105040004F8FFEE750F8081C41B14FF0500383F337
:105050001188BFF36F8FBFF34F8FFEE723EA020380
:1050600040F8043CFFF780F854F8041C064A136823
:105070000B4413602846FFF72FFFFFF70FF938BDE9
:10508000704700BF141900201819002082B00023B7
:1050900001930D4B1B68B3F1FF3F08D04FF0500355
:1050A00083F31188BFF36F8FBFF34F8FFEE74FF08D
:1050B000500383F31188BFF36F8FBFF34F8F019BB2
:1050C000002BFCD002B070470C000020064800689E
:1050D000006880F3088862B661B6BFF34F8FBFF3F4
:1050E0006F8F00DF00BF000008ED00E04FF080731D
:1050F00040F8043C21F0010140F8081C034B40F843
:105100000C3C40F8202C4038704700BF8D50000800
:10511000074B19680868B0E8F00F80F30988BFF3FF
:105120006F8F4FF0000080F311884EF00D0E704726
:105130002C0000204FF0500383F31188BFF36F8FD2
:10514000BFF34F8F0A4A136801331360012B00D05D
:105150007047084B1B6813F0FF0FF9D04FF0500356
:1051600083F31188BFF36F8FBFF34F8FFEE700BF4C
:105170000C00002004ED00E0094B1B6843B94FF020
:10518000500383F31188BFF36F8FBFF34F8FFEE798
:10519000013B034A13600BB983F31188704700BFCA
:1051A0000C000020000000000000000000000000D3
:1051B000EFF30980BFF36F8F0D4B1A6820E9F00FF2
:1051C00010602DE908404FF0500080F31188FFF780
:1051D00007F94FF0000080F31188BDE80840196816
:1051E0000868B0E8F00F80F30988BFF36F8F70474D
:1051F0002C00002008B54FF0500383F31188BFF353
:105200006F8FBFF34F8FFEF7BDFF18B1034B4FF009
:1052100080521A60002383F3118808BD04ED00E07A
:10522000084A0023136008490B60084B1B680849B3
:10523000A1FB03139B09013B06490B600723136085
:10524000704700BF10E000E018E000E00800002018
:10525000D34D621014E000E010B582B0274B1A78ED
:10526000D2B20192FF221A701B78DBB28DF80330A4
:105270009DF8033003F05003214A1370214B07229D
:105280001A609DF8033013F0800F0AD01D4A13688E
:10529000013B13609DF803305B00DBB28DF80330F7
:1052A000EFE7184B1B68032B08D04FF0500383F334
:1052B0001188BFF36F8FBFF34F8FFEE71B0203F41C
:1052C000E063104A1360019BDBB20C4A13700E4B73
:1052D0001A6842F470021A601A6842F070421A604A
:1052E000FFF79EFF0024094B1C60FFF7EFFEFFF75E
:1052F00077F8FFF7CBFE204602B010BD00E400E0D7
:10530000281900202C19002020ED00E00C000020BE
:10531000EFF305830F2B0FD9104A9B5CDBB2104AC9
:1053200012789A4208D94FF0500383F31188BFF3E3
:105330006F8FBFF34F8FFEE70A4B1B6803F4E063E8
:10534000094A1268934208D94FF0500383F3118839
:10535000BFF36F8FBFF34F8FFEE77047F0E300E0BE
:10536000281900200CED00E02C19002008B54FF49E
:1053700000510448FDF7BEFC4FF4FA60FFF776FCDD
:10538000F5E700BF0010014000B583B00023ADF881
:105390000630BDF806300133ADF806306423012233
:1053A0000DF106010348FDF76EFE6420FFF75EFC79
:1053B000EFE700BF3419002008B5074A002107486D
:1053C000FFF7DEFB064B1860064A00210648FFF790
:1053D000D7FB064B186008BD805500086D530008C8
:1053E000C4190020A455000889530008C0190020E2
:1053F000002103E00B4B5B58435004310A480B4B30
:1054000042189A42F6D30A4A02E0002342F8043BCB
:10541000084B9A42F9D3FDF79DFF00F00FF8FCF717
:105420000DFF7047D055000800000020100000203C
:1054300010000020C8190020FEE7000070B500260B
:105440000C4D0D4C641BA410A64209D100F030F89D
:1054500000260A4D0A4C641BA410A64205D170BD5B
:1054600055F8043B98470136EEE755F8043B98475A
:105470000136F2E7C8550008C8550008C8550008AD
:10548000CC5500080A44914200F1FF3300D1704727
:1054900010B511F8014B914203F8014FF9D110BD3D
:1054A00003460244934200D1704703F8011BF9E719
:1054B000F8B500BFF8BC08BC9E467047F8B500BF01
:0854C000F8BC08BC9E467047D1
:1054C8006F7353656D615F45780000006F734D75AC
:1054D8005F45780064656661756C745461736B0030
:1054E800DC5400080000000000000000000000007C
:1054F800000000000002000018000000000000008A
:1055080000000000D4540008000000000000000063
:1055180000000000C854000800000000000000005F
:105528000000000002030405060708090A0B0C0D19
:105538000E0F101000000000000000000000000026
:105548000102030406070809000000000102030421
:1055580049444C4500000000546D725100000000A1
:10556800546D72205376630053656E446174610014
:10557800426C696E6B00000078550008000000005E
:105588000000000000000000000000000002000011
:10559800180000000000000000000000705500081E
:1055A80000000000000000000000000000000000F3
:1055B80000020000180000000000000000000000C9
:0455C8003521000881
:0455CC0011210008A1
:1055D00001000000100000000024F400AAAAAAAAFA
:04000005080053F1AB
:00000001FF
