:020000040800F2
:1000000000500020A9010008F1010008F1010008DA
:10001000F1010008F1010008F101000800000000F2
:10002000000000000000000000000000F1010008D6
:10003000F101000800000000F1010008F1010008D2
:10004000F1010008F1010008F1010008F1010008C8
:10005000F1010008F1010008F1010008F1010008B8
:10006000F1010008F1010008F1010008F1010008A8
:10007000F1010008F1010008F1010008F101000898
:10008000F1010008F1010008F1010008F101000888
:10009000F1010008F1010008F1010008F101000878
:1000A000F1010008F1010008F1010008F101000868
:1000B000F1010008F1010008F1010008F101000858
:1000C000F1010008F1010008F1010008F101000848
:1000D000F1010008F1010008F1010008F101000838
:1000E000F1010008F1010008F10100080000000022
:1000F0000000000000000000000000000000000000
:0C01000000000000000000005FF808F1A3
:10010C0010B5054C237833B9044B13B10448AFF345
:10011C0000800123237010BD0000002000000000AF
:10012C003C02000808B5034B1BB103490348AFF36D
:10013C00008008BD00000000040000203C02000804
:10014C0002490868004700207047000004100008AE
:10015C000F4B1A6842F001021A6059680D4A0A40A6
:10016C005A601A6822F0847222F480321A601A687B
:10017C0022F480221A605A6822F4FE025A604FF46C
:10018C001F029A60044B4FF000629A60704700BFE8
:10019C00001002400000FFF800ED00E0002103E039
:1001AC000B4B5B58435004310A480B4B42189A4294
:1001BC00F6D30A4A02E0002342F8043B084B9A4269
:1001CC00F9D3FFF7C5FF00F00FF8FFF7B9FF704741
:1001DC005C0200080000002000000020000000204D
:1001EC001C000020FEE7000070B500260C4D0D4CE5
:1001FC00641BA410A64209D100F01AF800260A4D7F
:10020C000A4C641BA410A64205D170BD55F8043BE2
:10021C0098470136EEE755F8043B98470136F2E76C
:10022C005402000854020008540200085802000846
:10023C00F8B500BFF8BC08BC9E467047F8B500BFC7
:08024C00F8BC08BC9E46704797
:04025400310100086C
:040258000D0100088C
:04000005080001A945
:00000001FF
