:020000040800F2
:1000000000500020A5230008D3050008D5050008EE
:10001000D7050008D9050008DB050008000000002E
:10002000000000000000000000000000DD050008E6
:10003000DF05000800000000E1050008E3050008F6
:10004000ED230008ED230008ED230008ED23000850
:10005000ED230008ED230008ED230008ED23000840
:10006000ED230008ED230008ED230008ED23000830
:10007000ED050008FD0500080D0600081D06000836
:100080002D060008ED230008ED230008ED230008ED
:10009000ED230008ED230008ED230008ED23000800
:1000A000ED2300083D060008ED230008ED230008BD
:1000B000ED230008ED230008ED230008ED230008E0
:1000C000ED230008ED230008ED2300084D0600088D
:1000D000ED230008ED230008ED230008ED230008C0
:1000E000ED230008ED230008ED23000800000000C8
:1000F0000000000000000000000000000000000000
:0C01000000000000000000005FF808F1A3
:10010C0010B5054C237833B9044B13B10448AFF345
:10011C0000800123237010BD70000020000000003F
:10012C003C25000808B5034B1BB103490348AFF34A
:10013C00008008BD00000000740000203C25000871
:10014C0070B584B004460025009501950295039581
:10015C000F4EC188304601F0B3FBA188304601F048
:10016C00AFFBA188E3882A461943304601F024FCF2
:10017C00A388E28813430093012301930293022383
:10018C0003936946304601F0AFFA04B070BD00BF6E
:10019C00000C014038B504460160194B0B60036834
:1001AC004FF482725A6002680023936002684FF425
:1001BC000061D16002681361026801255561026813
:1001CC004FF40071916102683021D16102681362B1
:1001DC00026853620268936203680A22DA6200685A
:1001EC0001F01AFF206801F0D9FE4FF6FF7323814E
:1001FC006381A381E3810223A380E58038BD00BF26
:10020C000030014038B50546102002F00FF90446C5
:10021C002946FFF7BFFF2046FFF792FF204638BD67
:10022C0008B501228188024801F0C6FB08BD00BF59
:10023C00000C014008B50122C188024801F0BCFB4A
:10024C0008BD00BF000C014008B5034653F80A2B4B
:10025C00926B9A4204D000F10E039A4203D008BD6F
:10026C00FFF7DEFFFBE7FFF7E5FFF8E738B50446DD
:10027C00054655F80C3B1B6BAB420CD00022C188D9
:10028C000C4801F099FB012304F10E022946206869
:10029C0001F0D8FE38BD00228188064801F08CFBA5
:1002AC00012304F10A0204F10801206801F0CAFEDE
:1002BC00F0E700BF000C014030B589B00024049475
:1002CC000594069407941F4B9A6942F010029A61A8
:1002DC009A6902F010020092009A9A6942F0200288
:1002EC009A619A6902F020020192019A9A6942F08D
:1002FC0004029A619A6902F004020292029A9A69C3
:10030C0042F008029A619B6903F008030393039B74
:10031C000D4D22464FF40051284601F04DFB22466C
:10032C0003210A4801F048FB4FF4005304930123C6
:10033C00059306940223079304A9284601F0D4F9E7
:10034C0009B030BD0010024000100140000C01400B
:10035C0000B583B01A4B5A6942F001025A615B69CD
:10036C0003F001030193019B002211460C2001F0C4
:10037C00EBFC0C2001F01CFD002211460D2001F0BD
:10038C00E3FC0D2001F014FD002211460E2001F0BB
:10039C00DBFC0E2001F00CFD002211460F2001F0B9
:1003AC00D3FC0F2001F004FD00221146102001F0B7
:1003BC00CBFC102001F0FCFC03B05DF804FB00BF8B
:1003CC000010024008B50848084B03604FF4E133B5
:1003DC00436000238360C36003610C22426183612C
:1003EC00C36100F031FD08BD7001002000380140F0
:1003FC0008B50848084B03604FF4E1334360002311
:10040C008360C36003610C2242618361C36100F0AD
:10041C001BFD08BD4C0200200044004008B50D48EF
:10042C000D4B03604FF482734360002383604FF4E1
:10043C000062C2600361012242614FF4007282616A
:10044C003822C2610362436283620A23C36201F0F1
:10045C00A5FD08BDF40100200030014030B587B087
:10046C000024029403940494059400940194104D78
:10047C00104B2B604FF47A736B60AC6040F2CE2360
:10048C00EB602C616C618023AB61284600F0A8FB0B
:10049C004FF48053029302A9284600F0C5FB009448
:1004AC0001946946284600F02CFC07B030BD00BF13
:1004BC00B4010020002C01400268054B9A4200D088
:1004CC007047044B01221A70034B1B685B68F7E7FB
:1004DC00003801408C0000207001002030B591B034
:1004EC000024089409940B940C94019402940394A2
:1004FC0004940594012206924FF4803307930A92D8
:10050C0002250D950E934FF4E0130F9306A800F0FF
:10051C00D1FD0F230193029503944FF48063049350
:10052C000594294601A801F005F811B030BD000072
:10053C0008B500F085FDFFF7D1FFFFF7BDFEFFF713
:10054C0007FFFFF73FFFFFF753FFFFF767FFFFF7CB
:10055C0085FF0748FFF756FE064B1860064800F06B
:10056C0032FA02220549064800F09EFCFEE700BF65
:10057C00F40100209C000020B4010020E4000020C5
:10058C007001002008B54FF40051044801F01AFA2C
:10059C00034B1868FFF758FE08BD00BF0010014060
:1005AC009C00002008B50268044B9A4200D008BD9C
:1005BC00034B1868FFF75AFEF9E700BF002C014007
:1005CC009C00002070477047FEE7FEE7FEE7FEE761
:1005DC0070477047704708B500F044FD08BD000037
:1005EC0008B5024801F0FCFA08BD00BF8C020020DF
:1005FC0008B5024801F0F4FA08BD00BFD002002093
:10060C0008B5024801F0ECFA08BD00BFE800002074
:10061C0008B5024801F0E4FA08BD00BF2C01002027
:10062C0008B5024801F0DCFA08BD00BFA0000020AC
:10063C0008B5024800F0DCF908BD00BFB401002089
:10064C0008B5024801F01EFE08BD00BFF4010020F1
:10065C0082B00E4B9A6942F001029A619A6902F0DB
:10066C0001020092009ADA6942F08052DA61DB6989
:10067C0003F080530193019B054A536823F0E06318
:10068C0043F00073536002B0704700BF001002408B
:10069C000000014070B586B00023029303930493CD
:1006AC0005930268304B9A4201D006B070BD0446E7
:1006BC0003F560439A6942F480529A619A6902F494
:1006CC0080520092009A9A6942F004029A619B69E6
:1006DC0003F004030193019BA023029302230393D1
:1006EC0003230593214E02A9304600F0FDFF402361
:1006FC00029300250395049502A9304600F0F4FFFF
:10070C001B481C4B0360456085608023C3600561FA
:10071C0045618561C56101F073F9F0B9144BE3646F
:10072C005C621548154B0360102343600023836003
:10073C008022C260036143618361C36101F060F98F
:10074C0070B90D4BA3645C6200221146232001F0AA
:10075C00FBFA232001F02CFBA7E7FFF733FFDDE7C3
:10076C00FFF730FFEDE700BF00300140000801400B
:10077C008C0200201C000240D002002030000240FD
:10078C0002680C4B9A4200D0704710B504460A4AD6
:10079C00936923F480539361E021084801F090F8A9
:1007AC00E06C01F063F9A06C01F060F9232001F01A
:1007BC000DFB10BD0030014000100240000801404C
:1007CC0002680E4B9A4200D0704700B583B003F517
:1007DC0064439A6942F400629A619B6903F4006372
:1007EC000193019B00221146192001F0ADFA19204A
:1007FC0001F0DEFA03B05DF804FB00BF002C0140F1
:10080C0070B588B0044600230493059306930793B0
:10081C0003684C4A934204D04B4A934256D008B0DA
:10082C0070BD4A4B9A6942F480429A619A6902F40B
:10083C0080420092009A9A6942F004029A619B6984
:10084C0003F004030193019B4FF400730493022300
:10085C000593032307933E4E04A9304600F044FF52
:10086C004FF48063049300250595069504A9304642
:10087C0000F03AFF3748384B0360456085608023B1
:10088C00C360056145618561C56101F0B9F8B8B90E
:10089C00304B63635C623148314B0360102343601F
:1008AC00002383608022C260036143612022826145
:1008BC00C36101F0A5F830B9284B23635C62AEE745
:1008CC00FFF780FEE4E7FFF77DFEF5E71F4BDA69E3
:1008DC0042F40032DA61DA6902F400320292029ACE
:1008EC009A6942F004029A619B6903F00403039332
:1008FC00039B042304930223059303230793144EB1
:10090C0004A9304600F0F0FE082304930025059559
:10091C00069504A9304600F0E7FE1248124B03601E
:10092C00456085608023C360056145618561C56153
:10093C0001F066F818B90B4B63635C626FE7FFF765
:10094C0041FEF8E70038014000440040001002402E
:10095C00000801402C01002058000240E800002053
:10096C0044000240A00000206C00024010B4036A56
:10097C00046A24F001040462846924F0F00444EA5B
:10098C00021223F00A030B438261036210BC70470E
:10099C0010B4036A23F0100303628469036A24F41D
:1009AC00704444EA023223F0A00343EA011382614B
:1009BC00036210BC7047836823F07003194341F045
:1009CC000701816070470268D36843F00103D3606C
:1009DC000268936803F00703062B03D0136843F0F7
:1009EC0001031360002070477047704770477047D1
:1009FC0010B5044603681A6912F0020F11D0DA68B8
:100A0C0012F0020F0DD06FF002021A61012303776E
:100A1C0003689B6913F0030F70D0FFF7E6FF002308
:100A2C00237723681A6912F0040F12D0DA6812F0D7
:100A3C00040F0ED06FF004021A610223237723688F
:100A4C009B6913F4407F5FD02046FFF7CEFF002355
:100A5C00237723681A6912F0080F12D0DA6812F0A3
:100A6C00080F0ED06FF008021A6104232377236855
:100A7C00DB6913F0030F4ED02046FFF7B6FF0023BF
:100A8C00237723681A6912F0100F12D0DA6812F06B
:100A9C00100F0ED06FF010021A6108232377236811
:100AAC00DB6913F4407F3DD02046FFF79EFF002307
:100ABC00237723681A6912F0010F03D0DA6812F059
:100ACC00010F36D123681A6912F0800F03D0DA684F
:100ADC0012F0800F34D123681A6912F0400F03D042
:100AEC00DA6812F0400F32D123681A6912F0200F25
:100AFC0003D0DA6812F0200F30D110BDFFF774FF6D
:100B0C002046FFF773FF8AE72046FFF76DFF20466C
:100B1C00FFF76CFF9BE72046FFF766FF2046FFF7C9
:100B2C0065FFACE72046FFF75FFF2046FFF75EFF4F
:100B3C00BDE76FF001021A612046FFF733FDC1E7F4
:100B4C006FF080021A61204600F0FFF8C3E76FF0E7
:100B5C0040021A612046FFF74AFFC5E76FF02002FA
:100B6C001A61204600F0F0F8C7E7000003681B4A42
:100B7C0090420AD0B0F1804F07D0A2F59432904247
:100B8C0003D002F58062904203D123F070034A68CF
:100B9C001343124A90420AD0B0F1804F07D0A2F50D
:100BAC009432904203D002F58062904203D123F438
:100BBC004073CA68134323F080034A6913430360EC
:100BCC008B68C3620B688362044B984202D001238A
:100BDC00436170470B690363F9E700BF002C0140C8
:100BEC00A8B110B5044690F83D305BB1022384F8EF
:100BFC003D30211D2068FFF7B9FF012384F83D30FB
:100C0C00002010BD80F83C30FFF7DAFDEEE7012044
:100C1C00704710B4846824F47F4442EA03230B43E6
:100C2C002343836010BC704790F83C30012B66D096
:100C3C0010B50446012380F83C30022380F83D3087
:100C4C000268936823F47F4323F0770393600B6867
:100C5C00402B4AD013D9602B3DD01ED9702B28D0F5
:100C6C00B3F5005F30D1CB684A6889680068FFF73C
:100C7C00D0FF2268936843F48043936024E0102BE8
:100C8C0006D004D9202B03D0302B01D01CE0DBB9CB
:100C9C0019462068FFF78FFE16E0502B14D1CA6856
:100CAC0049680068FFF762FE50212068FFF783FE59
:100CBC000AE0CB684A6889680068FFF7AAFF2268D7
:100CCC00936843F077039360012384F83D30002050
:100CDC0084F83C0010BDCA6849680068FFF758FEEC
:100CEC0060212068FFF767FEEEE7CA684968006874
:100CFC00FFF73CFE40212068FFF75DFEE4E7022091
:100D0C00704790F83C30012B1CD070B4012680F851
:100D1C003C60022380F83D3002685568936825F0EA
:100D2C0070050C682C4323F080054B682B435460F2
:100D3C000268936080F83D60002380F83C301846D0
:100D4C0070BC704702207047704770470268D368C8
:100D5C0023F0C003D360202380F839307047026839
:100D6C00D36823F49073D3600268536923F00103B2
:100D7C005361202380F83A307047000038B50446A0
:100D8C000268136923F44053C1680B4313618368F1
:100D9C000269134342691A430168CB6823F4B053C8
:100DAC0023F00C031343CB600268536923F44073A4
:100DBC0081690B4353610268214B9A421FD000F0AA
:100DCC0073FC00EB800000EB800063689B00B0FBC1
:100DDC00F3F01C4DA5FB00325109642202FB1102F9
:100DEC0013013233A5FB03235B0903F0F00202EB82
:100DFC00011203F00F03216813448B6038BD00F01F
:100E0C0063FC00EB800000EB800063689B00B0FB90
:100E1C00F3F00C4DA5FB00325109642202FB1102C8
:100E2C0013013233A5FB03235B0903F0F00202EB41
:100E3C00011203F00F03216813448B60DEE700BF3F
:100E4C00003801401F85EB5158B310B5044690F89B
:100E5C0039300BB3242384F839302268D36823F457
:100E6C000053D3602046FFF789FF2268136923F4EF
:100E7C00904313612268536923F02A03536122685B
:100E8C00D36843F40053D3600020E063202384F83C
:100E9C00393084F83A3010BD80F83830FFF7B0FCA8
:100EAC00D8E701207047000030B583B090F83A4085
:100EBC00E4B2202C3DD100293ED0002A3ED090F83F
:100ECC003830012B3CD013460A460446012180F8E9
:100EDC003810826283850025C563222180F83A1080
:100EEC00416B18488862616B1748C862616B174880
:100EFC000863616B4D6321680431606B00F0EAFD9F
:100F0C00019523681A6801925A680192019A84F833
:100F1C003850DA6842F48072DA602268536943F020
:100F2C00010353612268536943F04003536128461F
:100F3C0000E0022003B030BD0120FBE70120F9E7FF
:100F4C000220F7E75D0F00089D0F0008A90F0008AD
:100F5C0008B5436A0268126812F0200F13D1002200
:100F6C00DA851968CA6822F48072CA6019684A69FD
:100F7C0022F001024A6119684A6922F040024A6172
:100F8C00202283F83A201846FFF796FA08BD7047DE
:100F9C0008B5406AFFF7FBFF08BD704710B5446AFF
:100FAC0023685A6994F83930DBB2212B10D02368AE
:100FBC005A6902F0400294F83A30DBB2222B11D07D
:100FCC00E36B43F01003E3632046FFF7E6FF10BD2D
:100FDC0002F08002002AEAD00023E3842046FFF7C7
:100FEC00B5FEE4E7002AEBD00023E3852046FFF7AB
:100FFC00B6FEE5E710B504460E4B18784FF47A733D
:10100C00B3FBF0F30C4A1068B0FBF3F000F0F0FE09
:10101C0068B90F2C01D901200AE0002221464FF0BB
:10102C00FF3000F091FE054B1C60002000E0012019
:10103C0010BD00BF000000200800002004000020AC
:10104C0008B5074A136843F010031360032000F03F
:10105C0069FE0020FFF7CEFFFFF7FAFA002008BD6B
:10106C0000200240034A1168034B1B780B441360A9
:10107C00704700BF1403002000000020014B1868CB
:10108C00704700BF1403002082B0084B1B68084A4D
:10109C00A2FB03235B0A00FB03F0019000BF019B42
:1010AC005A1E0192002BF9D102B0704708000020A3
:1010BC00D34D6210002800F0F58170B582B0044663
:1010CC00036813F0010F2CD0AB4B5B6803F00C03DF
:1010DC00042B1DD0A84B5B6803F00C03082B12D01B
:1010EC006368B3F5803F41D0002B55D103F18043A9
:1010FC0003F504331A6822F480321A601A6822F459
:10110C0080221A6037E09C4B5B6813F4803FE7D079
:10111C00994B1B6813F4003F03D06368002B00F05D
:10112C00C381236813F0020F76D0934B5B6813F0E6
:10113C000C0F5FD0904B5B6803F00C03082B54D062
:10114C002369002B00F08A808C4B01221A60FFF778
:10115C0095FF0546884B1B6813F0020F75D1FFF7FE
:10116C008DFF401B0228F5D90320A0E1824A1368A9
:10117C0043F480331360636843B3FFF77FFF054686
:10118C007D4B1B6813F4003FCBD1FFF777FF401B5F
:10119C006428F5D903208AE1B3F5A02F09D0764B4A
:1011AC001A6822F480321A601A6822F480221A60BB
:1011BC00E1E703F18043A3F53C331A6842F4802243
:1011CC001A601A6842F480321A60D4E7FFF756FFAF
:1011DC000546694B1B6813F4003FA2D0FFF74EFF86
:1011EC00401B6428F5D9032061E1634B5B6813F461
:1011FC00803FA5D1604B1B6813F0020F04D023690C
:10120C00012B01D0012052E15B4A136823F0F80353
:10121C00616943EAC1031360236813F0080F32D0ED
:10122C00A369002B5BD0564B01221A60FFF726FFF7
:10123C000546514B5B6A13F0020F21D1FFF71EFFDD
:10124C00401B0228F5D9032031E14B4A136823F0E7
:10125C00F803616943EAC1031360DDE7474B0022E1
:10126C001A60FFF70BFF0546434B1B6813F0020F88
:10127C00D2D0FFF703FF401B0228F5D9032016E15B
:10128C000120FFF701FF236813F0040F00F0988092
:10129C00394BDB6913F0805F33D1374BDA6942F09D
:1012AC008052DA61DB6903F080530193019B0125C5
:1012BC00344B1B6813F4807F25D0E368012B36D0A8
:1012CC00002B4CD103F1804303F504331A6A22F04E
:1012DC0001021A621A6A22F004021A622CE0284BEC
:1012EC0000221A60FFF7CAFE0546234B5B6A13F017
:1012FC00020FC8D0FFF7C2FE401B0228F5D903200D
:10130C00D5E00025D4E71F4A136843F480731360BB
:10131C00FFF7B4FE06461B4B1B6813F4807FCCD141
:10132C00FFF7ACFE801B6428F5D90320BFE0124AFE
:10133C00136A43F001031362E3687BB3FFF79EFE6D
:10134C0006460D4B1B6A13F0020F38D1FFF796FEC1
:10135C00801B41F288339842F3D90320A7E0052B78
:10136C0012D0054B1A6A22F001021A621A6A22F094
:10137C0004021A62E0E700BF001002400000424283
:10138C0080044242007000404C4B1A6A42F0040246
:10139C001A621A6A42F001021A62CDE7FFF76EFE7A
:1013AC000646464B1B6A13F0020F08D0FFF766FE89
:1013BC00801B41F288339842F3D9032077E0E5B9DA
:1013CC00E369002B72D03D4A526802F00C02082AE5
:1013DC0056D0022B17D03A4B00221A60FFF74EFE64
:1013EC000446364B1B6813F0007F47D0FFF746FED0
:1013FC00001B0228F5D9032059E0304AD36923F0A9
:10140C008053D361DCE72E4B00221A60FFF736FEC7
:10141C0005462A4B1B6813F0007F06D0FFF72EFE03
:10142C00401B0228F5D9032041E0236AB3F5803F25
:10143C001AD022494B6823F47413226A606A02435F
:10144C0013434B601E4B01221A60FFF717FE044634
:10145C001A4B1B6813F0007F0ED1FFF70FFE001B19
:10146C000228F5D9032022E0144A536823F40033F0
:10147C00A1680B435360DCE7002018E0002016E065
:10148C00012B16D00D4B5B6803F48031226A91421C
:10149C0001D001200BE003F47013626A93420AD06E
:1014AC00012004E001207047012000E0002002B080
:1014BC0070BD0120FBE70020F9E700BF00100240DF
:1014CC006000424210B487B0164C94E80F000DF146
:1014DC00180C0CE90F00238AADF80430124B5B6832
:1014EC0003F00C02082A1AD1C3F38342624412F8A7
:1014FC00102C13F4803F05D10C4800FB02F007B010
:10150C0010BC7047084B5B68C3F34043634413F84B
:10151C00143C074800FB02F0B0FBF3F0EFE7044883
:10152C00EDE700BF542500080010024000093D0003
:10153C0000127A00002800F0A38070B50446524BCC
:10154C001B6803F007038B420CD24F4A136823F03D
:10155C0007030B431360136803F007038B4201D09E
:10156C00012070BD236813F0020F17D013F0040F85
:10157C0004D0464A536843F4E0635360236813F085
:10158C00080F04D0414A536843F4605353603F4AF8
:10159C00536823F0F003A068034353600D4623689F
:1015AC0013F0010F31D06368012B20D0022B25D012
:1015BC00364A126812F0020F64D034494A6822F09D
:1015CC00030213434B60FFF759FD06462F4B5B6834
:1015DC0003F00C036268B3EB820F16D0FFF74EFDDD
:1015EC00801B41F288339842F0D90320B9E7274A8F
:1015FC00126812F4003FE0D10120B2E7234A1268CE
:10160C0012F0007FD9D10120ABE71F4B1B6803F010
:10161C000703AB420CD91C4A136823F007032B4376
:10162C001360136803F00703AB4201D0012098E765
:10163C00236813F0040F06D0144A536823F4E063B4
:10164C00E1680B435360236813F0080F07D00F4A6F
:10165C00536823F46053216943EAC1035360FFF7D5
:10166C0031FF0A4B5B68C3F30313094AD35CD840C0
:10167C00084B1860084B1868FFF7BCFC002070E79B
:10168C000120704701206CE700200240001002404E
:10169C00682500080800002004000020014B186891
:1016AC00704700BF0800002008B5FFF7F7FF044B98
:1016BC005B68C3F30223034AD35CD84008BD00BF68
:1016CC00001002407825000808B5FFF7E7FF044B2F
:1016DC005B68C3F3C223034AD35CD84008BD00BF88
:1016EC000010024078250008F0B482B00026324683
:1016FC00A2E0002D5AD0012D00D1CE68FF2B69D865
:10170C008446FF2B69D89500DCF800400F27AF40CA
:10171C0024EA070406FA05F52C43CCF800404C6883
:10172C0014F0805F00F087805F4CA56945F00105DF
:10173C00A561A46904F001040194019C9508AF1CF7
:10174C005A4C54F8274002F00307BF004FF00F0C1F
:10175C000CFA07FC24EA0C0C554CA04243D004F5BF
:10176C008064A04200F0818004F58064A0427ED0A9
:10177C0004F58064A04234D0042435E04D4FBD42C2
:10178C0014D00BD94C4FBD4210D007F58037BD4259
:10179C000CD0A7F58017BD42B0D107E0A7F5801794
:1017AC00BD4203D007F58037BD42A7D18D687DB10E
:1017BC00012D08D044610826A0E7CE6808369DE7C5
:1017CC00CE680C369AE70461082697E7002695E761
:1017DC00042693E700F1040C93E7A2F10805AD0091
:1017EC0092E7032400E00024BC4044EA0C040235D8
:1017FC002E4F47F825404C6814F4803F39D02F4DBC
:10180C002C681C432C604C6814F4003F37D02B4DD3
:10181C006C681C436C604C6814F4801F35D0274DE9
:10182C00AC681C43AC604C6814F4001F33D0234DDF
:10183C00EC682343EB6001320B6833FA02F430D0CE
:10184C000124944023409C42F5D14D68122DB7D011
:10185C0094D8022DB1D07FF64CAF032DB6D0112DFC
:10186C007FF44CAFCE68043648E70124BCE7022471
:10187C00BAE7124D2C6824EA03042C60C3E70F4D21
:10188C006C6824EA03046C60C5E70C4DAC6824EA70
:10189C000304AC60C7E7094DEC6824EA0303EB6072
:1018AC00C9E702B0F0BC70470010024000000140D4
:1018BC00000801400000211000003110000401401C
:1018CC00002268E0032600E0002606FA04F4AC428D
:1018DC003FD0FF2B55D88446FF2B55D89700DCF80A
:1018EC0000400F26BE4024EA06040425BD402C43CC
:1018FC00CCF80040C46824EA0303C360013231FA17
:10190C0002F345D0012393400B40F7D04FEA920CE1
:10191C000CF10205254C54F8255002F00304A400E8
:10192C000F2606FA04F73D40214EB042CCD006F506
:10193C008066B04209D006F58066B04207D006F545
:10194C008066B042BED00426BFE70126BDE7022662
:10195C00BBE7164D0CF1020455F8246026EA070685
:10196C0045F82460134C2668DD432E4026606668DB
:10197C002E406660A6682E40A660E6683540E5609D
:10198C00A7E700F1040CA7E7A2F10805AF00A6E752
:10199C00F0BC7047013231FA02F305D001239340B9
:1019AC000B40F7D0F0B4B1E7704700BF0000014026
:1019BC00000801400004014012B90904016170479C
:1019CC0001617047C3680B4201D1016170474161ED
:1019DC00704770B4066CC56B0124B4406C6004682D
:1019EC0063604368102B05D0036899600368DA6064
:1019FC0070BC704703689A600368D960F8E7000010
:101A0C0060B310B402460168154B0B441548A0FB9B
:101A1C0003031B099B001364134BD363022382F84B
:101A2C002130086820F47F5020F03000536894680F
:101A3C002343D4682343146923435469234394698F
:101A4C002343D469234303430B6000209063012399
:101A5C0082F8213082F8200010BC704701207047BA
:101A6C00F8FFFDBFCDCCCCCC00000240002829D023
:101A7C0010B4034601680A6822F001020A60026889
:101A8C00002010601A6850601A6890601A68D06064
:101A9C0019680D4A0A440D49A1FB02121209920061
:101AAC001A640B4CDC63012101FA02F26260986249
:101ABC00D86218635863986383F8210083F8200078
:101ACC0010BC704701207047F8FFFDBFCDCCCCCCCB
:101ADC000000024038B590F82040012C32D001248F
:101AEC0080F8204090F82140012C04D0002380F88D
:101AFC002030022038BD0446022084F8210000204A
:101B0C00A0632568286820F0010028602046FFF7B4
:101B1C0060FFE36A5BB12268136843F00E03136045
:101B2C002268136843F0010313600020E2E7226887
:101B3C00136823F0040313602268136843F00A034C
:101B4C001360EDE70220D5E708B590F82130022BA1
:101B5C0003D004238363012008BD0268136823F0BB
:101B6C000E0313600268136823F00103136003680B
:101B7C00194A934214D0143293421FD01432934218
:101B8C001ED0143293421ED0143293421ED0143203
:101B9C00934202D04FF0807203E04FF4801200E0C9
:101BAC0001220E4B5A60012380F82130002380F86B
:101BBC002030436B6BB198470020CDE71022F0E743
:101BCC004FF48072EDE74FF48052EAE74FF4803225
:101BDC00E7E70020C0E700BF080002400000024019
:101BEC0038B5C36B1A6804682568016C04238B40F4
:101BFC00134235D015F0040F32D0236813F0200FA8
:101C0C0003D1236823F0040323600368434A9342FF
:101C1C0014D01432934218D01432934217D0143289
:101C2C00934217D01432934217D01432934202D0FD
:101C3C004FF0806203E04FF4800200E00422384B46
:101C4C005A60C36A03B1984738BD4022F7E74FF496
:101C5C008062F4E74FF48042F1E74FF48022EEE724
:101C6C0002238B4013423CD015F0020F39D023686D
:101C7C0013F0200F06D1236823F00A0323600123FD
:101C8C0080F821300368254A934214D014329342D1
:101C9C001CD0143293421BD0143293421BD01432FA
:101CAC0093421BD01432934202D04FF0007203E0E7
:101CBC004FF4001200E00222194B5A60002380F806
:101CCC002030836A002BBFD09847BDE72022F3E772
:101CDC004FF40072F0E74FF40052EDE74FF400328E
:101CEC00EAE7082303FA01F11142ADD015F0080F11
:101CFC00AAD0236823F00E032360026CC16B01236E
:101D0C0003FA02F24A60836380F82130002380F8E2
:101D1C002030036B002B97D0984795E708000240C2
:101D2C0000000240074AD36823F4E0631B041B0C39
:101D3C00000200F4E060184340F0BF6040F4003053
:101D4C00D060704700ED00E030B4174BDB68C3F394
:101D5C000223C3F10704042C28BF04241D1D062DE7
:101D6C0018D9033B4FF0FF3505FA04F421EA0401BE
:101D7C00994005FA03F322EA0303194300280BDB0D
:101D8C000901C9B200F1604000F5614080F8001310
:101D9C0030BC70470023E5E700F00F000901C9B221
:101DAC00024B1954F4E700BF00ED00E014ED00E025
:101DBC00002807DB00F01F02400901239340024A70
:101DCC0042F82030704700BF00E100E000280CDB37
:101DDC0000F01F024009012393402030034A42F8CF
:101DEC002030BFF34F8FBFF36F8F704700E100E0DF
:101DFC000138B0F1807F0AD2064B5860064AF021B8
:101E0C0082F823100020986007221A607047012086
:101E1C00704700BF10E000E000ED00E00F4B1A68C7
:101E2C0042F001021A6059680D4A0A405A601A6859
:101E3C0022F0847222F480321A601A6822F4802212
:101E4C001A605A6822F4FE025A604FF41F029A601C
:101E5C00044B4FF000629A60704700BF00100240C4
:101E6C000000FFF800ED00E0F8B505460F461646F9
:101E7C001C462B689B6837EA03030CBF0123002325
:101E8C00B34237D0B4F1FF3FF3D0FFF7F7F8069B1E
:101E9C00C01AA04201D2002CEBD12A68536823F05F
:101EAC00E00353606B68B3F5827F0BD0AB6AB3F57C
:101EBC00005F14D0012385F85130002385F8503091
:101ECC00032018E0AB68B3F5004F02D0B3F5806F78
:101EDC00ECD12A68136823F040031360E6E72A6804
:101EEC00136823F4005313602A68136843F40053F7
:101EFC001360DFE70020F8BD10B582B004460092F5
:101F0C000B4600228021FFF7AFFF034610B918469D
:101F1C0002B010BD636D43F0200363650323F6E745
:101F2C0010B582B004464068B0F5827F13D060686B
:101F3C00B0F5827F03D1A368B3F5806F18D00092FF
:101F4C000B46002280212046FFF78EFF0346F8B98E
:101F5C00184602B010BDA368B3F5004F02D0B3F51C
:101F6C00806FE4D12068036823F040030360DEE750
:101F7C0000920B46002201212046FFF775FF034615
:101F8C000028E5D0636D43F0200363650323DFE78E
:101F9C00636D43F0200363650323D9E7002839D030
:101FAC0010B504460023836290F85130002B2CD0DE
:101FBC00022384F851302268136823F04003136025
:101FCC006368A2681343E26813432269134362698E
:101FDC001343A26902F400721343E2691343226AA9
:101FEC001343A16A22680B431360638B226803F0CE
:101FFC00040353602268D36923F40063D361002087
:10200C006065012384F8513010BD80F85030FEF724
:10201C0041FBCDE70120704790B110B50446022377
:10202C0080F851300268136823F040031360FEF708
:10203C00A7FB0020606584F8510084F8500010BDA7
:10204C000120704738B590F85040012C00F0958075
:10205C000446012084F8500094F85100C0B2656821
:10206C0001280FD0B5F5827F05D00223002284F819
:10207C005020184638BDA568002D76D1042801D013
:10208C000223F3E7002972D0002A72D0002B72D001
:10209C0094F85100C0B2042802D0052084F85100F5
:1020AC00002060652163A386E386A263A387E38790
:1020BC002064606494F85130DBB2042B1BD0E36CC9
:1020CC002F4ADA62E36C2F4A9A62E36C2E4A1A6347
:1020DC00E36C00225A632168E38FA26B0C31E06C35
:1020EC00FFF7F8FC70B1636D43F0100363650123D7
:1020FC0084F85130BAE7E36C244ADA62E36C244A80
:10210C009A62E2E72268536843F001035360A26CC1
:10211C000023D362A26C9362A26C1363A26C536310
:10212C002268E38E0C32216BA06CFFF7D3FC0346C4
:10213C0038B1636D43F010036365012384F85130AB
:10214C0094E72268116811F0400F03D1116841F037
:10215C004001116021684A6842F020024A602168FF
:10216C004A6842F002024A6080E702237EE70123BC
:10217C007CE701237AE7012378E7022379E700BFA4
:10218C00B121000835220008BD210008A521000856
:10219C00DF2100087047704708B5406AFFF7FBFF66
:1021AC0008BD704708B5406AFFF7FBFF08BD7047D4
:1021BC0008B5406A0268536823F003035360436D0B
:1021CC0043F010034365012380F85130FFF7EFFF14
:1021DC0008BD38B50546446AFEF750FF2B681B68EE
:1021EC0013F0200F18D12268536823F0200353609A
:1021FC002268536823F0030353600246642120468F
:10220C00FFF78EFE08B1202363650023E3870123CB
:10221C0084F85130636D1BB92046FFF7BBFF38BD06
:10222C002046FFF7C4FFFAE738B50546446AFEF7C7
:10223C0025FF2B681B6813F0200F1BD122685368F5
:10224C0023F020035360024664212046FFF754FE1E
:10225C0018B1636D43F0200363652268536823F063
:10226C00030353600023E386E387012384F8513092
:10227C00636D1BB92046FEF785F938BD2046FFF784
:10228C0096FFFAE710B584B004460268506893686C
:10229C00C3F3801149B913F0010F06D010F0400FB1
:1022AC0003D0236C2046984708E013F0020F07D0A8
:1022BC0010F0800F04D0636C2046984704B010BD1A
:1022CC00C3F340130BB90029F8D010F0200FF5D050
:1022DC0079B194F85110C9B2032946D0616D41F01F
:1022EC000401616500210191D1680191916801910E
:1022FC00019963B1636D43F001036365002303939C
:10230C0093680393136823F040031360039B636D7E
:10231C00002BD3D02268536823F0E00353600123D1
:10232C0084F8513010F0030F27D02268536823F043
:10233C0003035360E36C4BB1124A5A63E06CFFF732
:10234C0003FC18B1636D43F040036365A36C002B71
:10235C00B4D00C4A5A63A06CFFF7F6FB0028ADD042
:10236C00636D43F040036365A8E700230293D368D1
:10237C00029393680293029BA0E72046FFF717FF96
:10238C009CE700BF9523000808B5406A0023C3876B
:10239C00C386FFF70CFF08BD002103E00B4B5B5815
:1023AC00435004310A480B4B42189A42F6D30A4A5E
:1023BC0002E0002342F8043B084B9A42F9D3FFF7A2
:1023CC002DFD00F00FF8FEF7B3F8704788250008D4
:1023DC000000002070000020700000201C03002072
:1023EC00FEE7000070B500250C4E0D4CA41BA4108C
:1023FC00A54209D100F09CF800250A4E0A4CA41BFA
:10240C00A410A54205D170BD56F82530984701356A
:10241C00EEE756F8253098470135F2E7802500089D
:10242C00802500088025000884250008024B014601
:10243C00186800F003B800BF0C00002070B5CD1C6C
:10244C0025F0030508350C2D38BF0C25002D06464C
:10245C0001DBA94203D90C233360002070BD00F0CE
:10246C0057F8214A1468214691B9204C23681BB9AE
:10247C00304600F03DF820602946304600F038F830
:10248C00431C24D10C233046336000F042F8E4E7BF
:10249C000B685B1B18D40B2B0FD90B60CC18CD50D1
:1024AC00304600F036F804F10B00231D20F0070035
:1024BC00C31AD3D05A42E250D0E74B688C4216BFB5
:1024CC00636013600C46EBE70C464968CCE7C41C10
:1024DC0024F00304A04205D0211A304600F008F87D
:1024EC000130CFD02560DBE7900000209400002065
:1024FC0038B50023054C05460846236000F00AF861
:10250C00431C02D1236803B12B6038BD1803002093
:10251C0070477047044A05491368002B08BF0B46E7
:10252C0018441060184670479800002020030020C3
:10253C00F8B500BFF8BC08BC9E467047F8B500BFA4
:08254C00F8BC08BC9E46704774
:1025540002030405060708090A0B0C0D0E0F1010E0
:10256400010200000000000000000000010203045A
:0C25740006070809000000000102030433
:04258000310100081D
:042584000D0100083D
:1025880001000000100000000024F40010000020EA
:102598000000000000000000000000000000000033
:1025A8000000000000000000000000000000000023
:1025B8000000000000000000000000000000000013
:1025C8000000000000000000000000000000000003
:1025D80000000000000000000000000000000000F3
:1025E80000000000000000000000000000000000E3
:04000005080023A527
:00000001FF
