:020000040800F2
:1080000000000520E9C60108C5920008C7920008D3
:10801000C9920008CB920008CD9200080000000031
:1080200000000000000000000000000041280108DE
:10803000CF92000800000000E1280108452901084E
:1080400039C7010839C7010839C7010839C701080C
:1080500039C7010839C7010839C7010839C70108FC
:1080600039C7010839C7010839C7010839C70108EC
:1080700039C7010839C7010839C7010839C70108DC
:1080800039C7010839C7010839C7010839C70108CC
:1080900039C7010839C7010839C7010839C70108BC
:1080A00039C7010839C7010839C7010839C70108AC
:1080B00039C7010839C7010839C7010839C701089C
:1080C00039C7010839C7010839C7010839C701088C
:1080D00039C7010839C7010839C7010839C701087C
:1080E00039C7010839C7010839C7010839C701086C
:1080F00039C7010839C7010839C7010839C701085C
:1081000039C7010839C7010839C7010839C701084B
:1081100039C7010839C70108D192000839C70108D9
:1081200039C7010839C7010839C7010839C701082B
:1081300039C70108E192000839C7010839C70108A9
:1081400039C7010839C7010839C70108F192000889
:1081500039C7010839C7010839C7010839C70108FB
:1081600039C7010839C7010839C7010839C70108EB
:1081700039C7010839C7010839C7010800000000E4
:1081800039C7010839C7010839C7010839C70108CB
:1081900039C7010839C7010839C7010839C70108BB
:1081A0000193000839C701081193000839C7010875
:1081B00039C7010839C7010839C7010839C701089B
:0881C00039C7010839C70108A5
:1081D00010B5054C237833B9044B13B10448AFF301
:1081E00000800123237010BD040200200000000065
:1081F00078DC010808B5034B1BB103490348AFF312
:10820000008008BD000000000802002078DC0108A2
:1082100010F8012B11F8013B012A28BF9A42F7D030
:10822000D01A7047034613F8012B002AFBD1181A05
:10823000013870470000000000000000000000004E
:1082400001F0FF01102A2BDB10F0070F08D010F807
:10825000013B013A8B422DD010F0070F42B3F6D10B
:10826000F0B441EA012141EA014122F007047FF024
:1082700000070023F0E80256083C85EA010586EA7B
:10828000010685FA47F5A3FA87F586FA47F6A5FAB7
:1082900087F68EB9EED1F0BC01F0FF0102F00702C3
:1082A00032B110F8013B013A83EA010313B1F8D16E
:1082B0000020704701387047002D06BF354603384F
:1082C000073815F0010F07D1013015F4807F02BF88
:1082D000013015F4C03F0130F0BC0138704700BFD9
:1082E00053B94AB9002908BF00281CBF4FF0FF311D
:1082F0004FF0FF3000F072B9ADF1080C6DE904CE1B
:1083000000F006F8DDF804E0DDE9022304B0704770
:108310002DE9F047089E04468846002B4BD18A423F
:10832000154667D9B2FA82F24AB1C2F1200701FAC2
:1083300002F320FA07F7954047EA030894404FEA12
:10834000154E230CB8FBFEF71FFA85FC0EFB1788B1
:1083500043EA084307FB0CF1994209D9EB1807F1EE
:10836000FF3080F01B81994240F21881023F2B447C
:108370005B1AA4B2B3FBFEF00EFB103344EA0344D5
:1083800000FB0CFCA44509D92C1900F1FF3380F047
:108390000781A44540F2048102382C4440EA07409A
:1083A000A4EB0C0400271EB1D4400023C6E900430F
:1083B0003946BDE8F0878B4209D9002E00F0EB80EA
:1083C0000027C6E9000138463946BDE8F087B3FA10
:1083D00083F7002F47D18B4202D3824200F2FA800A
:1083E000841A61EB030301209846002EE0D0C6E911
:1083F0000048DDE702B9FFDEB2FA82F2002A40F05F
:108400008F80491B4FEA154E1FFA85F80127B1FBF3
:10841000FEFC230C0EFB1C1143EA014308FB0CF18C
:10842000994207D9EB180CF1FF3002D2994200F2C1
:10843000CD808446591AA3B2B1FBFEF00EFB101496
:1084400043EA044408FB00F8A04507D92C1900F1C1
:10845000FF3302D2A04500F2B6801846A4EB080410
:1084600040EA0C409FE7C7F1200CBB4022FA0CFE0B
:108470004EEA030E01FA07F420FA0CF521FA0CF388
:108480004FEA1E482543B3FBF8F92C0C08FB1933BF
:108490001FFA8EFA44EA034309FB0AF49C4202FAEB
:1084A00007F200FA07F10BD91EEB030309F1FF30C5
:1084B00080F087809C4240F28480A9F102097344D5
:1084C0001B1BADB2B3FBF8F008FB103345EA0344C5
:1084D00000FB0AFAA24508D91EEB040400F1FF33A1
:1084E0006BD2A24569D90238744440EA0940A0FB26
:1084F0000289A4EB0A044C45C2464B4654D351D0E2
:10850000002E69D0B1EB0A0564EB030404FA0CFCFD
:10851000FD40FC404CEA0505C6E90054002747E74A
:10852000C2F1200320FA03F7954001FA02F021FA84
:1085300003F34FEA154E3843010CB3FBFEF71FFA65
:1085400085F80EFB173341EA034107FB08F38B4222
:1085500004FA02F407D9691807F1FF3C2FD28B42C5
:108560002DD9023F2944CB1A81B2B3FBFEF00EFB9A
:10857000103341EA034100FB08F38B4207D9691825
:1085800000F1FF3C17D28B4215D902382944C91A91
:1085900040EA07473BE73746304609E70746E7E644
:1085A0001846FBE64145ABD2B8EB020A69EB0E0276
:1085B00001381346A4E76046E9E7184695E76746A1
:1085C000D1E781467CE702382C4447E7ACF1020C46
:1085D0002B442FE7384608E73746E9E6704700BFE7
:1085E0002DE9F04F91B000240B940C940D940E944F
:1085F0000F94994B1A6B42F010021A631A6B02F037
:1086000010020092009A1A6B42F040021A631A6B31
:1086100002F040020192019A1A6B42F002021A63C0
:108620001A6B02F002020292029A1A6B42F00802DE
:108630001A631A6B02F008020392039A1A6B42F053
:1086400004021A631A6B02F004020492049A1A6B71
:1086500042F001021A631A6B02F001020592059AB8
:108660001A6B42F400721A631A6B02F400720692DB
:10867000069A1A6B42F480721A631A6B02F48072C3
:108680000792079A1A6B42F480621A631A6B02F41B
:1086900080620892089A1A6B42F020021A631A6BE1
:1086A00002F020020992099A1A6B42F080021A63C2
:1086B0001B6B03F080030A930A9B01222021674869
:1086C00003F06AFF22460C21654803F065FF012292
:1086D0000821644803F060FF01224FF48051604894
:1086E00003F05AFF22464FF400515F4803F054FF55
:1086F0002246C8215D4803F04FFF4FF0080ACDF82D
:108700002CA00C940D940BA9594803F057FE43F686
:1087100023430B934FF00208CDF830800D940327CC
:108720000E970A260F960BA9524803F047FE4FF406
:1087300080530B930C940D940BA94F4803F03EFE0D
:1087400040230B93DFF83CB1CDF830B00D940BA96A
:10875000424803F033FE20230B9301250C950D9422
:108760000E940BA93D4803F029FE41F20C030B9334
:108770000C950D940E940BA9394803F01FFE4FF48D
:108780000059CDF82C900C940D940BA93B4803F0A4
:1087900015FECDF82CA00C950D940E940BA9314824
:1087A00003F00CFE4FF0100ACDF82CA00C940D94A1
:1087B0000BA92A4803F002FE48F204030B930C9421
:1087C0000D940BA9284803F0F9FDCDF82C900C95D9
:1087D0000D940E940BA9244803F0F0FDCDF82C90D5
:1087E000CDF830B00D940BA91D4803F0E7FDCDF88E
:1087F0002CA0CDF830800D940E970F960BA91A4837
:1088000003F0DCFDC8230B930C950D940E940BA97B
:10881000164803F0D3FD05230B93CDF830800D945B
:108820000E970F960BA9154803F0C8FD04230B9370
:108830000C940D940BA90D4803F0C0FD28230B9355
:10884000CDF830800D940E970F960BA90C4803F0CD
:10885000B5FD11B0BDE8F08F00380240000C0240B9
:108860000020024000280240001C02400018024084
:1088700000100240000402400024024000080240B0
:10888000000002400000121070B584B00025009571
:108890000195029503950F4C0F4B23606560A56011
:1088A0002561A56184F82050E5620C4BA362E56068
:1088B0000126E66184F830506661204604F0FCFE33
:1088C00004230093019602956946204604F020FF98
:1088D00004B070BD28E60020002201400100000F16
:1088E00008B50648064B03600023037143714361DA
:1088F00083610123036204F0F1FF08BD58E4002006
:108900000030024008B50948094B0360002343606A
:108910008360C36003614361836103624362836276
:10892000C362036312F0FCFA08BD00BF70E60020CA
:108930000000055010B5094C094B2360002363600B
:10894000A360E360A362E36223636363204605F0F0
:108950003BF80121204605F005F910BDA0E80020F4
:1089600000B0024000B589B01348144B03600023E7
:10897000436083600421C160102202614022426191
:108980004FF4C0728261C3614FF4006202624FF41F
:108990008052426283620223019307220292039172
:1089A00004920322059206930793694405F0C2F9E5
:1089B00009B05DF804FB00BF24EC0020400100A0DA
:1089C00038B50D4C0D4B23600D4B63600025A56041
:1089D0000123E36025616561A561E56125622046AB
:1089E00003F0AAFE2946204603F004FF294620464C
:1089F00003F02EFF38BD00BF0CE4002000540040FF
:108A0000FFEAC00038B50D4C0D4B23600D4B636081
:108A10000025A5600123E36025616561A561E5612D
:108A20002562204603F088FE2946204603F0E2FE38
:108A30002946204603F00CFF38BD00BF4CE2002061
:108A4000005C0040FFEAC00030B59BB034242246F1
:108A500000210DEB040013F0E1FE224600216846E0
:108A600013F0DCFE304D314B2B6000246C60AC60A9
:108A7000EC602C6128236B610923AB613523EB612A
:108A80000B232B6240F215236B6240F21B13AB6287
:108A900040F23523EB6240F21D132B6385F834401E
:108AA00085F8354085F83640284605F02DFA0D94B6
:108AB0004FF4F0720E920F944FF4887310930221CA
:108AC0001191FF21129113944FF4C0611491072169
:108AD00015914FF040411691179218938DF864400C
:108AE0008DF865408DF8664022460DA9284605F0B0
:108AF000F5FA0094019402940394059406944FF4BB
:108B0000806307930523089309940A940B948DF8C6
:108B100030408DF831408DF83240012269462846B8
:108B200005F0DCFA1BB030BD80E500200068014094
:108B300008B50848084B0360FF23436001228260A8
:108B40000023C360026143618361C361036205F076
:108B50001BFB08BD58EC0020001000A070B592B0BF
:108B600000240C940D940E940F94109411940B9473
:108B70002C222146684613F051FE274D274B2B60CF
:108B80006C607F23AB60FF23EB602C616C61AC6198
:108B9000284605F08BFB8DF830408DF831408DF87C
:108BA00032401094119401220CA9284605F0DCFBF8
:108BB00001268DF82C608DF82D608DF82E608DF8D3
:108BC0002F4032460BA9284605F04EFC8DF8004098
:108BD0008DF801408DF802400194049405940694A8
:108BE000079408948DF824604FF480730A933246FA
:108BF0006946284605F0A6FC4FF400730A933246F6
:108C00006946284605F09EFC02222146284605F0CA
:108C100049FD12B070BD00BFC0E700200028004031
:108C2000F8B51E481E4B03600024046344604027CF
:108C300047638463C4638460046144618461194B45
:108C4000C361C46044628462C4620826066401256C
:108C500045648464C464046544658465C5650466CC
:108C600005F070FD1048114B03600463032343605B
:108C700047638463C463856004618461C460446243
:108C80008462C462066445648464C46404654465A3
:108C90008465C565046605F055FDF8BD88E30020D0
:108CA000045C014000EE0200C4E10020245C0140AD
:108CB00010B5094C094B236000236360A360E36097
:108CC00023616361A361204606F015FC4FF4006147
:108CD000204606F02FFC10BD7CE40020002C014053
:108CE00008B509484FF040230360002343608360C8
:108CF000C360036143618361C36103624362836252
:108D000006F06AFC08BD00BF3CE3002008B50E4831
:108D10000E4B03604FF482734360002383604FF473
:108D20004072C260036143614FF400728261C361AB
:108D30000362436283620722C262036308234363C0
:108D400006F082FC08BD00BF98E200200038004019
:108D500030B589B0002404940594069407940194D6
:108D6000029403940E4D0F4B2B606C60AC604FF679
:108D7000FF73EB602C616C61AC61284606F04AFF22
:108D80004FF48053049304A9284607F053F8019444
:108D90000294039401A9284607F0BAF809B030BD3F
:108DA000FCE200200004014030B59BB00024169482
:108DB0001794189419941394149415940C940D9476
:108DC0000E940F941094119412942C22214601A811
:108DD00013F024FD214D224B2B606C60AC604FF6EC
:108DE000FF73EB602C616C61AC61284606F012FFEA
:108DF0004FF48053169316A9284607F01BF828460F
:108E000006F021FF13941494159413A9284607F033
:108E10007FF860230C930D940E940F94109411948A
:108E2000129422460CA9284606F05EFF0194029493
:108E30000394049405944FF4005306930794089404
:108E40004FF0007309930A940B9401A9284607F088
:108E5000AFF8284600F098FE1BB030BDE0E70020D8
:108E60000000014030B58FB000240A940B940C949C
:108E70000D94079408940994009401940294039427
:108E8000049405940694164D4FF080432B606C605B
:108E9000AC604FF0FF33EB602C61AC61284606F00C
:108EA000B9FE4FF480530A930AA9284606F0C2FF80
:108EB000284606F0C8FE0794099407A9284607F03B
:108EC00027F8602300930194029404942246694693
:108ED000284606F009FF284600F056FE0FB030BDC8
:108EE000E0E8002030B58FB000240A940B940C9475
:108EF0000D940794089409940094019402940394A7
:108F0000049405940694164D164B2B606C60AC606F
:108F10004FF6FF73EB602C61AC61284606F07AFED9
:108F20004FF480530A930AA9284606F083FF284687
:108F300006F089FE0794099407A9284606F0E8FF81
:108F400060230093019402940494224669462846C3
:108F500006F0CAFE284600F017FE0FB030BD00BF75
:108F600040E500200004004030B58FB000240A9492
:108F70000B940C940D940794089409940094019414
:108F800002940394049405940694164D164B2B609A
:108F90006C60AC604FF0FF33EB602C61AC61284635
:108FA00006F038FE4FF480530A930AA9284606F0CB
:108FB00041FF284606F047FE0794099407A9284672
:108FC00006F0A6FF602300930194029404940C22FF
:108FD0006946284606F088FE284600F0D5FD0FB009
:108FE00030BD00BF00E50020000C004030B589B066
:108FF0000024019402940394049405940694079425
:109000000D4D0E4B2B606C60AC604FF6FF73EB6048
:109010002C61AC61284606F016FE60230193029491
:1090200003940594224601A9284606F05DFE2846D1
:1090300000F0AAFD09B030BDE4EB002000180040AC
:1090400008B50948094B03604FF4E133436000233E
:109050008360C36003610C2242618361C361036268
:10906000436207F0ECFA08BD40E700200010014021
:1090700008B50948094B03604FF4E133436000230E
:109080008360C36003610C2242618361C361036238
:10909000436207F0D4FA08BD20E800200014014024
:1090A00008B508484FF0A0430360082383600123FC
:1090B000C3600023036102228261C36103F032FCBA
:1090C00008BD00BF20E9002010B501F065FA11F0DD
:1090D0007FFF094811F02CFB002402E0322011F040
:1090E00021FC002011F0F6FB0134642CF6D9034872
:1090F00011F01EFB0024F1E790DC0108A4DC01085C
:10910000F0B5B5B03022002128A813F087FB002469
:10911000239424942594269427948422214602A8FB
:1091200013F07CFB03F03EFA2B4B1A6C42F080529A
:109130001A641B6C03F080530093009B274A13684A
:1091400023F4404343F480431360136803F4404323
:109150000193019B092328934FF480322992012621
:109160002D9602252E954FF480022F9219223092CF
:10917000642731973295339328A802F05DF803F005
:1091800019FA0F2323932495259426944FF48053A2
:109190002793314623A802F0BDFA114B029303979F
:1091A000069504950595C0230793099508950A9699
:1091B0000B960C960D944FF400730E931294139427
:1091C00018941B941D944FF000632193229402A8DD
:1091D00002F098FB35B0F0BD00380240007000404E
:1091E0006848B10108B503F075FAFFF789FFFFF78A
:1091F000F7F9FFF749FBFFF773FBFFF783FBFFF777
:1092000099FBFFF7AFFBFFF7DBFBFFF7FBFBFFF77C
:109210001BFCFFF78DFCFFF7A1FCFFF701FDFFF73B
:1092200047FDFFF75DFDFFF771FDFFF7BDFDFFF7A0
:1092300019FEFFF757FEFFF797FEFFF789FDFFF7CF
:10924000D5FEFFF7FDFEFFF713FFFFF729FF0948E3
:1092500011F06EFA11F07AFA074A0021074811F06E
:10926000CFFA074B186011F091FA064811F060FA36
:10927000FEE700BFD8DC0108B4DC0108C990000893
:1092800048E20020E8DC010808B50268034B9A4276
:1092900000D008BD03F02AFAFBE700BF0010004031
:1092A0007047000008B5024811F042FA08BD00BF3F
:1092B00024DD010808B5024811F03AFA08BD00BFE4
:1092C00004DD01087047FEE7FEE7FEE7FEE77047B2
:1092D00008B5024806F04AFB08BD00BFA4EC002018
:1092E00008B5024801F0E6FC08BD00BFB405012046
:1092F00008B5024803F0B8FE08BD00BF20E9002011
:1093000008B5024804F07DFE08BD00BF80E50020DE
:1093100008B5024804F088FB08BD00BFA0E80020A3
:10932000F0B587B000230193029303930493059350
:109330002A4B1B680BB107B0F0BD284B01221A6005
:10934000274B9A6B42F001029A639B6B03F0010377
:109350000093009B4FF68373019302260296032528
:1093600004950C24059401A91E4803F027F848F23F
:10937000331301930296002703970495059401A9DE
:10938000194803F01BF84CF20373019302960397FC
:109390000495059401A9154803F010F84FF63F0312
:1093A0000193029603970495059401A9104803F0D0
:1093B00005F828230193029603970495059401A9C3
:1093C0000C4802F0FBFF08230193029603970495D3
:1093D000059401A9084802F0F1FFACE72002002043
:1093E000003802400010024000180240000C024009
:1093F00000140240001C02400008024000B583B087
:109400000D4B1A6C42F080521A641A6C02F08052B2
:109410000092009A5A6C42F480425A645B6C03F4E6
:1094200080430193019B00220F216FF0010003F0A4
:1094300011F903B05DF804FB0038024010B588B0A4
:1094400000230393049305930693079302681A4B32
:109450009A4201D008B010BD03F58B335A6C42F428
:1094600080625A645A6C02F480620092009A1A6B0D
:1094700042F020021A631A6B02F020020192019A54
:109480001A6B42F001021A631B6B03F00103029393
:10949000029B4FF4F86303930324049403A9074841
:1094A00002F08CFF0123039304940023059303A986
:1094B000034802F083FFCDE7002201400014024080
:1094C000000002400268094B9A4200D0704782B007
:1094D00003F500631A6B42F480521A631B6B03F4AA
:1094E00080530193019B02B0704700BF00300240DF
:1094F00070B58CB000230793089309930A930B93DC
:109500000268394B9A4201D00CB070BD374B5A6B90
:1095100042F001025A635A6B02F001020192019A71
:109520001A6B42F010021A631A6B02F010020292D8
:10953000029A1A6B42F008021A631A6B02F00802D0
:109540000392039A1A6B42F040021A631A6B02F0FC
:1095500040020492049A1A6B42F080021A631A6B5A
:1095600002F080020592059A1A6B42F001021A631A
:109570001B6B03F001030693069B602307930226EF
:1095800008960D250B9507A9194802F017FF082327
:1095900007930896002409940A940B9507A9154887
:1095A00002F00CFF4FF400730793089609940A9495
:1095B0000B9507A9104802F001FF4FF4BC43079335
:1095C000089609940A940B9507A90C4802F0F6FE38
:1095D00050230793089609940A940B9507A9084805
:1095E00002F0ECFE90E700BF00000550003802409A
:1095F00000100240000C024000180240001C024013
:109600000000024002680E4B9A4200D0704700B53D
:1096100083B0A3F5F0431A6B42F400021A631B6B8C
:1096200003F400030193019B002211465A2003F02A
:1096300011F85A2003F040F803B05DF804FB00BFB6
:1096400000B0024010B58AB000230593069307933B
:10965000089309930368264A934204D0254A93420B
:1096600022D00AB010BD244C236B43F002032363C5
:10967000236B03F002030193019B4FF440730593A6
:1096800012230693012307930423099305A91B487A
:1096900002F094FE236C43F400132364236C03F460
:1096A00000130293029BDCE7134C236B43F080030F
:1096B0002363236B03F080030393039B4FF4C07376
:1096C000059312230693012307930323089304238E
:1096D000099305A90A4802F071FE236C43F40003C4
:1096E0002364236C03F400030493049BB9E700BFD5
:1096F00000540040005C004000380240000402407A
:10970000001C024070B58CB00023079308930993A6
:109710000A930B9302683E4B9A4201D00CB070BD85
:1097200003F550435A6C42F080625A645A6C02F05E
:1097300080620192019A1A6B42F010021A631A6B4E
:1097400002F010020292029A1A6B42F400721A633B
:109750001A6B02F400720392039A1A6B42F480624D
:109760001A631A6B02F480620492049A1A6B42F034
:1097700040021A631A6B02F040020592059A1A6BB6
:1097800042F480721A631B6B03F480730693069B8A
:1097900010230793022508950E260B9607A91D484E
:1097A00002F00CFE4EF6FF7307930895002409940F
:1097B0000A940B9607A9184802F000FEF7230793B6
:1097C000089509940A940B9607A9144802F0F6FD2F
:1097D0004FF480530793089509940A9409230B9337
:1097E00007A90F4802F0EAFD4FF446430793089596
:1097F00009940A940B9607A90A4802F0DFFD224655
:109800002146582002F026FF582002F055FF85E738
:10981000006801400010024000240240002802407D
:1098200000180240002002402DE9F0438BB00023D5
:109830000593069307930893099302682E4B9A4267
:1098400002D00BB0BDE8F0832C4B9A6B42F00202C1
:109850009A639A6B02F002020192019A1A6B42F02B
:1098600010021A631A6B02F010020292029A1A6B2B
:1098700042F002021A631A6B02F002020392039A88
:109880001A6B42F008021A631B6B03F0080304937F
:10989000049B4FF00409CDF814900225069503248B
:1098A00008940926099605A9154802F087FD40236A
:1098B000059306950027079708940A230993DFF874
:1098C000488005A9404602F079FDCDF81490069530
:1098D00007970894099605A9404602F06FFD4FF4DA
:1098E00060530593069507970894099605A90548BE
:1098F00002F064FDA5E700BF001000A000380240A0
:1099000000100240000C0240000402400268054BB7
:109910009A4200D07047044A136F43F40043136720
:10992000F8E700BF002800400038024070B588B05A
:1099300000230393049305930693079302681E4B39
:109940009A4201D008B070BD03F586335A6C42F4D8
:1099500000625A645A6C02F400620092009A1A6B18
:1099600042F004021A631A6B02F004020192019A97
:109970001A6B42F008021A631B6B03F00803029390
:10998000029B4FF4F8530393022604960325069591
:109990000C2407940DEB0401084802F00FFD04238A
:1099A0000393049600230593069507940DEB040199
:1099B000034802F003FDC5E7002C01400008024007
:1099C000000C024000B589B0002303930493059373
:1099D000069307930368B3F1402F02D009B05DF8F6
:1099E00004FB03F5FC331A6C42F480321A641A6CDF
:1099F00002F480320192019A1A6B42F008021A6353
:109A00001B6B03F008030293029B80230393022342
:109A100004930823079303A9014802F0CFFCDDE774
:109A2000000C024030B589B00023039304930593E2
:109A30000693079302681C4B9A4201D009B030BDCF
:109A400003F500331A6C42F480421A641A6C02F473
:109A500080420092009A1A6B42F480721A631A6B69
:109A600002F480720192019A1A6B42F002021A63A8
:109A70001B6B03F002030293029B022403940494E1
:109A80000525079503A9094802F098FC4FF44043C7
:109A900003930494002305930693079503A90448B0
:109AA00002F08CFCCAE700BF0038004000200240F2
:109AB0000004024086B00368234A934216D0B3F1F3
:109AC000804F1FD0214A934228D0214A934230D060
:109AD000204A934214D1204B5A6C42F002025A643D
:109AE0005B6C03F002030593059B09E01A4B5A6C6B
:109AF00042F001025A645B6C03F001030193019B85
:109B000006B0704703F50E331A6C42F001021A6476
:109B10001B6C03F001030293029BF1E70E4B1A6CDE
:109B200042F002021A641B6C03F002030393039BCE
:109B3000E6E7094B1A6C42F008021A641B6C03F04A
:109B400008030493049BDBE700000140000400408D
:109B5000000C004000040140003802400268094B3C
:109B60009A4200D0704782B003F508331A6C42F075
:109B700040021A641B6C03F040030193019B02B086
:109B8000704700BF0018004000B58BB0002305935C
:109B9000069307930893099303683E4A93420ED0B5
:109BA000B3F1804F21D03C4A934235D03B4A934297
:109BB00046D03B4A934257D00BB05DF804FB394B7B
:109BC0001A6B42F001021A631B6B03F0010300934E
:109BD000009B4FF48073059302230693012309939E
:109BE00005A9314802F0EAFBE6E703F50E331A6BEC
:109BF00042F001021A631B6B03F001030193019B06
:109C00004FF400430593022306930123099305A90A
:109C1000254802F0D3FBCFE7224B1A6B42F0020239
:109C20001A631B6B03F002030293029B102305933C
:109C300002230693099305A91C4802F0BFFBBBE76A
:109C4000184B1A6B42F480721A631B6B03F4807317
:109C50000393039B0123059302230693099305A90C
:109C6000134802F0ABFBA7E70E4B1A6B42F08002E1
:109C70001A631B6B03F080030493049B402305933A
:109C8000022306930923099305A90A4802F096FBCB
:109C900092E700BF0000014000040040000C0040BB
:109CA000001800400038024000000240000402405A
:109CB00000200240001C024030B58BB00023059309
:109CC000069307930893099303682D4A934204D09F
:109CD0002C4A934234D00BB030BD2B4B5A6C42F01F
:109CE00010025A645A6C02F010020092009A1A6B29
:109CF00042F002021A631A6B02F002020192019A08
:109D00001A6B42F001021A631B6B03F0010302930A
:109D1000029B80230593022506950724099405A933
:109D20001A4802F04BFB4FF400730593069500238D
:109D300007930893099405A9154802F03FFBCAE769
:109D4000114B5A6C42F020025A645A6C02F0200205
:109D50000392039A1A6B42F004021A631B6B03F01E
:109D600004030493049BC023059302230693032357
:109D700008930823099305A9064802F01FFBAAE7E8
:109D8000001001400014014000380240000402406D
:109D9000000002400008024010B588B00023039381
:109DA00004930593069307930368B3F1A04F01D082
:109DB00008B010BD184C236B43F001032363236BE1
:109DC00003F001030093009B4FF4E053039302233D
:109DD0000493032306930A23079303A90F4802F071
:109DE000EDFA636B43F080036363636B03F08003FE
:109DF0000193019B636C43F480436364636C03F4DD
:109E000080430293029B00221146432002F022FC71
:109E1000432002F051FCCBE7003802400000024032
:109E200008B5FFF77DFA08BD10B588B00446026892
:109E3000224B9A4205D02268214B9A421FD008B08B
:109E400010BD204B1B684BB91F4A516C41F40001F7
:109E50005164526C02F400020192019A0133194AD2
:109E60001360F023039302230493002305930693C6
:109E70000A23079303A9154802F0A0FADBE7114B68
:109E80001B684BB9104A516C41F400015164526C8B
:109E900002F400020292029A01330A4A13604FF45C
:109EA00080630393022304930023059306930A23FC
:109EB000079303A9064802F081FAC0E7045C014059
:109EC000245C0140240200200038024000200240AF
:109ED0000018024000B589B000220146362002F089
:109EE000B9FB362002F0E8FB144B1A6C42F010026A
:109EF0001A641B6C03F010030193019B02A903A8D1
:109F000001F0E2FC01F0C0FC0D4BA3FB00239B0C15
:109F1000013B0C480C4A026040F2E732C2604360E9
:109F200000230361836005F075FE18B1012009B0BC
:109F30005DF804FB034805F0FFFCF8E70038024039
:109F400083DE1B43A4EC0020001000402DE9F04705
:109F5000334800F061FE00285ED1314B998FD3F871
:109F6000409029B94FF000082D4B1B6B00213AE0BF
:109F70004FF4C1720AF054F980460028F4D0284BFF
:109F80001F6B8246002421E0DAF8040040F2F4520C
:109F9000121B09EB0401304412F01CFCFF68D7F8D7
:109FA0000890A5F2F452361B06F2F4560024A518C8
:109FB00040F2F4539D42E7D8DAF8040009EB0401BB
:109FC000304412F007FCDAF800A02C46BAF1000F7A
:109FD000CAD0BAF80A200026E9E71A6842F000421F
:109FE0001A60DB6801310E4A926B8A42F5D80C4B3D
:109FF00000229A631B6841F214029A5812F0800FF3
:10A0000007D041F214028021995041F20802002148
:10A0100099504046BDE8F0874FF00008F9E700BFCF
:10A02000B405012038B505464FF0FF310E4B1868D6
:10A0300010F0D8FD0028F7D104E00C4810F0F1FA38
:10A04000002CF1D0094810F0E5FA2846FFF77EFF12
:10A0500004460028F1D02B69294698470028ECD007
:10A0600020460AF075F8E8E728020020AC1E01201F
:10A070002DE9F84F8B462C4BDE6AD6F808A0002459
:10A080002746BBF1000F32D03368002B35DBBBF81D
:10A090000A90002504EB090840F2F453984519D9B9
:10A0A000DBF8041040F2F452121B29440AEB0400BE
:10A0B00012F090FBF6683368002B21DBD6F808A07D
:10A0C000A8F2F4592D1B05F2F4553F1B07F2F45783
:10A0D0000024DFE7DBF804104A4629440AEB0400B9
:10A0E00012F078FB4F44DBF800B04446C9E739462C
:10A0F0000D4800F001FD002004E06FF0070001E0D2
:10A100006FF00700084B1B6841F214029A5812F0D6
:10A11000200F07D041F214022021995041F204028D
:10A1200000219950BDE8F88FB405012030B58DB0FD
:10A13000044600230B933F483F4A026001224260DD
:10A1400003828DF8003080218DF80110E1218DF817
:10A1500002108DF803308DF804308DF80530C0F80A
:10A1600014D08261C3614FF40003036200F05EFE0D
:10A1700028B994F8353043F0040384F835302D4D78
:10A1800004232E4A2E49284600F047FC04232D4A7A
:10A190002D49284600F07AFC062384F834306B6998
:10A1A0001A7884F82E205A7884F82F209A7884F828
:10A1B0003020DA7884F831201A7984F832205B79FB
:10A1C00084F8333040F2DC53A38594F8353043F003
:10A1D0000A0384F8353000220121084610F092FC71
:10A1E0001A4B18602022002103A812F017FB184B0D
:10A1F00002934FF4AF6307933023089302AA2146DA
:10A20000144810F0FDFA284600F03AFF0BAA1D2171
:10A21000284600F095FD0B9A42F00B020B921D218F
:10A22000284600F0C9FD0BAA1D21284600F088FD34
:10A230000DB030BDB405012000800240FC050120B6
:10A24000E4EC002064ED0020340501202802002009
:10A2500088DD010825A00008F0B58DB00023079324
:10A26000089309930A930B930268344B9A4201D0E6
:10A270000DB0F0BDA3F590431A6B42F000721A6363
:10A280001A6B02F000720192019A1A6B42F080621E
:10A290001A631A6B02F080620292029A1A6B42F001
:10A2A00000621A631A6B02F000620392039A1A6B3F
:10A2B00042F040021A631A6B02F040020492049AC0
:10A2C0001A6B42F004021A631A6B02F00402059240
:10A2D000059A1A6B42F001021A631B6B03F001032B
:10A2E0000693069B4FF4D043079302270897032653
:10A2F0000A960B250B9507A9114802F05FF8322347
:10A3000007930897002409940A960B9507A90D480E
:10A3100002F054F886230793089709940A960B9540
:10A3200007A9094802F04AF8224605213D2002F01B
:10A3300091F93D2002F0C0F99AE700BF0080024089
:10A3400000180240000802400000024008B5024B1D
:10A35000186810F08BFC08BD2802002010B50446D8
:10A3600070B1732384F83630742384F83730084B87
:10A370006361084BA3612046FFF7D8FE002010BDA3
:10A38000054B4FF41A720549054812F04FFAE8E7F9
:10A390004D95010871A0000834DD010850DD010869
:10A3A00060DD010808B502F0ADF908BD10B582B056
:10A3B00004460023019304E009F080FDC82010F05A
:10A3C000B1FA01AA01210B4800F0BAFC019B03F08D
:10A3D00004030193206890F8352012F0040F01D196
:10A3E000002BE9D112F0040FE8D0002BE6D109F0E0
:10A3F00093FDE3E7B40501207047000030B583B05A
:10A40000044600230193009390F8353013F0040FB5
:10A4100051D02B4B5B68002B35D04FF4805200217C
:10A42000274800F0C9FC02F06DF901906A4601214D
:10A43000234800F085FC02F065F9019BC01AB0F5D5
:10A440007A7F20D8009B13F0200FEFD06A461F219F
:10A450001B4800F075FC009B13F0100F0AD0184A3F
:10A460004FF40061D16013F0040F07D0144B0022A9
:10A470009A6013E0124A0021D160F4E7104B4FF4C8
:10A4800080429A600AE00E48C268C2F3CF02836835
:10A49000C3F34F031A43002100F08EFC084D002146
:10A4A000284600F031FE284600F0EAFD2046FFF77E
:10A4B000A3FF03B030BD024800F004FEF6E700BF82
:10A4C000B405012030B583B02A4C7E2221462A48AB
:10A4D00010F0D6F82188A288E38820896589019543
:10A4E0000090264810F024F9A189E289238A608A25
:10A4F0000090234810F01CF9A18AE28A238B608B1C
:10A500000090204810F014F923880B2B01D103B0E0
:10A5100030BDC020A080A821E1800B2323810A2226
:10A520006281FF22A281E281228200256582A082CF
:10A53000E18223830122628323807E21124810F06E
:10A54000F7F87E2221460C4810F0BCF800220023C8
:10A550000E49284601F066FEBFF34F8F0C49CA68CA
:10A5600002F4E0620B4B1343CB60BFF34F8F00BF8D
:10A57000FDE700BFC0E600200001000898DD0108EB
:10A58000B0DD0108D0DD0108F0DD01080080000821
:10A5900000ED00E00400FA05F0B585B0774FC0206B
:10A5A0003870A82179700B22BA706423FB70744E46
:10A5B000FF2333707370B3700024F470714D2870F2
:10A5C0006970AA700123EB702146204608F0E4FB75
:10A5D0003A787B781B0443EA0263BA7843EA0223A1
:10A5E000FA7813431A0202F47F0242EA0362190A5C
:10A5F00001F47F410A4342EA136363490B603278F6
:10A6000073781B0443EA0263B27843EA0223F278C8
:10A6100013431A0202F47F0242EA0362180A00F4AA
:10A620007F40024342EA1363584A136028786B78EC
:10A630001B0443EA0063A87843EA0023E878034355
:10A64000180200F47F0040EA03601D0A05F47F450C
:10A65000284340EA13604E4B18604E4D4E4802901E
:10A660004E4801900094284609F030FB284609F036
:10A6700097FA95F8353013F0040F7AD1454809F070
:10A68000E9FB444C4649204609F090FA002201219A
:10A69000084610F037FA434B1860434D2C60686051
:10A6A000424E20220021304612F0B8F8321F404BB3
:10A6B00046F8043C4FF4006353611023936129462C
:10A6C0003C4810F09DF8FFF7FDFE3B488288C388A8
:10A6D0001B0403F47F0343EA02630289120292B26D
:10A6E0001343827A13431A0202F47F0242EA03629E
:10A6F000190A01F47F410A4342EA136322490B60BD
:10A700008289C3891B0403F47F0343EA0263028A3C
:10A71000120292B21343827C13431A0202F47F02A4
:10A7200042EA03621D0A05F47F452A4342EA1363A5
:10A73000164A1360858AC38A1B0403F47F0343EA25
:10A740000563058B2D02ADB22B43807E03431802B7
:10A7500000F47F0040EA03601D0A05F47F452843AA
:10A7600040EA13600A4B1860204609F055FA05B01C
:10A77000F0BD284609F042FB83E700BF401E0120E0
:10A780003C1E0120D41D0120381E0120441E012042
:10A79000481E0120FC1D0120752D01085DA3000845
:10A7A000FDA300082C020020CC1D0120DC1D01208F
:10A7B00090DD0108ADA30008C0E6002050791379B0
:10A7C00043EA002307480B50D07893781B0443EAF0
:10A7D0000063507843EA002312781343024A8B50F7
:10A7E000704700BF4080024044800240016841F24F
:10A7F00018028B5843F400538B507047016841F2A4
:10A8000018028B5823F400538B507047016841F2B3
:10A8100018028B5843F002038B507047016841F2D5
:10A8200018028B5823F002038B50704770B59EB00E
:10A83000044629B14FF40063C3604FF48043836042
:10A84000E369002B68D14FF48063079321680B689C
:10A85000374A1A40A368E06803430798034343F468
:10A86000007313430B6023681D68012001F050FF43
:10A8700023681D60236840225A6023685D680120B8
:10A8800001F046FF23685D60236800259D60236812
:10A89000DD602268936923F0BE031B041B0C43F0A8
:10A8A0008003936123689E69012001F031FF2368D2
:10A8B0009E612368DD612368DD69012001F028FFC6
:10A8C0002368DD61216841F218054B59194A1A4085
:10A8D000194B13434B5123685E59012001F018FFB7
:10A8E00023685E51236803F58053144A1A60236875
:10A8F00003F580531D68012001F00AFF236803F56A
:10A9000080531D60A369012B09D062690021204694
:10A91000FFF754FF1EB070BD0023079396E7216830
:10A9200041F21C028858064B03438B50EDE700BFF1
:10A930000F8120FF233FDEF8040020028020C102A7
:10A940004000010010B582B0044600230193026864
:10A95000136843F00803136003681B680193012028
:10A9600001F0D6FE2368019A1A6002B010BD10B53E
:10A9700082B00446002301930268136843F0040385
:10A98000136003681B680193012001F0C1FE236876
:10A99000019A1A6002B010BD30B583B0054600239D
:10A9A0000193026841F21804135943F480131351C0
:10A9B00003681B590193012001F0AAFE2B68019A3C
:10A9C0001A5103B030BD10B582B004460023019384
:10A9D0000268136823F00403136003681B68019383
:10A9E000012001F095FE2368019A1A6002B010BDA3
:10A9F00010B582B00446002301930268136823F067
:10AA00000803136003681B680193012001F080FEB6
:10AA10002368019A1A6002B010BDF0B490F8454066
:10AA2000012C31D0012480F84540022480F84440B4
:10AA3000C162002401E0F96001349C4217D2650133
:10AA40004F194FF480164E5140F2F45606FB04267F
:10AA5000BE60C6691EB94E5946F440064E515D1E91
:10AA6000A542E8D9651C01EB4515FD60E4E70268E5
:10AA700041F21003D150012380F84430002380F8C4
:10AA800045301846F0BC70470220FBE7F0B490F860
:10AA90004540012C2ED0012480F84540022480F846
:10AAA00044408162002401E0E96001349C4214D2F8
:10AAB00066018D194FF000478F5144F2F4566E60D5
:10AAC00040F2F45606FB0426AE605E1EA642EBD9A9
:10AAD000661C01EB4616EE60E7E7026841F20C03E4
:10AAE000D150012380F84430002380F845301846C7
:10AAF000F0BC70470220FBE790F84530012B00F0D6
:10AB00008580012380F84530022380F84430B1B1BC
:10AB1000C36A1A68002A1ADB30B440F2F452914238
:10AB20001DD93B4AA2FB0142920A40F2F45404FBB5
:10AB3000121404B10132012A11D0002347E001238D
:10AB400080F84430002280F84520184670471223D0
:10AB500080F84430002380F84530012070471A689F
:10AB600042F040521A60C36AC1F30C015960C26AD4
:10AB7000136843F000431360C36ADB68C362036871
:10AB800041F214029A5812F0040F08D041F2140254
:10AB900004219950026841F204030021D15001239D
:10ABA00080F84430002380F84530184630BC7047A8
:10ABB000C56A2C6844F080542C6011E0C56A2C688A
:10ABC00044F000442C60C46AE468C46201339A42D1
:10ABD000D5D9C56A2C6824F040542C60002BE7D0EE
:10ABE000C46A40F2F4556560541E9C42E6D1C56AC1
:10ABF0002C6844F000542C60064C04FB021404F250
:10AC0000F454C56AC4F30C046C60D7E702207047A3
:10AC10000BB002AC0CFAFFFF90F84530012B45D089
:10AC2000012380F84530022380F844300021836AF4
:10AC30001A68002A32DB032930D801311A6802F47D
:10AC40004072B2F5007F09D01A6812F4407F0BD130
:10AC5000826B01328263DB688362E8E7036301226F
:10AC60008263DB688362E2E74363826B0132826363
:10AC7000012A11D01A68C2F30D42043AC263026B72
:10AC800092680264DB688362012380F84430002309
:10AC900080F84530184670470363EBE7012380F8DE
:10ACA0004430002280F84520184670470220704743
:10ACB0007047704710B50446036841F214029A5871
:10ACC00012F0400F11D141F214029B5813F0010F02
:10ACD00019D1226841F214034FF48031D150226817
:10ACE000D35813F4004F1BD110BDFFF72FFB226880
:10ACF00041F214034021D150012384F84430002351
:10AD000084F84530E5E7FFF7D3FF2168012341F2DE
:10AD100014028B5084F84430002384F84530D8E77F
:10AD20002046FFF7C6FF226841F214034FF40041AA
:10AD3000D150012384F84430002384F84530D3E710
:10AD4000F8B590F84430DBB2822B33D01646054676
:10AD5000822380F844300268136903F01C03048ADC
:10AD6000E402A4B223438C0104F4F8641C4344F0CD
:10AD70000104146101F0C6FC074614F0010F10D065
:10AD800001F0C0FCC01BB0F5803F02D22B681C69EB
:10AD9000F3E7012385F84430002385F8453003208C
:10ADA00007E02B685B699BB23360012385F8443070
:10ADB0000020F8BD0220FCE790F84430DBB2422BC3
:10ADC00032D070B50546422380F8443000680369EC
:10ADD00003F01C032C8AE402A4B223438C0104F484
:10ADE000F8641C4344F0030492B242612B681C6176
:10ADF00001F088FC064614F0010F10D001F082FC2F
:10AE0000801BB0F5803F02D22B681C69F3E7012359
:10AE100085F84430002385F84530032003E0012302
:10AE200085F84430002070BD0220704770B582B0B4
:10AE300000230193002800F00D81044690F844306F
:10AE4000002B32D0844B5A6C42F480425A645B6CC3
:10AE500003F480430093009B804B5A6822F4000265
:10AE60005A605A68216A0A435A60236803F580537E
:10AE70001A6842F001021A6001F044FC054623689A
:10AE800003F58052126812F0010F13D001F03AFC62
:10AE9000401BB0F5FA7FF2D9032584F84450002313
:10AEA00084F84530284602B070BD80F84530FFF781
:10AEB000D3F9C7E71D6925F01C0500F0DFFC684BDE
:10AEC0000344684A934256D845F0080523681D613B
:10AED0004FF4004200212046FFF76EFF0546002890
:10AEE00061D140F6FF7001F013FC6368002B00F0A5
:10AEF000918001F007FC064601AA01212046FFF7D8
:10AF00001FFF01F0FFFB801B41F28833984252D8AB
:10AF1000019B13F0040FEFD04FF480520021204624
:10AF2000FFF74AFF002852D101F0ECFB064601AAC8
:10AF300001212046FFF704FF01F0E4FB801B41F2F2
:10AF4000883398424BD8019B13F0200FEFD001AA11
:10AF50001F212046FFF7F4FE00284CD1019B13F07F
:10AF6000100F50D04FF40062E26013F0040F4DD088
:10AF70000023A3605EE03C4B03443C4A934202D86A
:10AF800045F00C05A2E73A4B03443A4A93429DD957
:10AF9000394B0344394A934202D845F0040595E7FA
:10AFA00045F0100592E701212046FFF73FFC0125FF
:10AFB00084F8445076E701212046FFF737FC01234F
:10AFC00084F84430002384F8453003256AE70121E2
:10AFD0002046FFF72BFC012584F8445062E701214D
:10AFE0002046FFF723FC012384F84430002384F833
:10AFF0004530032556E701212046FFF717FC0125C0
:10B0000084F844504EE70022E260AEE74FF48043FC
:10B01000A3600FE0E268C2F3CF02A368C3F34F035B
:10B020001A4300212046FFF7C7FE58B940F6FF70CB
:10B0300001F06EFB00212046FFF7F8FB012384F8A6
:10B0400044302FE701212046FFF7F0FB012584F86B
:10B05000445027E7012525E7003802400038014029
:10B0600000D3CEFEBFE1E40040F1E9FD3F787D0171
:10B0700000796CFCFF596202001F0AFA7FF0FA02A5
:10B0800038B590F84530012B1AD00446012580F8D8
:10B090004550022380F84430FFF754FC2046FFF768
:10B0A00066FC2046FFF778FC2046FFF79FFB204612
:10B0B000FFF7ACFB84F84450002084F8450038BD0D
:10B0C0000220FCE738B590F84530012B1AD0044631
:10B0D000012580F84550022380F84430FFF78EFBAD
:10B0E0002046FFF79BFB2046FFF76DFC2046FFF74D
:10B0F00053FC2046FFF77CFC84F84450002084F881
:10B10000450038BD0220FCE790F84530012B00F0E7
:10B110008E8070B50C460546012380F84530022329
:10B1200080F84430002971D0026813684149194001
:10B13000236860680343A0680343E0680343A8688A
:10B1400003432069034360690343E8680343A0693C
:10B150000343E0690343206A0343606A0343A06A30
:10B1600003430B4313602B681E68012001F0D0FAE3
:10B170002B681E60E36A226B1343626B1343A26B5E
:10B180001343E26B1343226C1343626C1343A16CB1
:10B190002A680B4353602B685E68012001F0B8FAFF
:10B1A0002B685E602B68E26C9A602B68226DDA6017
:10B1B00029688A6922F0BE021204120C606DA36D28
:10B1C00043EA0043E06D0343206E0343606E034394
:10B1D000A06E034313438B612B689E69012001F02D
:10B1E00097FA2B689E61E36E216F2A680B43D36147
:10B1F0002B68DC69012001F08BFA2B68DC610123EC
:10B2000085F84430002085F8450070BD01680A6863
:10B2100022F490428368C068034313430B602B6899
:10B220001C68012001F074FA2B681C60E7E702201B
:10B23000704700BF0F8120FF002800F0098270B521
:10B2400082B00446036813F0010F29D0A24B9B681B
:10B2500003F00C03042B1AD09F4B9B6803F00C03E4
:10B26000082B0FD06368B3F5803F40D0002B54D13A
:10B27000994B1A6822F480321A601A6822F48022EC
:10B280001A6039E0944B5B6813F4800FEAD0924B5C
:10B290001B6813F4003F03D06368002B00F0DA81D1
:10B2A000236813F0020F75D08B4B9B6813F00C0FC3
:10B2B0005ED0894B9B6803F00C03082B53D0E368E6
:10B2C000002B00F08A80844A136843F00103136066
:10B2D00001F018FA0546804B1B6813F0020F73D17A
:10B2E00001F010FA401B0228F5D90320B5E17A4A93
:10B2F000136843F48033136063682BB301F002FAE0
:10B300000546754B1B6813F4003FC9D101F0FAF9EB
:10B31000401B6428F5D903209FE1B3F5A02F09D085
:10B320006D4B1A6822F480321A601A6822F4802267
:10B330001A60E1E7684B1A6842F480221A601A68C2
:10B3400042F480321A60D7E701F0DCF90546624B1F
:10B350001B6813F4003FA3D001F0D4F9401B64280C
:10B36000F5D9032079E15C4B5B6813F4800FA6D11B
:10B37000594B1B6813F0020F04D0E368012B01D076
:10B3800001206AE1544A136823F0F803216943EA73
:10B39000C1031360236813F0080F46D0636983B3B9
:10B3A0004D4A536F43F00103536701F0ABF9054673
:10B3B000494B5B6F13F0020F37D101F0A3F9401B2B
:10B3C0000228F5D9032048E1434A136823F0F80323
:10B3D000216943EAC1031360DCE73F4A136823F0A5
:10B3E0000103136001F08EF905463B4B1B6813F017
:10B3F000020FCFD001F086F9401B0228F5D90320B7
:10B400002BE1354A536F23F00103536701F07AF9BA
:10B410000546314B5B6F13F0020F06D001F072F955
:10B42000401B0228F5D9032017E1236813F0040F0D
:10B430007ED0294B1B6C13F0805F1ED1264B1A6CFB
:10B4400042F080521A641B6C03F080530193019BFD
:10B450000125224B1B6813F4807F10D0A368012BB9
:10B4600021D0002B3CD11C4B1A6F22F001021A672D
:10B470001A6F22F004021A671AE00025E9E7174A5A
:10B48000136843F48073136001F03CF90646134BD4
:10B490001B6813F4807FE1D101F034F9801B64282C
:10B4A000F5D90320D9E00C4A136F43F00103136769
:10B4B000A3685BB301F026F90646074B1B6F13F038
:10B4C000020F34D101F01EF9801B41F288339842FB
:10B4D000F3D90320C1E000BF0038024000700040F3
:10B4E000052B09D0604B1A6F22F001021A671A6F00
:10B4F00022F004021A67DBE75B4B1A6F42F004028A
:10B500001A671A6F42F001021A67D1E701F0FAF8E0
:10B510000646554B1B6F13F0020F08D001F0F2F8EE
:10B52000801B41F288339842F3D9032095E0FDB99E
:10B53000A369002B00F090804B4A926802F00C0245
:10B54000082A58D0022B19D0474A136823F0807379
:10B55000136001F0D7F80446434B1B6813F0007FDB
:10B5600047D001F0CFF8001B0228F5D9032074E082
:10B570003D4A136C23F080531364D9E73A4A1368A9
:10B5800023F08073136001F0BDF80546364B1B684D
:10B5900013F0007F06D001F0B5F8401B0228F5D962
:10B5A00003205AE0E369226A1343626A43EA821382
:10B5B000A26A5208013A43EA0243E26A43EA02639A
:10B5C00043F00053284A5360136843F080731360BC
:10B5D00001F098F80446244B1B6813F0007F06D155
:10B5E00001F090F8001B0228F5D9032035E0002077
:10B5F00033E0002031E01C4A5268012B2FD002F4C6
:10B600008003E1698B4201D0012026E002F03F0374
:10B61000216A8B4201D001201FE0616A47F6C073A6
:10B620001340B3EB811F01D0012016E002F440313A
:10B63000A36A5B08013BB1EB034F01D001200CE092
:10B6400002F07062E36AB2EB036F0AD0012004E0FB
:10B6500001207047012000E0002002B070BD0120F1
:10B66000FBE70020F9E700BF00380240264B9B684B
:10B6700003F00C03042B44D0082B01D0234870475F
:10B680002DE9F04B204B5A6802F03F025B6813F43F
:10B69000800F13D01C4B5968C1F3881100231C483C
:10B6A000A1FB0001FCF71CFE174B5B68C3F30143D1
:10B6B00001335B00B0FBF3F0BDE8F08B124B5B682D
:10B6C000C3F388131E4600275C010025E41A65EBCE
:10B6D0000705A90141EA9461A001001B61EB050186
:10B6E000CB0043EA5073C400A01943EB07018B025F
:10B6F00043EA90538402204619460023FCF7F0FDEC
:10B70000D2E70348704700BF003802400024F4002D
:10B7100040787D01002800F0A38070B50446524BAC
:10B720001B6803F00F038B420CD24F4A136823F0BF
:10B730000F030B431360136803F00F038B4201D018
:10B74000012070BD236813F0020F17D013F0040F0F
:10B7500004D0464A936843F4E0539360236813F09F
:10B76000080F04D0414A936843F4604393603F4A12
:10B77000936823F0F003A068034393600D462368A9
:10B7800013F0010F31D06368012B20D0022B25D09C
:10B79000364A126812F0020F64D034498A6822F0E7
:10B7A000030213438B6000F0ADFF06462F4B9B68EE
:10B7B00003F00C036268B3EB820F16D000F0A2FF17
:10B7C000801B41F288339842F0D90320B9E7274A19
:10B7D000126812F4003FE0D10120B2E7234A126858
:10B7E00012F0007FD9D10120ABE71F4B1B6803F09B
:10B7F0000F03AB420CD91C4A136823F00F032B43F1
:10B800001360136803F00F03AB4201D0012098E7E7
:10B81000236813F0040F06D0144A936823F4E0530E
:10B82000E1680B439360236813F0080F07D00F4AB9
:10B83000936823F46043216943EAC1039360FFF7EF
:10B8400015FF0A4B9B68C3F30313094AD35CD84026
:10B85000084B1860084B1868FEF73CFB002070E7A7
:10B860000120704701206CE7003C02400038024094
:10B8700004DE01080800002004000020014B1868C5
:10B88000704700BF0800002008B5FFF7F7FF044B22
:10B890009B68C3F38223034AD35CD84008BD00BF32
:10B8A0000038024014DE010808B5FFF7E7FF044B3B
:10B8B0009B68C3F34233034AD35CD84008BD00BF42
:10B8C0000038024014DE01080F2303600B4B9A6816
:10B8D00002F0030242609A6802F0F00282609A6805
:10B8E00002F4E052C2609B68DB0803F4E05303619A
:10B8F000034B1B6803F00F030B60704700380240D6
:10B90000003C0240F0B583B00446036813F0010F19
:10B910000CD0AF4B9A6822F400029A609A68416B8F
:10B920000A439A60436BC3B1002600E000262368F7
:10B9300013F4002F15D0A64AD2F88C3023F440130C
:10B94000E16B0B43C2F88C30E36BB3F5801F06D07C
:10B95000002B00F01B81002504E00126E7E701260B
:10B96000F6E70025236813F4801F0FD0984AD2F819
:10B970008C3023F44003216C0B43C2F88C30236CD1
:10B98000B3F5800F00F0048103B90125236813F09B
:10B99000807F00D0012613F0200F40F0FB80236849
:10B9A00013F0100F0CD08A4BD3F88C2022F0807249
:10B9B000C3F88C20D3F88C20A16B0A43C3F88C20E9
:10B9C000236813F4804F08D0814AD2F8903023F4D2
:10B9D0004033616E0B43C2F89030236813F4004F7C
:10B9E00008D07B4AD2F8903023F44023A16E0B4359
:10B9F000C2F89030236813F4803F08D0744AD2F81C
:10BA0000903023F44013E16E0B43C2F8903023686A
:10BA100013F4003F08D06E4AD2F8903023F440036C
:10BA2000216F0B43C2F89030236813F0400F08D009
:10BA3000674AD2F8903023F00303616C0B43C2F8DD
:10BA40009030236813F0800F08D0614AD2F890300C
:10BA500023F00C03A16C0B43C2F89030236813F45D
:10BA6000807F08D05A4AD2F8903023F03003E16C3E
:10BA70000B43C2F89030236813F4007F08D0544A77
:10BA8000D2F8903023F0C003216D0B43C2F8903000
:10BA9000236813F4806F08D04D4AD2F8903023F415
:10BAA0004073616D0B43C2F89030236813F4006F4C
:10BAB00008D0474AD2F8903023F44063A16D0B437D
:10BAC000C2F89030236813F4805F08D0404AD2F85F
:10BAD000903023F44053E16D0B43C2F8903023685B
:10BAE00013F4005F08D03A4AD2F8903023F4404370
:10BAF000216E0B43C2F89030236813F4800F08D0F6
:10BB0000334AD2F8903023F08063A16F0B43C2F820
:10BB10009030236813F4001F0DD02D4AD2F89030D6
:10BB200023F00063E16F0B43C2F89030E36FB3F191
:10BB3000006F00F09980236813F0080F00D00125F2
:10BB400013F4802F08D0224AD2F8903023F04073AB
:10BB5000616F0B43C2F89030236813F4000F09D0D3
:10BB60001B4AD2F8903023F08053D4F880100B4356
:10BB7000C2F89030002E79D12368B3F1007F75D0E0
:10BB8000002D40F00681002003B0F0BD0125E9E65C
:10BB90000126F9E60E4B1A6C42F080521A641B6CB7
:10BBA00003F080530193019B0A4A136843F48073A6
:10BBB000136000F0A7FD0746064B1B6813F4807F57
:10BBC0000AD100F09FFDC01B6428F5D90320DBE7F4
:10BBD0000038024000700040B34B1B6F13F44073F9
:10BBE00015D0226B02F440729A4210D0AE4B1A6FFD
:10BBF00022F44072196F41F480311967196F21F4F2
:10BC0000803119671A671B6F13F0010F12D1236B74
:10BC100003F44072B2F5407F1DD0A34A936823F429
:10BC2000F8139360A0490B6F226BC2F30B0213430E
:10BC30000B67B4E600F066FD07469B4B1B6F13F0E5
:10BC4000020FE4D100F05EFDC01B41F28833984240
:10BC5000F3D9032098E79448826822F4F8129349B4
:10BC600019400A438260DDE7012564E78E4A1368C4
:10BC700023F08063136000F045FD06468A4B1B6885
:10BC800013F0006F06D000F03DFD801B6428F5D94D
:10BC9000032079E7236813F0010F13D0636B8BB98E
:10BCA000814AD2F88430D2F88410606803F44033BB
:10BCB00043EA801301F070610B43A16843EA01730A
:10BCC000C2F88430236813F4002F03D0E26BB2F57E
:10BCD000801F06D013F4801F1ED0236CB3F5800F95
:10BCE0001AD1714AD2F88430D2F88410606803F413
:10BCF000403343EA8013E06843EA006301F0E04127
:10BD00000B43C2F88430D2F88C3023F01F03616AF1
:10BD100001390B43C2F88C30236813F0807F11D0B7
:10BD2000614AD2F88400D2F88410666823691B0443
:10BD300043EA861300F07060034301F0E0410B43D7
:10BD4000C2F88430236813F0007F0DD06268236945
:10BD50001B0443EA8213E26843EA0263A26843EAEF
:10BD60000273514AC2F884304F4A136843F080632B
:10BD7000136000F0C7FC06464B4B1B6813F0006FC6
:10BD80007FF4FEAE00F0BEFC801B6428F4D90320D3
:10BD9000FAE6454A136823F08053136000F0B2FCC2
:10BDA0000546414B1B6813F0005F06D000F0AAFC6B
:10BDB000401B6428F5D90320E6E6236813F4002F1E
:10BDC00001D0E26B22B113F4801F1DD0236CDBB9CC
:10BDD000354AD2F88830D2F88810606903F44033CD
:10BDE00043EA8013A06943EA006301F0E0410B439A
:10BDF000C2F88830D2F88C3023F4F853A16A0139A4
:10BE000043EA0123C2F88C30236813F4001F03D0E7
:10BE1000E36FB3F1006F31D0236813F0080F19D02E
:10BE2000214AD2F88810D2F88830606903F4403390
:10BE300043EA801301F070610B43E16943EA017347
:10BE4000C2F88830D2F88C3023F44033E16A0B43D7
:10BE5000C2F88C30144A136843F08053136000F02A
:10BE600051FC0446104B1B6813F0005F19D100F021
:10BE700049FC001B6428F5D9032085E60A4AD2F85C
:10BE80008800D2F888106569236A1B0443EA851389
:10BE900000F07060034301F0E0410B43C2F88830CA
:10BEA000BAE7002070E600BF00380240FFFCFF0F39
:10BEB00010B4B0F5002F07D00023B0F5801F65D077
:10BEC00018465DF8044B7047614BD3F88C3003F48F
:10BED0004013B3F5801F2ED0B3F5001F54D00BB123
:10BEE0000023EAE75A4B5B6813F4800F1BD1584BD1
:10BEF0005A6802F03F02574BB3FBF2F3544AD2F8B0
:10BF00008810C1F30361D2F88840C4F3881403FB9E
:10BF100004F3B3FBF1F3D2F88C20C2F30422013214
:10BF2000B3FBF2F3C9E74A4B5A6802F03F024A4BAF
:10BF3000B3FBF2F3E2E7464B5B6813F4800F1BD1CF
:10BF4000434B5A6802F03F02424BB3FBF2F3404AC4
:10BF5000D2F88410C1F30361D2F88440C4F388148A
:10BF600003FB04F3B3FBF1F3D2F88C2002F01F02C1
:10BF70000132B3FBF2F3A0E7354B5A6802F03F02FF
:10BF8000354BB3FBF2F3E2E7344B96E7304AD2F895
:10BF90008C2002F44002B2F5800F2DD0B2F5000FD4
:10BFA00053D0002A8CD12A4B5B6813F4800F1BD12D
:10BFB000274B5A6802F03F02264BB3FBF2F3244AA8
:10BFC000D2F88800C0F30360D2F88810C1F388115A
:10BFD00003FB01F3B3FBF0F3D2F88C00C0F30420B1
:10BFE0000130B3FBF0F36BE7194B5A6802F03F02E4
:10BFF000194BB3FBF2F3E2E7154B5B6813F4800FC8
:10C000001BD1134B5A6802F03F02124BB3FBF2F301
:10C010000F4AD2F88400C0F30360D2F88410C1F351
:10C02000881103FB01F3B3FBF0F3D2F88C0000F0AE
:10C030001F000130B3FBF0F342E7054B5A6802F0F2
:10C040003F02054BB3FBF2F3E2E7044B38E700BFD6
:10C05000003802400024F40040787D010080BB00DD
:10C0600010B40A490C6924F440740C610C6944F45E
:10C0700040740C610C6944F001040C61026043607F
:10C08000BFF34F8F5DF8044B704700BF003C024088
:10C09000084B1A6922F440721A611A6942F400725C
:10C0A0001A611A6942F001021A610160BFF34F8FF1
:10C0B000704700BF003C0240084B1A6922F44072EE
:10C0C0001A611A6942F480721A611A6942F0010217
:10C0D0001A610180BFF34F8F704700BF003C0240E0
:10C0E000074B1A6922F440721A611A691A611A69B7
:10C0F00042F001021A610170BFF34F8F704700BF19
:10C10000003C02401A4BDB6813F0020F04D0194ABE
:10C11000936943F020039361154BDB6813F0100F14
:10C1200004D0144A936943F010039361104BDB6809
:10C1300013F0200F04D00F4A936943F00803936172
:10C140000B4BDB6813F0400F04D00A4A936943F0AD
:10C1500004039361064BDB6813F0800F04D0054A9B
:10C16000936943F002039361014BF222DA60704756
:10C17000003C02404C1E0120094B1B69002B01DBD7
:10C1800000207047064B074A5A6002F188325A6015
:10C190001B69002B01DB002070470120704700BFA6
:10C1A000003C024023016745034A136943F0004302
:10C1B00013610020704700BF003C024038B50446C0
:10C1C000164B00229A6100F09DFA0546144BDB687D
:10C1D00013F4803F0AD0B4F1FF3FF7D0CCB100F0A8
:10C1E00091FA401BA042F1D903200DE00C4BDB6813
:10C1F00013F0F20F09D10A4BDB6813F0010F0AD0DC
:10C20000074B0122DA60002038BDFFF77BFF0120D9
:10C21000FAE70320F8E70020F6E700BF4C1E0120F4
:10C22000003C0240F8B51E4C247D012C35D01F4641
:10C2300016460D4604461A4B01221A754CF2503030
:10C24000FFF7BCFF014698B9032C07D8DFE804F0DC
:10C2500002151A1FF1B22846FFF742FF4CF2503088
:10C26000FFF7ACFF01460F4A136923F00103136186
:10C270000B4B00221A750846F8BDB1B22846FFF7ED
:10C280001BFFEBE731462846FFF702FFE6E73246A1
:10C290003B462846FFF7E4FEE0E70221EBE700BF5C
:10C2A0004C1E0120003C0240084B1A6922F44072E7
:10C2B0001A611A6942F004021A611A6942EA0020FE
:10C2C00040F480301861BFF34F8F7047003C02404C
:10C2D00010B449B1012923D0022902D04FF440748F
:10C2E00003E04FF4007400E000240F4B196921F4BF
:10C2F000407119611A6922431A611A6922F0F80221
:10C300001A611A6942EAC00040F0020018611A6915
:10C3100042F480321A61BFF34F8F5DF8044B7047CF
:10C320004FF48074E1E700BF003C0240214B1B7DCD
:10C33000012B3CD070B50E4604461E4B01221A75E7
:10C340004CF25030FFF73AFF024658BB4FF0FF3334
:10C3500033602368012B16D06568A36861680B44BD
:10C36000AB421FD9217B2846FFF7B2FF4CF2503079
:10C37000FFF724FF104A136923F07A031361024682
:10C3800078B90135E9E7207BFFF78EFF4CF250309A
:10C39000FFF714FF024608490B6923F004030B6101
:10C3A00000E03560034B00211975104670BD022274
:10C3B000104670474C1E0120003C024000230F2B0A
:10C3C00000F2E180F0B583B039E0092200E00022FC
:10C3D000B2403A4302346C4E46F824206B4A14684B
:10C3E000EA4302EA04064F6817F4803F01D045EAA9
:10C3F0000406664C2660646802EA04064F6817F477
:10C40000003F01D045EA0406604C6660A46802EA79
:10C4100004064F6817F4801F01D045EA04065B4C00
:10C42000A660E46822404E6816F4001F01D045EA79
:10C430000402564CE26001330F2B00F2A28001226D
:10C440009A400C6804EA0205AA42F4D14C68661EC0
:10C45000112C18BF012E01D9122C12D186685F0051
:10C460000324BC4026EA0406CC68BC403443846004
:10C47000466826EA02064C68C4F300129A4032432A
:10C480004260C2685F000326BE40F64332408C68BB
:10C49000BC401443C4604A68122A18BF022A13D150
:10C4A000DC08083450F824E003F007024FEA820C5D
:10C4B0000F2202FA0CF22EEA020E0A6902FA0CF2BC
:10C4C00042EA0E0240F82420026816404A6802F050
:10C4D0000302BA40324302604A6812F0805FAAD079
:10C4E0002B4A546C44F480445464526C02F48042ED
:10C4F0000192019A9C08A61C234A52F8267003F068
:10C50000030296000F22B24027EA0207214A904216
:10C510003FF45DAF02F58062904222D002F5806266
:10C52000904220D002F5806290421ED002F58062D7
:10C5300090421CD002F5806290421AD002F58062CF
:10C54000904218D002F58062904216D002F58062C7
:10C55000904214D002F5806290423FF436AF0A2236
:10C5600036E7012234E7022232E7032230E70422D1
:10C570002EE705222CE706222AE7072228E70822D1
:10C5800026E703B0F0BD704700380140003C014091
:10C59000003802400000024012B90904816170476E
:10C5A00081617047024A136843F4807313607047D7
:10C5B0000070004010B582B01B4B1A6C42F08052E4
:10C5C0001A641B6C03F080530193019B174A136894
:10C5D00043F48033136000F095F80446134B5B6816
:10C5E00013F4803F08D100F08DF8001BB0F57A7F7E
:10C5F000F4D9032002B010BD0C4A136843F4003391
:10C60000136000F07FF80446084B5B6813F4003FAA
:10C6100007D100F077F8001BB0F57A7FF4D903203A
:10C62000E8E70020E6E700BF003802400070004065
:10C630000649CB6823F4E0631B041B0C000200F4E2
:10C64000E0600343024A1A43CA60704700ED00E00D
:10C650000000FA0530B4154BDB68C3F30223C3F1C5
:10C660000704042C28BF04241D1D062D14D9033BE8
:10C670004FF0FF3505FA04F421EA0401994005FA68
:10C6800003F322EA03031943002807DB0901C9B2B7
:10C69000074B195430BC70470023E9E700F00F0046
:10C6A0000901C9B2034B1954F4E700BF00ED00E0E3
:10C6B00000E400E014ED00E0002807DB00F01F02BA
:10C6C000400901239340024A42F82030704700BFDE
:10C6D00000E100E008B50320FFF7AAFF0020FDF706
:10C6E000F9FBFCF78BFE002008BD0000034A11682F
:10C6F000034B1B780B441360704700BF681E01207A
:10C7000000000020014B1868704700BF681E012020
:10C7100038B50446FFF7F6FF0546B4F1FF3F02D0F7
:10C72000044B1B781C44FFF7EDFF401BA042FAD3DB
:10C7300038BD00BF00000020002857D010B50446C7
:10C7400090F84130002B41D0242384F841302268F6
:10C75000136823F0010313606368226823F0706399
:10C7600013612268936823F400439360E368012B0C
:10C7700031D0A368226843F404439360E368022B3A
:10C780002FD0226851681A4B0B4353602268D3683C
:10C7900023F40043D360236962691343A1692268CB
:10C7A00043EA0123D360E369216A22680B431360E3
:10C7B0002268136843F001031360002060642023A3
:10C7C00084F84130206384F8420010BD80F8403086
:10C7D000FCF738FFB8E7A368226843F4004393608E
:10C7E000CCE723684FF400625A60CAE70120704723
:10C7F0000080000290F84130DBB2202B24D190F869
:10C800004030012B22D0012380F84030242380F8CF
:10C8100041300268136823F0010313600268136853
:10C8200023F480531360026813681943116002688F
:10C83000136843F001031360202380F84130002384
:10C8400080F8403018467047022070470220704739
:10C8500090F84130DBB2202B22D190F84030012BF0
:10C8600020D0012380F84030242380F84130026832
:10C87000136823F0010313600268136823F47063E4
:10C8800043EA012111600268136843F00103136059
:10C89000202380F84130002380F84030184670474C
:10C8A0000220704702207047F8B50668346A04F029
:10C8B0000F07C4F34343C4F30A14022B2ED16CB305
:10C8C00007EB8702D3000344596C39B3054622466F
:10C8D000304600F00DFDBA003A44D3002B445A6CA8
:10C8E00022445A64DA6C2244DA6406EB4713D3F824
:10C8F00010150B4A0A408AB1D3F8002522F0804275
:10C9000042F00042C3F80025BB00D919CA002A44EE
:10C9100092F8503083F0010382F85030F8BD00BF28
:10C920000000F81F002845D0F0B58BB0064604681B
:10C9300090F8B932002B38D0032386F8B932E36B74
:10C9400013F4807F01D100233361306800F08CFC48
:10C95000344654F810CB6D460FCC0FC50FCC0FC525
:10C9600094E8030085E80300371D97E80E00604651
:10C9700000F03CFC0121306800F07CFC344654F8A7
:10C9800010CB6D460FCC0FC50FCC0FC594E803003C
:10C9900085E8030097E80E00604600F009FD0123DA
:10C9A00086F8B93200200BB0F0BD80F8B832FDF740
:10C9B000F3F9C1E70120704770477047704770472F
:10C9C000704730B583B005460468D4F8403401930D
:10C9D000D4F840340093009B23F02E030093019B76
:10C9E00013F0020F07D0019B13F0010F25D1009B1C
:10C9F00043F002030093019B13F0080F10D0009B3B
:10CA000043F008030093019B13F0040F2DD0AB6992
:10CA1000022B15D0EB68012B22D02846FFF7CFFF61
:10CA2000019B13F0200F03D0009B43F020030093E1
:10CA3000009BC4F8403403B030BDFFF7BEFFD6E71B
:10CA4000019B03F4C023B3F5802F04D00121286893
:10CA500000F06AFCE1E70221286800F065FCDCE7F1
:10CA60004EF66022C4F80424D7E72846FFF7A8FF53
:10CA7000D6E77047F8B506460D46076807EB41173D
:10CA800007F5A064A36813F0040F3FD00423A3604C
:10CA9000E36843F00203E360A36813F4007F40F00F
:10CAA0008180A36813F0010F00F0B68033694BB1A9
:10CAB000AA002A44D30033449A6C2169C1F31201BD
:10CAC000521ADA64AA002A44D3003344012283F8BC
:10CAD0005D2000219965A26093F83F30022B14BFBE
:10CAE000002201228B4208BF0122002A66D1032BBB
:10CAF0006FD0012B7FD0AB005919CA00324492F895
:10CB0000503083F0010382F85030F8BDA36813F46D
:10CB1000807F06D1A36813F0200F14D02023A360D8
:10CB2000BAE74FF48073A36001EB8102D3000344A2
:10CB3000072283F85D20E36843F00203E3600068A6
:10CB400000F0B1FCA8E7A36813F0080F17D1A368A1
:10CB500013F4806FA0D0E36843F00203E360006841
:10CB600000F0A1FC1023A36005EB8502D300334441
:10CB7000082283F85D204FF48063A3608CE7E368AC
:10CB800043F00203E36001EB8102D300034405227A
:10CB900083F85D201023A3600823A360006800F0E1
:10CBA00082FC79E7E36843F00203E36029463068DA
:10CBB00000F079FC4FF40073A360A6E7E36843F04C
:10CBC0000203E3602946306800F06DFC1023A36087
:10CBD00091E7D7F8003543F00053C7F8003505EB6F
:10CBE0008502D3003344012283F85C202946304675
:10CBF000FFF73FFF7FE7AA002A44D3003344012216
:10CC000083F85C2093F85010514083F85010294667
:10CC10003046FFF72EFF6EE7A36813F0020F6FD0C8
:10CC2000E36823F00203E36005EB8502D30033449D
:10CC300093F85D30012B20D0052B32D0082B18BF84
:10CC4000062B3ED1AA002A44D30033449A6D013208
:10CC50009A65032A2DD9AA002A44D300334400221E
:10CC60009A65042283F85C20D7F8003523F08043CE
:10CC700043F00043C7F8003506E005EB8502D3001A
:10CC80003344012283F85C200223A36005EB850274
:10CC9000D300334493F85C2029463046FFF7E9FE81
:10CCA00033E705EB8502D3003344052283F85C208B
:10CCB000EAE705EB8502D3003344022283F85C20C7
:10CCC000D2E7032B0CD0072BDED1AA002A44D300D5
:10CCD00033449A6D01329A65042283F85C20D3E7CD
:10CCE00005EB8502D3003344022283F85C20D7F899
:10CCF000003523F0804343F00043C7F80035C3E715
:10CD0000A36813F0800F21D1A36813F0100F3FF434
:10CD1000FCAE05EB8502D3001A46334493F83F304E
:10CD2000032B2BD0022B14BF00220122002B14BF97
:10CD3000134601233BB105EB8502D30033440022A7
:10CD40009A6533694BB31023A360DEE6E36843F0D2
:10CD50000203E360AB005919CA003244916D0131FE
:10CD600091652B44DA003244062382F85D3029466F
:10CD7000306800F098FB8023A360C6E605EB8502CF
:10CD8000D300334400229A65E36843F00203E36072
:10CD90002946306800F087FBD5E705EB8502D30014
:10CDA0003344032283F85D20E36843F00203E36029
:10CDB0002946306800F077FBC5E7F8B5036803EB58
:10CDC000411303F5A064A26812F0040F24D10E46AB
:10CDD0000546A26812F0200F25D02023A36001EBA6
:10CDE0008102D3001A46034493F83D30012B19D138
:10CDF0008B000244002182F83D103344DA000244E3
:10CE0000022382F85C30E36843F00203E3603146BA
:10CE1000006800F048FB05E00423A360E36843F0EA
:10CE20000203E360F8BDA26812F0400F34D1A2689B
:10CE300012F4007F4AD1A26812F0010F51D1A2680A
:10CE400012F0080F62D1A26812F0100F6FD08A00A2
:10CE50000A44D300034400229A65032283F85D202C
:10CE600093F83D306BB901EB8102D300034493F892
:10CE70003C3033B901EB8102D3000344012283F833
:10CE80003D20E36843F00203E3603146286800F088
:10CE90000AFB1023A360C5E78B005918CA0002449F
:10CEA000042182F85D10012182F83D103344DA003C
:10CEB000024400239365E36843F00203E3603146D4
:10CEC000006800F0F0FA4023A360ABE7E36843F0AA
:10CED0000203E360006800F0E6FA4FF40073A36019
:10CEE000A0E78F007A18D300034400229A65E36814
:10CEF00043F00203E360006800F0D5FA0123A36069
:10CF0000B919C800284480F85D308BE70823A36076
:10CF1000E36843F00203E360006800F0C4FA06EB44
:10CF20008601C8002844052380F85D307AE7A268AE
:10CF300012F0800F36D1A26812F4806F43D1A2683C
:10CF400012F0020F3FF46EAFE26822F00202E260DC
:10CF500001EB8101CA001146024492F85D20012ACA
:10CF600045D0032A57D0042A69D0052A6FD0082A51
:10CF700018BF062A56D1282101FB06018A6D01320D
:10CF80008A65032A69D90A4600219165042182F83D
:10CF90005C10D3F8002522F0804242F00042C3F832
:10CFA00000253FE0E36843F00203E360006800F01F
:10CFB0007AFA06EB8601CB002B44062283F85D202B
:10CFC0008023A3602EE7E36843F00203E360006878
:10CFD00000F069FA1023A3604FF48063A36006EBAE
:10CFE0008601CB002B44082283F85D201AE70B460C
:10CFF0000344012283F85C2093F83F30023BDBB20C
:10D0000093420FD80B46034493F8512082F001025B
:10D0100083F8512006E006EB8602D3000344022287
:10D0200083F85C200223A36006EB8602D3002B4426
:10D0300093F85C2031462846FFF71BFDF2E606EB2D
:10D040008602D3000344022283F85C20EAE7282307
:10D0500003FB060383F85C20E4E7282202FB0602B8
:10D06000022182F85C1094E7F8B50446056828466A
:10D0700000F056F9012800D0F8BD206800F04CF906
:10D080000028F9D0206800F047F910F4001F03D001
:10D0900023684FF400125A61206800F03DF910F443
:10D0A000801F03D023684FF480125A61206800F07B
:10D0B00033F910F0806F03D023684FF080625A611B
:10D0C000206800F029F910F0020F02D02368022234
:10D0D0005A61206800F020F910F0005F08D0236842
:10D0E0004FF000525A61D5F8403413F0010F25D0AB
:10D0F000206800F011F910F0807F27D1206800F03F
:10D100000BF910F0080F25D1206800F005F910F098
:10D11000007F26D1206800F0FFF810F0100FABD090
:10D120002268936923F0100393612046FFF7BCFB4C
:10D130002268936943F0100393619DE72046FFF74F
:10D140003DFC0121206800F0EFF8D1E72046FFF711
:10D1500038FCD3E72046FFF72FFC236808225A61EA
:10D16000D2E7206800F09AF90746002604E0F1B201
:10D170002046FFF722FE0136A368B34212D906F01B
:10D180000F0327FA03F313F0010FF4D005EB461356
:10D19000D3F8003513F4004FE9D0F1B22046FFF781
:10D1A00069FCE8E723684FF000725A61B2E70000BB
:10D1B000002301330C4A934211D80269002AF8DA9D
:10D1C000036943F00103036100230133064A9342DC
:10D1D00007D8026912F0010FF7D100207047032031
:10D1E00070470320704700BF400D030084B010B5A6
:10D1F000044603A880E80E00089B012B1DD1A36BF9
:10D2000023F48033A363E268164B1340E360E368C2
:10D2100023F44013E3600F9B012B09D02046FFF756
:10D22000C7FF069B012B14D0BDE8104004B0704727
:10D23000E36843F48013E360F0E7E36843F04003FE
:10D24000E3602046FFF7B4FFA36B43F48033A3638E
:10D25000E7E7A36843F00603A360A36843F0200355
:10D26000A360E1E7BFFFBDFF836823F00103836094
:10D270000020704708B5C36823F0C043C36001298C
:10D2800009D069B9C36843F08043C3603220FFF717
:10D290003FFA002008BDC36843F00053C360F5E7C0
:10D2A0000120F7E7890141F02001016100230133EA
:10D2B000054A934205D8026912F0200FF7D10020E9
:10D2C00070470320704700BF400D03001023036127
:10D2D00000230133054A934205D8026912F0100F6A
:10D2E000F7D1002070470320704700BF400D0300B6
:10D2F00003329208002393420CD210B400F58054FC
:10D30000246841F8044B01339342F7D308465DF893
:10D31000044B704708467047426980691040704767
:10D32000406900F00100704710B400F58064D0F847
:10D33000003423F00303C0F80034D0F8003401F0C7
:10D3400003021343C0F80034012905D0022907D095
:10D3500000205DF8044B70474BF680336360F7E7BD
:10D3600041F270736360F3E782B000230193D0F859
:10D3700040340193019B23F02E030193019B13F48E
:10D38000805F01D101290CD0019B13F4805F05D08F
:10D3900021B9019B23F48053C0F84034002002B02F
:10D3A0007047019B43F48053C0F84034ECE7000021
:10D3B00084B038B5044605A880E80E002546002351
:10D3C000C4F8003EA36B23F40013A363E36B13F4D0
:10D3D000807F10D0079B012B06D0D4F8003423F0B7
:10D3E0000403C4F800340CE0D4F8003443F0040320
:10D3F000C4F8003405E0D4F8003423F00403C4F882
:10D40000003410212046FFF74DFF2046FFF75EFF56
:10D41000002209E005EB42134FF0FF31C3F8081575
:10D420000021C3F80C150132069B9342F2D801216A
:10D430002046FFF799FFC820FFF76AF90023A36190
:10D440004FF0FF336361E36B13F4807F17D04FF429
:10D450000073636203F18073A3620D4BC4F8003163
:10D46000089B1BB9A36943F01003A361A269094B90
:10D470001343A3610020BDE8384004B07047802307
:10D48000636203F5C003A362034BC4F80031E7E70E
:10D490000003E000080020A3E000400000F58060E9
:10D4A000406980B2704710B400EB411101F5A062F1
:10D4B000D1F80035C3F38143022B14BF00240124AB
:10D4C000002B14BF234601235BB3D1F8003543F092
:10D4D0008043C1F80035C36A13F47F0F1AD1D1F825
:10D4E000003523F00043C1F80035D1F8003543F092
:10D4F0000043C1F80035D1F8003523F40043C1F8EA
:10D50000003500230133B3F57A7F36D8116800293E
:10D51000F8DB32E0D1F8003543F00043C1F80035C4
:10D520002BE0D1F8003543F08043C1F80035D0F846
:10D53000103413F47F0F1AD1D1F8003523F00043D3
:10D54000C1F80035D1F8003543F00043C1F800358B
:10D55000D1F8003523F40043C1F80035002301332E
:10D56000B3F57A7F09D811680029F8DB05E0D1F816
:10D57000003543F00043C1F8003500205DF8044B4E
:10D58000704700004A4B5A6822F440325A605A6889
:10D5900041680A435A600268536823F480735360F9
:10D5A00002685368016943EA0123536002685368C3
:10D5B00023F0407353600268536881680B435360E3
:10D5C0000268936823F40063936002689368C168FB
:10D5D0000B439360826A374B9A424BD00268936840
:10D5E00023F07063936002689368816A0B439360D1
:10D5F0000268936823F04053936002689368C16A9D
:10D600000B4393600268936823F0020393600268FF
:10D610009368816943EA4103936090F82030002BBE
:10D6200033D10268536823F4006353600268D36AFD
:10D6300023F47003D3620168CB6AC269013A43EAFA
:10D640000253CB620268936823F40073936002680C
:10D65000936890F8301043EA41239360026893681E
:10D6600023F48063936002689368416943EA8123ED
:10D67000936070470268936823F070639360026858
:10D68000936823F040539360BCE70268536843F407
:10D69000006353600268536823F460435360016879
:10D6A0004B68426A013A43EA42334B60BEE700BF2F
:10D6B000002301400100000F28B310B50446036C9D
:10D6C00043B1236C13F0100F0BD00120002384F81A
:10D6D0003C3010BDFBF7B2FE0023636484F83C309D
:10D6E000EFE7226C094B134043F00203236420460A
:10D6F000FFF748FF00206064236C23F0030343F02E
:10D7000001032364E2E70120704700BFFDEEFFFF45
:10D7100030B482B00023019390F83C30012B00F02C
:10D72000D180012380F83C300B68B3F1004F18BF63
:10D73000092B22D90568EA689BB203EB43031E3B21
:10D74000072404FA03F322EA0303EB600B685E4A42
:10D7500093420BD00568EA688C689BB203EB4303E5
:10D760001E3B04FA03F31343EB601BE00268D3682B
:10D770008C6843EA0463D36014E005682A699BB2AD
:10D7800003EB4303072404FA03F322EA03032B61A8
:10D7900005682A698C680B8803EB430304FA03F3DA
:10D7A00013432B614B68062B28D805686A6B03EB83
:10D7B0008303053B1F2404FA03F322EA03036B638C
:10D7C00005686A6B4B6803EB8303053B0C8804FA1E
:10D7D00003F313436B6302683C4B9A423ED00268EA
:10D7E0003A4B9A4244D00268384B9A4249D00023BF
:10D7F00080F83C30184602B030BC70470C2B16D86D
:10D8000005682A6B03EB8303233B1F2404FA03F30D
:10D8100022EA03032B6305682A6B4B6803EB83033F
:10D82000233B0C8804FA03F313432B63D3E7056807
:10D83000EA6A03EB8303413B1F2404FA03F322EA61
:10D840000303EB620568EA6A4B6803EB8303413B21
:10D850000C8804FA03F31343EB62BCE70B68B3F1E3
:10D86000004FBCD11A4A536823F440035360B6E713
:10D870000B68122BB7D1164A536843F480035360E8
:10D88000B1E70B68104A112B18BF9342AFD1104A71
:10D89000536843F4000353600A680B4B9A42A6D1C5
:10D8A0000C4B1B680C4AA2FB03239B0C03EB83036A
:10D8B0005A00019202E0019B013B0193019B002B66
:10D8C000F9D194E7022096E71200001000200140F1
:10D8D000002301400800002083DE1B43002838D0CD
:10D8E00010B50446437F1BB30223637723791BBB28
:10D8F0002368194A5A612268936823F018039360D9
:10D90000637913BB23684FF0FF321A612268936872
:10D9100023F0600361690B4393602268936823F0EE
:10D920008003A1690B43936001236377002010BD3E
:10D930000377FBF7C7FDD7E7E268A168204600F050
:10D940000DF80028DCD00120F1E7236822691A6174
:10D95000DCE70120704700BFB71DC10430B41F24AD
:10D96000651E3CB105F01F0321FA03F32C4613F0AA
:10D97000010FF5D0182A23D8DFE802F00F22222267
:10D98000222222221E222222222222221A22222283
:10D99000222222220D00062D14D803685961016845
:10D9A0008B6823F018031A438A60002030BC70474C
:10D9B000072DF2D90120F9E70F2DEED90120F5E767
:10D9C0000120F3E70120F1E738B310B5044690F8E1
:10D9D0003930EBB1022384F839302268136823F41C
:10D9E000403361680B4313602268536B23F00703D5
:10D9F000A1680B4353632268116C094B0B40E1682B
:10DA00000B4313640020E063012384F8393010BD18
:10DA100080F83830FBF7F6FDDCE70120704700BFE7
:10DA200000C0FFFF7047704770B5044603685D682B
:10DA30001E6815F0010F16D016F4807F13D01A68F7
:10DA400022F480721A60C36B43F00103C36303685E
:10DA500001229A60042380F83930002380F838309E
:10DA6000436903B1984715F0200F18D016F4005FF2
:10DA700015D02268136823F4005313602368202212
:10DA80009A60E36B43F00203E363042384F83930C4
:10DA9000002384F8383063690BB12046984715F0AD
:10DAA000080F18D016F4006F15D02268136823F4FD
:10DAB00000631360236808229A60E36B43F0040359
:10DAC000E363042384F83930002384F83830636931
:10DAD0000BB12046984715F0040F02D016F4806F62
